S02B0000416C6C5F5374646C696E6B5365635F53616D5232315F417473616D723231673138615F526632333329
S2840020001866002045E002000000000069D202000000000000000000000000000000000000000000000000000000000000000000000000000000000000000000000000000000000000000000000000000000000000000000000000000000000000000000000000000000000000000000000000000000000000000000000000000000000059
S2840020800000000000000000000000000000000000000000000000000000000000000000000000000000000000000000000000000000000000000000000000000000000000000000000000000000000000000000000000000000000000000000000000000000000000000000000000000000000000000000000000000000000000000000DB
S28400210000000000000000000000000000000000000000000000000000000000000000000000000000000000000000000000000000000000000000000000000000000000000000000000000000000000000000000000000000000000000000000000000000000000000000000000000000000000000000000000000000000000000000005A
S2840021800000000000000000000000000000000000000000000000000000000000000000000000000000000000000000000000000000000000000000000000000000000000000000000000000000000000000000000000000000000000000000000000000000000000000000000000000000000000000000000000000000000000000000DA
S284002200000000000000000000000000000000000000000000000000000000000000000000000000000000000000000000000000000000000000000000000000000000000000000000000000000000000000000000000000000000000000000000000000000000000000000000000000000000000000000000000000000000000000000059
S28400610009000100354D002000000000000000000800200010350020000000000100000007003002E83B0020000000000100000006000200584D0020000000000000000005001C0030350020000000000200000004000300524D002000000000000000000300F000F83E002000000000020000000200A000A0280020000000000100000052
S28400618001006000782600207DE8000000000000F04603000900014008B50AF085F90AF09FF9FCE7002934D00123002210B488422CD301242407A14204D2814202D209011B01F8E7E400A14204D2814202D249005B00F8E7884201D3401A1A434C08A04202D3001B5C0822438C08A04202D3001B9C082243CC08A04202D3001BDC082243EB
S284006200002803D01B0901D00909E3E7101C10BC7047002801D00020C04307B4024802A14018029003BDC046D90000000029F0D003B5FFF7B9FF0EBC4243891A1847C046002941D010B4041C4C40A44601230022002900D54942002800D5404288422CD301242407A14204D2814202D209011B01F8E7E400A14204D2814202D249005B0083
S284006280F8E7884201D3401A1A434C08A04202D3001B5C0822438C08A04202D3001B9C082243CC08A04202D3001BDC082243002803D01B0901D00909E3E7101C6446002C00D5404210BC7047002806D003DB0020C043400801E08020000607B4024802A14018029003BDC046190000000029EBD003B5FFF7A7FF0EBC4243891A1847C046A2
S2840063007047C046F8B55F46564644464D46F0B40C034D00CE0F610A440F2143C400180380465800400D8246D80F84464046400A530F0343D0006D0D371C83465246664500D1A4E0AF1A002F00DC09E1002A3BD1184300D0EAE0630700D187E00F232340042B00D182E0221DA242A4416442802309191B040B40371C141C002B00D17CE0DE
S284006380CE4B01359D4200D105E1CD4BE40819404807490204430B0B002000211B031A0B0B0D6D051B0513436A08C64DFF071D4015436D006D08291C3943201C3CBC90469946A246AB46F8BDBC488542C3D0802000040343382F00DDF0E01F2F00DD24E12020C01B1A1C814682405846F8400243944658464A469040421E9041FB40624614
S28400640002431F1CA21A9442A4416442C91B091B141C0B029FD549024F0A002F00D1C8E0381C01F079FB021C083A1F2A00DDB5E02821091A201C9740C84007439440954200DDB2E0551B691C1F2900DDDCE01F22551B3B1C221CAB40CA40AC40651EAC411343CF401C43391C002574E780231B040B40371C002B00D082E7904B4807E408D6
S2840064800443C9089D4248D009030B0B84E7AA1A9446002A00DC98E05046002852D08748854200D157E78020000403436246382A00DDFCE01F2A00DD4AE120226046101A1A1C82408246914658466246D0404A4602439046584652469040421E9041424602436046C3401219A242A441644259180919141C080200D42DE7704B01359D42E6
S28400650000D122E16E4B60081940012323401C1C0443CB071C4349081DE7231C0B433AD080231B030B431B031B0B35E7013F002F65D15846221A9442A4416442C91A091B141C66E75846184300D104E70122524294446046002800D0C5E058460219C3E7002F73D1681C4005400D012800DCDEE05A46A21A9442BF41C81A7F42C71B3802AB
S28400658000D489E05A46141BA3459241591A52428F1A664641E700230024FDE6271C283887400024954200DC4CE74549AD1A3940D1E6201C01F0B0FA203034E75A461A43531E9A41D2B200271CE7002A00D0DCE0681C4205520D012A00DC8DE0374DA84200D1F3E05D462A19A242A441644259180919CC07520814434908051CABE62F48A3
S284006600854200D0E6E6A6E62B1C1F3B3A1CDA40131C20296CD03F22551BAF403C43601E84411C430021002595E6381C20381A1CC240101C202F5DD04022D71BBB405A461A43531E9A4102430027DBE6002D3BD01A4DAA4500D193E080252D047F422943382F00DDACE01F2F00DD29E12025ED1B081C261CA840FE40AC400643651EAC4116
S2840066803443F9405D462C1BA34592415B1A5242991A55466646BCE6131C3B43141C002B00D0BAE60027002100250024E5E65A461A43531E9A41D2B2002314E7FF070000FFFF7FFFFFFF0F800D1C254358D0FF43002F51D1041BA3459241591A5242891A5546664695E69648854200D0DEE632E6002793E70023A2E7081C2043002D00D019
S284006700C4E0002800D1F7E05846184300D122E658460219A242A441644259180919141C0A0200D417E6874B0125194013E6081C2043002D39D1002871D15946194303D0191C5C46664606E600270021002494E6604620381A1CC24060469146202800D1ACE04022121A93405A461A43531E9A414B461A430023B6E6714DAA4500D06FE7EF
S284006780191C5C4655466646E5E5002D22D10D1C254377D0D543002D71D15C445C4592415918524289185546A4E600284DD15946194300D194E0191C5C466646604DCAE50C43611E8C41E4B200215BE7051C0021002452E65A4DAA4554D05542802210040143382D00DD81E01F2D00DD92E02022501B0A1C84468240201CE8400243904650
S28400680062469440601E844142461443E9405C445C459241CB185242991855466AE65846184300D197E55846271ABC429241C81A5242801A020266D55846041BA3459241591A5242891A664685E55846184333D04807E40804438020C9080003014208D0DD08054205D15946CA085C071443291C6646630FC9001943E400314D6BE5304ABA
S2840068809245AED1191C5C46554664E5002836D05846184310D080254807E408C9082D0304432942E5D0D8082842E2D15D46EA085C071443011CDCE7214D4CE5002353E73D1C203D0A1CEA40151C202F34D04026F71BB9400C43611E8C412C430021D1E680210027C903164D0024C6E50C43611E8C41E4B200218AE7191C5C462BE5191C89
S2840069005C460F4D27E5031C3B4300D11CE7011C3C1C20E52020404240190A1CC2409046202D0BD04020451BA9400C43611E8C4145462C4300216AE70021CBE70021F4E7FF070000FFFF7FFFF0B5564644465F464D46F0B41F1C0B031B0B98464B0087B0041C81465B0DC80F161C9A460090002B51D06A4B9A4531D08022414652030A43F1
S284006980630FD2001A43664B90460025E20091469A44002402953B031B0B9B46FD0F7B00311C5B0D019560D05C4A934254D08021584649030143720FC9001143584A8B469B18F1000020009A04436A4003920F2C00D9ADE0534EA4003459A746404604436ED1002102250824884689460295D2E7009C0298C34649460194022864D0032890
S284006A0000D1ABE2012800D038E2019A002402400025A14660E0434623434AD04046002800D1C0E101F078F8031E272B00DDB3E128210D1A211C083B4246E9409A400D1C1543221C9A40A8469146374B00251B1A9A46002402959EE75A4616430320002EB1D1B34600210220ADE75A4632431BD05B46002B00D18AE1584601F04DF8272849
S284006A8000DD7DE12822171A011C321C08395B46FA408B40171C1F43331C8B40BB46191C214B1B1A00208EE70027BB460021012089E70020012504248046814602956AE703250C24029566E7019C0394039D01222A400024114DA146002000212403260B0C0D2405114B34432D0523402B435B005B08D207191C4846114307B03CBC9046C7
S284006B009946A246AB46F0BD0022802424039146024DE1E700240025A146DDE7FF07000001FCFFFF205A03000DFCFFFFFFFF0F805546ED1A0495D84500D953E100D14EE1049C0025013C4E4604944746A946584603020C0E1C430902250C23041B0C0091381C291C0193FFF71DFB019983464143381C8A46291CFFF759FB330C0904194307
S284006B808A450CD95B460919013B8C4200D947E18A4500D844E102225242934409195346CB1A181C291C9846FFF7FCFA071C0198291C784382464046FFF738FB36040B04360C33439A4509D91B197A1E9C4200D924E19A4500D821E1023F1B195E4632041743380CBB46009E009F51463F0C32045B1A5946BA46120C0F043F0C904651465A
S284006C007A434F434146414356467043CF19160CBE19B14202D980277F02C019310C12043604120C4018B618834200D2C4E000D1BEE0191A4846861BB145BF417F42CF1BA74200D113E1291C381CFFF7ABFA019902904143381C8946291CFFF7E7FA330C0904194389450CD9029B0919013B8C4200D9FFE0894500D8FCE0029F0919023F05
S284006C8002974F46CF1B381C291C0597FFF78AFA071C0198291C784381460598FFF7C6FA36040904360C0E43B14509D936197B1EB44200D9E0E0B14500D8DDE0023F3619029D4946761A290439430B0457460A0C1B0C40464546584355437B437A43EB18070CDB199D4202D980256D0252191D0C00041B04000C52191B18964235D300D1B5
S284006D00FCE001231943049E994FF519002D00DCA1E0480709D00F230B40042B05D00B1D8B42894149428B44191C5A46D20107D5904B5C46049E80271C40FF00A346F5198D4B9D427ADD039C0122224000248B4DA146C1E680242403474627424CD13C432403240B009A854DB6E63619481EB4425ED9011C9642C4D1009E9E42C1D1C2E796
S284006D80031C283B311C99408B46002188E6301C00F0C2FE203072E6283B211C994000228846914651E6201C00F0B6FE20303BE60021B14500D33DE7009F5A46B944B945BF417F423F19FB18013A9C421ED2984200D97EE000D1B5E0191A93462AE7894500D8ADE64846464642467708D3074608C0071E438146AAE65846204212D10443DE
S284006E0024032A1C240B89465C4D65E6A342E3D1009F4F45DBD9211A93460BE7171CDDE69B46BCE63C432403240B009A534D53E6B24259D800D18AE0011C62E75F46C9087B07039E0B437C026D0501229946240B6D0D324040E64A4B049FDB1B382B10DD039C0122224000240025A14634E60121494248E7029304E71F1C21E7019C0394C8
S284006E8041E71F2B40DC3F48049F0C1C3A1858469140DC40904020430A1C511E8A41011C11435A46DA40131C480709D00F220A40042A05D00A1D8A42894149425B18111C1A0234D5039C0122224000240125A14602E6009F02214942B9448B44B945894149420919CB18A4E6009D881E6900A942AD416D422C19361900913AE7002B00D083
S284006F0033E70024009437E71F4A049C5D46121BD5402A1C202B1FD01C4E5F46A3199F403B1C19434B1E994111430023BCE75A07C9080A43039F91465B0201221C0B3A400025C9E54E45C4D89346002172E6009F9F42C9D3011C0FE70023E2E7802424035F463C432403240B019A8946034DB3E5FF030000FFFFFFFEFE070000FF070000CD
S284006F8002FCFFFF1E040000E2FBFFFF3E040000F0B5564644465F464D46F0B41F1C0B031B0B9A464B0087B0041C80465B0DC80F161C02938146002B68D0694B0299994232D08022534652031A43D200630F1A439246644AE000891880460291002400253B031B0B9B467800FB0F321C400D039300D175E05A4B984269D0802259465203F4
S2840070000A43730FD2001A43564B9346C018F200002303994E4671401C430F2C00D9A9E0514EA4003459A74653461C4300D087E00025AA46A84608240225D1E74946022D6CD0032D00D117E2012D00D058E10D40EDB20024A9460023A0460020002125030A0D1C052D0B1205404B2A43134023435B004C465B08E207191C4046114307B0FC
S2840070803CBC90469946A246AB46F0BD5346234350D05346002B00D184E1504600F03CFD031E272B00DD76E128210D1A211C083B5246E9409A400D1C1543221C9A40AA4690462B4B00241B1A0293002588E75B461E430323002E9CD1B3460022022398E75B46334321D05846002800D14EE100F013FD272800DD42E128210F1A021C311C7B
S284007100083A5B46F94093400F1C1F43331C9340BB461A1C164B181A00237AE701230B4000249946A0460E4B97E70027BB46002201236EE7002104248A46884601254FE70C2403254CE700258024A9462403A846034B82E7DA46904603991D1C6FE7C046FF07000001FCFFFF605A0300FFFF0F800DFCFFFF029F160C381804904046070C21
S2840071800004000C1204120C031C5343041C3D1C7443554398463B1C73436419A44644460293230C63449D4204D9029D802464022D1902951D0C039545462C041B04240C1C1905945C46230C051C58432404240C8446381C604365435F438146CC44280C6044BB46814502D980277F02BB442D04070C2D0C000440195546BC462F04E3446E
S2840072008446280C3D0C2F1C5743B8462F1C77434243B94647463F0C9144BA46D14446434A4502D980225202B6184F463A0CB6183A0447463F043F0CB8462F1C67435D434443584365190190380C2D184244B846AC4204D9019880235B02C0180190039C029F201C6044C0196045A44147466442A4462B043C049946240C4C44A046D8448D
S2840072808018C246E24490429241574652429146F219E245BF417F424B46BC46D845BF41D4187F4263461F432D0C7F19B24292414C45AD4152426D421543019E7D19AB19E20D5B02059F134342023A439A46531E9A41C30D101C18436402204380465046C0010DD5454601225646049C6B082A401A43F30701341A43760804949046B2462A
S284007300049E634FF319002B61DD404640070BD00F2244462240042A06D042460432424580414042824490465546ED0107D5594B5646049F80201E40C000B2463B18564A934200DDEAE644465546E2086807104301226C025B050A408046240B5B0D91467BE6DA4690461D1C69E680242403574627421CD13C432403240B484B6DE6031C28
S284007380283B311C99408B460022C3E6301C00F0C3FB2030ADE6283B211C994000228A4690468EE6201C00F0B7FB203078E65846204207D1044303992403240B89469046364B4AE63C432403240B344B45E6344B049E9B1B382B06DD01230B4000249946A046002339E61F2B25DC049C2D4D46466019524644468640DC4082405746301C8F
S2840074002243DF40441EA04102433B1C540709D00F201040042805D0101D9042924152429B18021C1D021AD501230B4000249946A046012311E61C48049C5546001BC540281C202B16D0194E5746A21997403A1C43461A43531E9A4102430023D6E758075B02D2081C0B01230B401043994680460023F2E50022EBE780242403504601232A
S284007480044319402403240B8946044BE5E5C046FF030000FFFFFFFEFE070000FF07000002FCFFFF1E040000E2FBFFFF3E040000F8B55F46564644464D46F0B40C034D00CF0F610A440F2143C4001803DE0F8046B44646465800760A530F3343D600D14A6D0DBA46400DB346904200D1F5E06246012672409446674500D1ABE02F1A002F89
S28400750000DC11E100283ED15846184300D0F1E0600700D197E00F232340042B00D122E1221DA242A4416442802309191B04012750460B400740141C002B00D179E0B94B01359D4200D10BE1B74BE40819404807490204430B0B002000211B031A0B0B0D6D051B0513436A08B04DFF071D4015436D006D08291C3943201C3CBC904699466B
S284007580A246AB46F8BDA7488542C1D0802000040343382F00DDFDE01F2F00DD31E12020C01B1A1C5E468240FE40324394465A468240101C421E9041FB40624602431F1CA21A9442A4416442C91B091B141C0A029ED549024F0A002F00D1D6E0381C00F09BFA021C083A1F2A00DDC3E02821231C091A9740CB401F439440954200DDC0E0BC
S284007600551B691C1F2900DDEAE01F22551B3B1C221CAB40CA40AC40651EAC411343CF401C43391C002573E780217E4D0027C90300247C4B4807E4080443C9089D4250D009030B0B87E780231B04012752460B40174071E72A1A9446002A00DCA1E0002854D07048854200D152E78020000403436046382800DD0EE11F2800DD57E1624610
S2840076802020801A1E1C8640B1465E46D6404A4632435E4686409046301C421E9041424602436046C3401219A242A441644259180919141C080200D42AE75A4B01359D4200D131E1584B60081940012323401C1C0443CB071C4349081AE71E4300D00AE705E7231C0B433BD080231B030B431B031B0B30E7013F002F6DD15E46A21B9442F8
S284007700A4416442C91A091B141C60E75846184300D1FDE601267642B4446046002800D0D0E05E463219BFE7002F00D080E0681C4005400D012800DCE8E05A46A21A9442BF41C81A7F42C71B3E0200D498E05846041BA3459241591A52428F1AE2463AE700230024F7E680231B04012756460B403740E1E6271C283887400024954200DC2A
S2840077803EE72949AD1A3940C2E6201C00F0C4F9203026E75A461A43531E9A41D2B200270EE7002A00D0DEE0681C4605760D012E00DC90E01B4DA84200D1F5E05E463219A242A441644259180919CC07520814434908051C9CE61348854200D0D9E697E62B1C1F3B3E1CDE40331C20296FD03F22551BAF403C43601E84411C4300210025AB
S28400780086E6381C20381E1CC640301C202F60D04022D71BBB405A461A43531E9A4102430027CDE6FF070000FFFF7FFFFFFF0F80002D37D0B64DA84200D18FE080252D047F422943382F00DDA8E01F2F00DD24E12025ED1B0E1CAE40B046261CFE404246AC401643651EAC413443F9405A46141BA34592415B1A5242991A051CE246A6E6D7
S284007880131C3B43141C002B00D0A4E60027002100250024CDE65A461A43531E9A41D2B2002300E70D1C254358D0FF43002F51D15A46141BA3459241591A5242891A051CE24684E69248854200D0D1E620E6002790E700239FE7081C2043002D00D0C2E0002800D1EFE05846184300D110E658460219A242A441644259180919141C0A02B9
S28400790000D405E6834B0125194001E6081C2043002D38D100286FD15946194303D0191C5C46E246F4E500270021002481E6604620381A1CC2406646101C202E00D1AAE04022921B93405A461A43531E9A4102430023A8E66E4DA84200D073E7191C5C46051CE246D4E5002D22D10D1C254376D0D543002D70D15C445C459241591852425B
S2840079808918051C96E600284CD15946194300D14AE6191C5C46E2465D4DB9E50C43611E8C41E4B2002161E7051C0021002440E6574DA84253D05542802216043143382D7BDC1F2D00DD8CE02022561B0A1CB446B240261CEE403243904662469440661EB44142461443E9405C445C459241CB1852429918051C5DE65846184300D187E57A
S284007A005E46A71BBC429241C81A5242801A060260D55846041BA3459241591A5242891AE24675E55846184333D04807E40804438020C9080003014208D0DD08054205D15946CA085C071443291CE246630FC9001943E4002E4D5BE52D4A9042AFD1191C5C46051C54E5002830D05846184310D080254807E408C9082D0304432942E5D0B9
S284007A80D8082842E2D15D46EA085C071443011CDCE71F4D3CE5002355E73D1C203D0E1CEE40351C202F2ED04026F71BB9400C43611E8C412C430021D8E60C43611E8C41E4B2002190E7191C5C4621E5191C5C460F4D1DE5031C3B4300D124E7011C3C1C16E52026764276190A1CF2409046202D0BD04026751BA9400C43611E8C414546B7
S284007B002C43002170E70021D1E70021F4E7C046FF070000FFFF7FFF1C2101231B04984201D3000C10391B0A984201D3000A08391B09984201D30009043902A2105C40187047C0460403020201010101000000000000000002780B7801300131002A01D09A42F7D0D01A70478446101C62468C46191C634600E0C0461FB500F073F90028A4
S284007B8001D40021C8421FBD10B500F0A3F84042013010BD10B500F065F9002801DB002010BD012010BDC04610B500F05BF9002801DD002010BD012010BDC04610B500F0D3F8002801DC002010BD012010BDC04610B500F0C9F8002801DA002010BD012010BDC046002B11D1002A0FD1002900D1002802D00021C943081C07B4024802A128
S284007C004018029003BDC046F9E6FFFF03B4684601B5029800F044F8019B9E4602B00CBC7047C0469C460304F0B51B0C17043F0C150C1E1C041C000C7E436B4347434543FB18300C1818874202D980235B02ED18030CED1863465C434A433604360CA118000480194919F0BDF0B583B0161C1F1C0090019100F01AFA041C0D1C221C2B1C8C
S284007C80301C391CFFF7CEFF009A019B121A8B410899201C0A604B60291C03B0F0BDC046F0B583B0141C1D1C0090019100F0DAFB221C2B1C061C0F1CFFF7B4FF009A019B121A8B410899301C0A604B60391C03B0F0BDC046F0B55F4656464D464446F0B40D1C041C8046E80F814618030F03000B3F0B83B084461B48009749005E00DF0F40
S284007D00490D9246760DBB4681420CD01548864210D00120B14215D003B03CBC90469946A246AB46F0BD009F01202743F4D10D488642EED1604602430120002AECD10120B142E9D1009B6345E6D1D045E4D1D94506D00029E0D11C43201C441EA041DBE70020D9E7FF070000F0B55F4656464D464446F0B4CD0FDE0FAC461D032D0BB14674
S284007D80374E0F034C00AB465D0080463F0B640D92466D0DB44232D0314EB54235D0002C0ED1384341424141081C002D0BD0002919D1CC452DD0654668420123184318E0002DF6D1281C59460A4353425341002806D1002BEDD0634658420123184308E00020002B05D14A46504250414042012318433CBC90469946A246AB46F0BD3E1C23
S284007E000643C9D002204042F3E75E461643C6D0F8E7AC4207DC0BDA614648424841404201231843E5E76646704201231843E0E75F450AD80ED000205F45DAD2654668426841404201231843D3E76246504201231843CEE7D045F8D80020D045EED3C8E7FF070000F0B556464D4644465F46F0B40D1C83B0041C0190E80F814618030F0320
S284007E80000B3F0B84463548009749005E00DF0F490D9246760DB846814234D02F48864236D0002918D0002E1FD1341C67463A4353425341002C1FD00020002B05D142465042504140420123184303B03CBC90469946A246AB46F0BD0098044360426041041C002EE2D00028E9D1C14515D04F46784201231843E8E7002BF6D04B465842B2
S284007F0001231843E1E7009F02202743DDD1C5E7674602201743D8D1C3E7B14204DD4A46504201231843D0E7B14207DB00986045E4D80AD0009F00206745C6D24F4678427841404201231843BFE7019A5245D5D8019A00205245F1D3B7E7C046FF07000070B50B1C124C09030E0B5900021C490DDD0F0020A14211DD0E4881420FDC802072
S284007F80400306430C48401A1F280BDD0B4A521AD640321C5042002D00D1101C70BD084BE818FBE7074BC240C9188E403243F1E7FE0300001D0400003304000013040000FFFFFF7FEDFBFFFFF8B5041E31D0C70F00D04442201CFFF79FFD184D2D1A0A2819DD0B38844024036D05240B6D0D3A1C0026002000210B0D2403240B1B05234316
S2840080000F4C2D051C402C4364006408D307211C301C1943F8BD061C1536231CB3401E1C0B23181AC44024036D05240B6D0D3A1CDFE70022002500240026DAE71E040000FFFF0F8010B5041E28D0FFF765FD154A121A0A2815DD0B38844024035205240B520D0023002000212403181C0B0D240B1B0523430C4C12051C401443640061084F
S28400808010BD031C1533211C99400B1C0B21081AC44024035205240B520DE3E7002200240023DFE71E040000FFFF0F80F0B544465F4656464D46F0B41C1C85B0002900DADBE00F1C0021061C8A46101C191C002C00DAC9E00196009089468046002951D1B84200D871E0FFF717FD002809D020234546311C1B1A85408740D940A8460F437A
S28400810086404246150C13041B0C291C381C9B46FEF748F85B464343041C291C381C9946FEF784F8330C08041843814509D94044631E804500D978E1814500D875E1023C40444946411A8946081C291CFEF72AF85A464243071C291C48469346FEF766F836040904360C0E43B34507D946447B1EB04502D8023FB34500D81F1C240427436C
S284008180002403E0B94211D9002400275246381C211C002A03D03B1C00215842A14105B03CBC90469946A246AB46F0BD081CFFF7B3FC041E00D0BFE0B94500D242E1019D0099071C8D424741E0E7002804D101200021FDF7E7FF80464046FFF79DFC002852D1414644460B043C1B1B0CA3460D0C00930124291C5846FDF7D4FF009F8146D5
S2840082004743291C5846FEF711F8330C090419438F4208D94B464144013B884502D88F4200D91AE19946C91B8B46081C291CFDF7B9FF009B291C4343071C58460093FDF7F5FF3604009D0904360C0E43B54207D946447B1EB04502D8023FB54200D81F1C49460E04374391E75246D243031C0C1C924600215842A1412CE7002746428F4132
S284008280012149428A4620E720231B1A4246351C82403C1CDD40DC4087402B1C150C3B43291C8640201C009317049046FDF77AFF3F0C011C794381468B46201C291CFDF7B5FF009C0904230C19438B450CD94B464144013B884500D9BDE08B4500D8BAE002225242914441445C460C1B201C291C0194FDF757FF391C4143041C8B46019829
S284008300291CFDF793FF009A090413041B0C19438B4509D94144631E884500D997E08B4500D894E0023C41445B46CB1A49469B460B041C4300975DE7009D20231B1A4A468240DD401543391C009AD94082408846311C0092D9403A1C82400B1C134301932F0C2B041B0C391C40460293FDF71AFF029A81464243391C40469346FDF756FF71
S284008380019A0904130C19438B450AD94B464919013B8D425DD88B455BD902235B42994449195A468A1A101C391C0392FDF7FAFE029B80464343391C03989B46FDF736FF019A090413041B0C19438B450AD943464919013B8D4238D88B4536D902235B42984449195D464D1BAB464946009D0F04424617432A04120C3B042D0C1B0C380C1B
S284008400111C594342436B436843D3180D0C5B198C469A4202D98022520280181D0C401983450CD303D00024B0E61C1C89E665462A041B04120C9B18A6409E42F3D2013F0024A3E600240127A0E69846CAE71C1C6AE79946A5E7994646E70222524291444144E0E6F0B55F4656464D464446F0B40D1C85B0061C9246984602900191039254
S2840084801F1C141C8346A946002B59D1AA4269D9101CFFF741FB00280AD020231B1A311CD94085400B1C2B43864084409946B346250C23041B0C291C48469846FDF772FE4646071C4643291C4846FDF7AFFE5A460904130C19438E4209D909197B1E8C4200D957E18E4200D854E1023F0919891B8946081C291CFDF755FE43464343061C8F
S284008500291C48469846FDF791FE5A46130409041B0C1943884508D90919731E8C4200D936E1023E884500D832E1380430430027391C05B03CBC90469946A246AB46F0BD019A934262D8181CFFF7E6FA041E60D1019B9F4200D22CE1029F03998F4260410027E5E7002A04D101200021FDF71AFE041C201CFFF7D0FA002800D0B9E023042B
S2840085802D1B1B0CA946260C98460127311C4846FDF708FE41464143051C8A464846311CFDF744FE5A460804130C1843824507D900196B1E844202D8824500D910E11D1C5346C31A181C311C9A46FDF7EBFD41464143814688465046311CFDF727FE5A46130409041B0C194388450BD94B460919013B8C4200D9CFE0884500D8CCE0022323
S2840086005B42994428044946084391E7002700208EE720231B1A424657468240DF401743524682400192321CDA40291CD9408540131C2B4302933D0C3B041B0C8846081C291C9A46FDF7AEFD534643438146291C40469B46FDF7EAFD029A0904130C19438B4506D94B46C919013B8F4200D8ABE099465A468A1A101C291C9346FDF792FD47
S28400868053464343291C804658469A46FDF7CEFD029A090415042D0C29438A4506D94346C919013B8F4200D886E098465746CF1BBA464946019F0804424610433D042D0C03043F0C1B0C020C291C594355437B437A43EB180F0CDB198C469D4202D980277F02D2191D0C521992455FD356D000271EE720231B1A311C2F1CD940DF40854026
S2840087000B1C84402B4386400193B3462304260C1B0C381C311C9846FDF744FD42464243051C311C381C9146FDF780FD019F09043B0C1943894507D909196B1E8C424DD889454BD9023D09194A468A1A101C311C9246FDF727FD43464343071C311C50469946FDF763FD019A090413041B0C1943894507D909197B1E8C422DD889452BD9D9
S284008780023F09194B46CB1A2D0499462F43FDE61E1CCAE61F1CAAE6994633E761460A041B04120C9B18A6409E42A0D201380027BEE600270120BBE68A4500D875E702235B429844C91971E78B4500D850E702235B429944C9194CE71F1CD3E71D1CB3E7023D0019ECE6C0467047C046F0B589B001A8064C031CE0CCE0C3E0CCE0C3246879
S2840088001C6005F049FB09B0F0BDC046A05A030010B504788EB0002C0ED10C4B1B68002B00D0984768460A49322227F0CBFC684605F032FB0EB010BD68460649352227F0C1FC6846211C05F027FBF3E768110020BC5A0300F05A0300F0B5474680B4141C637812781B0298B0134305D0112B25D018B004BC9046F0BD08ADE11C281C022225
S28400888027F0A0FC0EAC344A231C43CA43C383CA83C3C1CAC1C312781A7000216D5E6421281CFDF7CDFC642106B2281CFDF71EFD201C0AB2311C05F0EFFAD9E70EA8274A031CE0CAE0C362CA62C3A2CAA2C312786D4606351A7005F0DFFA211D281C022227F070FC02AE1E4A331C83CA83C381CA81C31188198092789A7000216F5E6421AB
S284008900381CFDF79DFC642103B2381C9846FDF7EDFC301C0AB2414605F0BEFA08AE114A331C83CA83C383CA83C3211C02220A31281C27F047FC0023EC5E6421201CFDF77FFC642105B2201CFDF7D0FC301C0AB2291C05F0A1FA8BE7285B0300505B0300785B0300905B030070B5057894B0002D29D101AC01232370037AC0686370029035
S284008980201C039508F0EEFD144BA4685B68261D002B01D0301C98476D460235311C0222281C27F00FFC0E493F2204A827F00AFC617823780902194304A80023EA5E05F06BFA14B070BD04A80649352227F0FAFB04A8291C05F060FAF3E7C04668110020A85B0300E85B030008B514200549012208F0F0FE002803D0034B4361034BC3619A
S284008A0008BDC0460102000059880000ED870000F0B5454657464E46E0B486B08246894690461D1C05F006FF041E21D0134B0E9A02AE5A603580C36C03AD0027281C04936F702F70059608F067FD6A78201C002105F0B6FE0A4B201C20300093514643464A4605F0B9FE074B201CA36105F058F806B01CBC90469946A246F0BD6811002075
S284008A800102000069890000F0B55F464E464546E0B484B09B460CAB1D780FAB81468846171C1E7805F0C6FE041E24D0154B0D9A03A91A60C06C5B4603220B808D7027F081FBE06C321C0E990330033627F07AFBF2B2201C022105F073FE0B4B201C2030009349463B1C424605F076FE074B201CA36105F015F804B01CBC90469946A34651
S284008B00F0BDC046681100200102000011880000F0B55F4656464D464446F0B489B01D1C12AB1B7880469B4613AB1B880F1C9A4614AB1B88161C994605F07CFE041E28D002AB5D702D0A9D70002205AD1A7059466A70C26CD97051469980069249460622281CD98007932A7008F0D6FC6A78201C062105F025FE0A4B201C20300093414692
S284008B80331C3A1C05F028FE064B201CA36104F0C7FF09B03CBC90469946A246AB46F0BD01020000E9870000F0B557464E464546E0B482B00AAC247880460F1C161C9A4605F038FE64B2A146041E14D00021022205F0F6FDE56C53462B704B466B70094B201C2030009341463A1C331C05F0F4FD201C04F08BFF02B01CBC90469946A246D8
S284008C00F0BDC046010200007047C04670B58CB06C460634D11C201C022227F0D3FA02A8074A031C62CA62C362CA62C362CA62C312781A70218805F02FF90CB070BDC046205C030010B5047892B0002C0ED10C4B1B68002B00D0984701A80A493F2227F0B1FA01A805F018F912B010BD01A80649422227F0A7FA01A8211C05F00DF9F3E73B
S284008C8070110020485C0300885C030070B5057898B0002D28D101AC01232370037AC06863700290201C039508F05CFC134BA4685B68261D002B01D0301C98476D460235311C0222281C27F07DFA0D494F2204A827F078FA61782378090219432A8804A805F0DAF818B070BD04A80649422227F069FA04A8291C05F0CFF8F3E770110020E8
S284008D00CC5C03001C5D0300802108B51420C900012208F05FFD002801D0014B436108BD0D8C0000F0B5454657464E46E0B486B08246894690461D1C05F07CFD041E22D0144B0E9A02AE5A603580C36C03AD0027281C04936F702F70059608F0DDFB6A78201C002105F02CFD8023DB00201C20300093514643464A4605F02EFD064B201C94
S284008D80A36104F0CDFE06B01CBC90469946A246F0BDC046701100208D8C0000F0B55F464E464546E0B484B09B460CAB1D780FAB81468846171C1E7805F03CFD041E25D0154B0D9A03A91A60C06C5B4603220B808D7027F0F7F9E06C321C0E990330033627F0F0F9F2B2201C022105F0E9FC8023DB00201C2030009349463B1C424605F020
S284008E00EBFC064B201CA36104F08AFE04B01CBC90469946A346F0BD70110020458C0000F0B55F4656464D464446F0B489B01D1C12AB1B7880469B4613AB1B880F1C9A4614AB1B88161C994605F0F4FC041E29D002AB5D702D0A9D70002205AD1A7059466A70C26CD97051469980069249460622281CD98007932A7008F04EFB6A78201C86
S284008E80062105F09DFC8023DB00201C203000934146331C3A1C05F09FFC064B201CA36104F03EFE09B03CBC90469946A246AB46F0BDC046098C000030B589B001A8074A031C32CA32C332CA32C31188198092789A7004F0E1FF002009B030BD605D0300F0B593B00AA8151C1D4A031C52CA52C3844683CA83C314681C6091880024998031
S284008F0092799A71174B6A46C1CBC1C2196805AE11609B889380144B321C83CB83C21F6860461760998891809B79937104F0B4FF6978684604F0B0FF6B78002B0DD06300EB18D9789A7809021143301C04F0A4FF01346B78E4B2A342F1D8002013B0F0BD7C5D03009C5D0300B05D0300F0B591B006A81249031C151C54C954C394C994C3E2
S284008F80C4C9C4C30A8801AC1A808A789A700C4B221CC2CBC2C21E681660998891809B799371297804F078FFA9786B780902201C194304F071FF002011B0F0BDC45D0300B05D030030B5064A87B06B4632CA32C3684632CA32C304F05FFF002007B030BDEC5D03007047C046F0B54F464646C0B483B081468846171C1E1C05F01BFC041E45
S28400900015D00021032205F0DBFBE56C00232E70AB70360A0423201C6E7020300093494642463B1C05F0D8FB201C04F06FFD03B00CBC90469946F0BDF0B54F464646C0B483B081468846171C1D1C05F0F3FB041E13D00121022205F0B3FBE66C04233570201C2D0A757020300093494642463B1C05F0B2FB201C04F049FD03B00CBC904646
S2840090809946F0BDF0B55F4656464D464446F0B483B083468A4691461F1C05F0CBFB8046002814D0C16C01220F70002F16D14046022105F085FB0423404620300093594652464B4605F088FB404604F01FFD03B03CBC90469946A246AB46F0BD0C9D00242B8866008E19737001341B0AB370E3B202359F42F4D87A000132D2B2D7E7C04623
S284009100F0B54F464646C0B483B081468846171C1D1C05F08FFB041E13D00321022205F04FFBE66C04233570201C2D0A757020300093494642463B1C05F04EFB201C04F0E5FC03B00CBC90469946F0BDF0B583B0071C0E1C151C05F06DFB041E0FD00421002205F02DFB0423201C20300093391C321C2B1C05F030FB201C04F0C7FC03B070
S284009180F0BDC046F0B54F464646C0B483B081468846171C1E1C05F04DFB041E15D00521032205F00DFBE56C00232E70AB70360A0423201C6E7020300093494642463B1C05F00AFB201C04F0A1FC03B00CBC90469946F0BD38B5064C251C10352368002B00D098470434AC42F8D1002038BDC046F403002070B501788CB0002915D1124B88
S2840092001B68002B00D09847104A6B4632CA32C352CA52C362CA62C330CA30C3127868461A7004F039FE0CB070BD094A6B4670CA70C370CA70C370CA70C3684670CA70C304F02AFEEFE7C04678110020045E0300345E030070B5017894B0002926D101AC01232370037AC06863700290201C039108F078F91D4BA4685B68002B01D0201D31
S2840092809847637822781B021343043B04A8012B1FD917493E2226F095FF6178237809021943227904A804F0F7FD10E004A8114A031C70CA70C370CA70C370CA70C330CA30C314881C8092789A7004F0E5FD14B070BD09493E2226F075FF6178237809021943221D04A804F0D7FDF0E778110020645E0300A45E0300D45E030010B50D4C5B
S2840093000123237160220423A35400216522A15402226272201C0322A273074908221830E37426F04FFF201C044913223C3026F049FF10BD04010020145F0300205F0300F0B5454657464E46E0B486B08246894690461D1C05F06EFA041E20D0134B0E9A02AF5A603D80C36C03AD0026281C04936E702E70059708F0CFF86A78201C002132
S28400938005F01EFA201C20304346009651464A4605F022FA064B201CA36104F0C1FB06B01CBC90469946A246F0BDC0467811002055920000F0B583B0071C0E1C151C05F039FA041E0FD00021002205F0F9F90023201C20300093391C321C2B1C05F0FCF9201C04F093FB03B0F0BDC046F0B55F464E464546E0B484B09B460CAB1D780FABCE
S28400940081468846171C1E7805F014FA041E24D0154B0D9A03A91A60C06C5B4603220B808D7026F0CFFEE06C321C0E990330033626F0C8FEF2B2201C022105F0C1F90023201C2030009349463B1C424605F0C4F9064B201CA36104F063FB04B01CBC90469946A346F0BDC04678110020F59100007047C04670B58CB001A80849031C70C9EA
S28400948070C370C970C370C970C30C681C6009791971D17804F000FD0CB070BD345F030010B5047890B0002C0ED10C4B1B68002B00D0984701A80A49392226F083FE01A804F0EAFC10B010BD01A806493C2226F079FE01A8211C04F0DFFCF3E780110020605F03009C5F030030B5057897B0002D20D101AC01232370037AC0686370029051
S284009500201C039508F02EF80F4BA4685B68002B01D0201D98470D49462204A826F052FE6178237809021943227904A804F0B4FC17B030BD04A806493C2226F043FE04A8291C04F0A9FCF3E780110020D85F03002060030008B514200449012208F03AF9002801D0024B436108BDC0460604000075940000F0B5454657464E46E0B486B068
S2840095808246894690461D1C05F054F9041E21D0134B0E9A02AE5A603580C36C03AD0027281C04936F702F70059607F0B5FF6A78201C002105F004F90A4B201C20300093514643464A4605F007F9074B201CA36104F0A6FA06B01CBC90469946A246F0BD8011002006040000E9940000F0B55F464E464546E0B484B09B460CAB1D780FAB09
S28400960081468846171C1E7805F014F9041E24D0154B0D9A03A91A60C06C5B4603220B808D7026F0CFFDE06C321C0E990330033626F0C8FDF2B2201C022105F0C1F80B4B201C2030009349463B1C424605F0C4F8074B201CA36104F063FA04B01CBC90469946A346F0BDC0468011002006040000A1940000F0B55F4656464D464446F0B4C2
S28400968089B01D1C12AB1B7880469B4613AB1B880F1C9A4614AB1B88161C994605F0CAF8041E28D002AB5D702D0A9D70002205AD1A7059466A70C26CD97051469980069249460622281CD98007932A7007F024FF6A78201C062105F073F80A4B201C203000934146331C3A1C05F076F8064B201CA36104F015FA09B03CBC90469946A246CC
S284009700AB46F0BD0604000071940000F0B5151C89B0264A6B4692CA92C392CA92C31168061C1960928868469A8004F0B5FB2B78012B11D0022B24D01D4B1C68002C08D06369002B02D0301C291C98472468002CF6D1002009B0F0BD164A6978907A0124014321409843084390726878C007C00F0143907A19409843014391722B78022BC0
S284009780DAD10C4B6A78987AD207C107D20FC90F914301229043084398726878C007C00F8143987A904301439972C5E75C600300881100207401002070B590B0151C061C0E49392201A826F0FDFC6A782B7812021A43318901A804F05FFB094B1C68002C08D0E368002B02D0301C291C98472468002CF6D1002010B070BDC0467C60030000
S2840098008811002030B504788FB0002C13D10F4B5B68002B00D0984701A80D4A031C32CA32C332CA32C332CA32C332CA32C304F033FB0FB030BD01A80649332226F0C2FC01A8211C04F028FBF3E7C04688110020B8600300E8600300F0B587B0154B061C01A8151C021C92CB92C219681160998891809B79937104F00FFB2B78DA070FD40D
S2840098800D4B1C68002C08D02369002B02D0301C291C98472468002CF6D1002007B0F0BD002005F017FB2B78DC07E9D5012004F073FFF2E71C61030088110020F0B587B01E4B051C01A8161C021C92CB92C219681160998891809B79937104F0DDFA184CA388002B0FD1174B1C68002C08D0A368002B02D0281C311C98472468002CF6D1F1
S284009900002007B0F0BD04F095FF061C8920002EF7D0301C0021022204F052FFF36C2279301C1A70627920305A70291C012204F09DFF301C04F0EAF80020E2E730610300740100208811002008B5064A9388013B9BB29380002B03D10348083024F0E2FE08BDC0467401002088110020F0B5184B85B0151C6A4692CB92C21B78061C13703C
S284009980684604F089FA6A78124C2B781202271C1A430837104B381C9A8024F0C3FE6B782A781B0213430ED12468002C08D06368002BF9D0301C291C98472468002CF6D1002005B0F0BD381C24F084FEECE7C04644610300881100207401002010B5012A00D010BD0029FCD1064C0834201C24F099FE054B9B88002BF3D0201C24F06AFE68
S284009A00EFE7C046881100207401002070B5057894B0002D29D101AC01232370037AC06863700290201C039507F09CFD144BA468DB69261D002B01D0301C98476D460235311C0222281C26F0BDFB0E493F2204A826F0B8FB617823780902194304A80023EA5E04F019FA14B070BD04A80649322226F0A8FB04A8291C04F00EFAF3E7C04666
S284009A8088110020546103009461030008B50A4B0022142003219A8007F09CFE002801D0064BC361064BFA2292001A6100221A75044A9A6108BDC04674010020DD990000881100204999000008B50248083024F029FE08BD8811002038B5064D041C211C281C06F055FB002803D1281C211C06F003FB38BD8811002010B5054C054B08348E
S284009B009880201C24F00EFE201C24F0E3FD10BD8811002074010020F0B54F464646C0B483B081468846171C1D1C04F083FE041E13D00021022204F043FEE66C03233570201C2D0A757020300093494642463B1C04F042FE201C03F0D9FF03B00CBC90469946F0BDF0B583B0071C0E1C151C04F061FE041E0FD00121002204F021FE0323BA
S284009B80201C20300093391C321C2B1C04F024FE201C03F0BBFF03B0F0BDC046F0B5474680B482B0071C0E1C151C984604F042FE041E12D00221012204F002FEE26C43461370201C032320300093391C321C2B1C04F002FE201C03F099FF02B004BC9046F0BDC046F0B557464E464546E0B482B00AAC247880460F1C161C9A4604F01AFEC5
S284009C00A146041E14D00321022204F0D9FDE56C53462B704B466B70201C03232030009341463A1C331C04F0D7FD201C03F06EFF02B01CBC90469946A246F0BD044B0122101C0840997A9143014399727047C04674010020F0B5454657464E46E0B486B08246894690461D1C04F0E4FD041E21D0134B0E9A02AEDA613580C36C03AD002773
S284009C80281C04936F702F70059607F045FC6A78201C002104F094FD0323201C20300093514643464A4604F097FD064B201CA36103F036FF06B01CBC90469946A246F0BD881100200D9A0000F0B55F464E464546E0B484B09B460CAB1D780FAB81468846171C1E7804F0A6FD041E24D0154B0D9A03A95A60C06C5B4603220B808D7026F0E1
S284009D0061FAE06C321C0E990330033626F05AFAF2B2201C022104F053FD0323201C2030009349463B1C424604F056FD064B201CA36103F0F5FE04B01CBC90469946A346F0BDC04688110020059800007047C04670B58EB06C460634D11C201C022226F031FA02A8074A031C62CA62C362CA62C362CA62C362CA62C30023E15E04F08CF8AF
S284009D800EB070BDC861030010B5047892B0002C0ED10C4B1B68002B00D0984701A80A493F2226F00FFA01A804F076F812B010BD01A80649422226F005FA01A8211C04F06BF8F3E7A8110020F86103003862030070B5057898B0002D29D101AC01232370037AC06863700290201C039507F0BAFB144BA4685B68261D002B01D0301C9847FE
S284009E006D460235311C0222281C26F0DBF90E494F2204A826F0D6F9617823780902194304A80023EA5E04F037F818B070BD04A80649422226F0C6F904A8291C04F02CF8F3E7C046A81100207C620300CC62030008B514200449012207F0BCFC002801D0024B436108BDC04602040000519D0000F0B5454657464E46E0B486B0824689466E
S284009E8090461D1C04F0D6FC041E21D0134B0E9A02AE5A603580C36C03AD0027281C04936F702F70059607F037FB6A78201C002104F086FC0A4B201C20300093514643464A4604F089FC074B201CA36103F028FE06B01CBC90469946A246F0BDA811002002040000D19D0000F0B55F464E464546E0B484B09B460CAB1D780FAB814688465E
S284009F00171C1E7804F096FC041E24D0154B0D9A03A91A60C06C5B4603220B808D7026F051F9E06C321C0E990330033626F04AF9F2B2201C022104F043FC0B4B201C2030009349463B1C424604F046FC074B201CA36103F0E5FD04B01CBC90469946A346F0BDC046A811002002040000899D0000F0B55F4656464D464446F0B489B01D1CB9
S284009F8012AB1B7880469B4613AB1B880F1C9A4614AB1B88161C994604F04CFC041E28D002AB5D702D0A9D70002205AD1A7059466A70C26CD97051469980069249460622281CD98007932A7007F0A6FA6A78201C062104F0F5FB0A4B201C203000934146331C3A1C04F0F8FB064B201CA36103F097FD09B03CBC90469946A246AB46F0BD09
S28400A000020400004D9D00007047C04670B508498AB06B4670C970C370C970C370C970C3098868461980D17803F036FF0AB070BD1063030008B514200821012207F0CAFB002801D0014B436108BDC0460DA00000F0B557464E464546E0B482B09A460AAB1E880BAB1C7881468846171C04F0E2FB631E9C41A500041E15D0291C032204F0DC
S28400A0809FFBE56C53462B706E700823360A201CAE7020300093494642463B1C04F09CFB201C03F033FD02B01CBC90469946A246F0BDC046F0B557464E464546E0B482B09A460AAB1B78804699460BAB1B780F1C161C0125002B00D0052504F0ABFB041E14D0291C022204F06BFBE56C53462B704B466B70201C08232030009341463A1C24
S28400A100331C04F069FB201C03F000FD02B01CBC90469946A246F0BDF0B55F4656464D464446F0B483B09B460CAB1B7881469A460DAB1E880EAB1B788846171C0225002B00D0062504F076FB041E17D0291C042204F036FBE56C5B462B7053466B70AE700823360A201CEE7020300093494642463B1C04F031FB201C03F0C8FC03B03CBC5E
S28400A18090469946A246AB46F0BDC046F0B5474680B4804682B00F1C161C0325002B00D0072504F047FB041E0FD0291C002204F007FB0823201C2030009341463A1C331C04F00AFB201C03F0A1FC02B004BC9046F0BDC046F0B55F4656464D464446F0B489B01D1C12AB1B7880469B4613AB1B880F1C9A4614AB1B88161C994604F01AFB4D
S28400A200041E28D002AB5D702D0A9D70002205AD1A7059466A70C26CD97051469980069249460622281CD98007932A7007F074F96A78201C062104F0C3FA0823201C203000934146331C3A1C04F0C6FA054B201CA36103F065FC09B03CBC90469946A246AB46F0BD09A0000010B5047890B0002C0ED10C4B1B68002B00D0984768460A49A5
S28400A2803A2225F09FFF684603F006FE10B010BD684606493D2225F095FF6846211C03F0FBFDF3E7B0110020386303007463030070B5057898B0002D29D102AC01232370037AC06863700390201C049507F04AF9144BA4685B68261D002B01D0301C98476D460635311C0222281C25F06BFF0E49492205A825F066FF6178237809021943FC
S28400A30005A80023EA5E03F0C7FD18B070BD05A806493D2225F056FF05A8291C03F0BCFDF3E7C046B0110020B463030000640300F0B5454657464E46E0B486B08246894690461D1C04F076FA041E22D0144B0E9A02AE5A603580C36C03AD0027281C04936F702F70059607F0D7F86A78201C002104F026FA81239B00201C203000935146F8
S28400A38043464A4604F028FA064B201CA36103F0C7FB06B01CBC90469946A246F0BDC046B0110020B1A20000F0B55F464E464546E0B484B09B460CAB1D780FAB81468846171C1E7804F036FA041E25D0154B0D9A03A91A60C06C5B4603220B808D7025F0F1FEE06C321C0E990330033625F0EAFEF2B2201C022104F0E3F981239B00201C7D
S28400A4002030009349463B1C424604F0E5F9064B201CA36103F084FB04B01CBC90469946A346F0BDB011002069A20000F0B58FB0061C04F0FFF9041E27D0164A01AD13782B70002B23D051786970012B05D9917AA970022B01D9D27CEA705A1CD2B21F1C201C062104F0ACF9291C3A1CE06C25F0A9FE201C2030311C012204F0F7F9201C22
S28400A48003F044FB00200FB0F0BD8920FBE700270122E5E71026002070B5061C151C04F0C9F9041C8920002C23D0201C02210E2204F086F92D78E36C022D1BD9FF221A705A709A70DA701A715A719A71DA711A725A729A720222DA72201C00221A735A732030311C012204F0C1F9201C03F00EFB002070BD69004919174A89004D19A95C5F
S28400A5005219197091785078090201435970090A99709179507909020143D079557A00040143107A00060143907A00022843D57A127B2D04284312060243080AD9701871080C090E9971110ADA711972110C120E587159729A72BDE750260020F8B55F4656464D464446F0B4834604F063F9061C8920002E3AD0301C0121202204F020F992
S28400A580F46C002300255A0015550133A2185570102BF8D1002301251B4A9A460020A8461178FF2914D00F2812D8410061184D780F782D023D4347469F402F43BDB22F0A0D7055460135EDB24F70AA46102D13D001330D32032BE3D1301C20305946012204F044F9301C03F091FA00203CBC90469946A246AB46F8BD01300133C0B20D32CB
S28400A600032BCDD1E8E7C04650260020F0B583B0151C00236A461371AC7A061C022C10D8A3001B19444F5B001B19F818827AA24223D0610009198900404A09198A5CA24235D004F0F7F8041C8920002C13D0201C0021012204F0B4F801A90122E06C25F0B1FD201C2030311C012204F0FFF8201C03F04CFA002003B0F0BD00239C4602E003
S28400A6800133082B0CD0C118EA18897892789142F6D162460132D2B201339446082BF2D16346082B20D004236A461371C9E72A78DA55AB7A9A00D2185200D218BA189372AB7A6A789900C9184900CB18FB185A70AB7AA91C9800C0184000C018C0190230082225F06FFDAC7A2B78032B14D0002B0AD1A3001B195B001C193B5D002B08D135
S28400A70006236A4613719CE7A3001B195B001C193B5D6A46137194E7A3001B195B001C1902233B55AB7A9A00D2185200D318FB5C6A46137185E7C0462C26002050260020F0B55F4656464D464446F0B49DB00190009204F06FF8834600286AD00FAF009C01233B70657824787D70022C63D8354B002103AA8946022690469A4603E0013497
S28400A780E4B2032C21D0002DF9D063001B199B001B1950461A5C5344BA55DA781B79701C1B02C0B213434146381802220B8025F009FD4B46013301340336013DDBB2E4B2F6B2EDB29946032CDDD1009C6578341C4D4503D000234A463B707A7058460821321C03F0EDFF5B46221CD86C391C25F0E9FC584601990122203004F037F85846B9
S28400A80003F084F9104A434613CA13C313CA13C313CA13C311CA11C3127840461A7003F03BFB00201DB03CBC90469946A246AB46F0BD8920F6E7002003A90224814602268846C5E7502600204064030030B58DB0051C03F0EFFF041C8920002C29D005210422201C03F0ACFFE36C144900221A700A78002A1FD15A7001229A70201C002236
S28400A880291CDA702030012203F0F0FF201C03F03DF901A80A4A031C32CA32C332CA32C332CA32C31168196092889A8003F0F4FA00200DB030BDCA685A70DDE7B81100207064030008B5024803F0E6FA002008BD9C64030008B5024803F0DEFA002008BDBC64030008B5024803F0D6FA002008BDDC640300F0B556464D465F464446F0B495
S28400A9000B1C9FB0111C03901A1C04A825F05AFC6946097C6B4611AE5A7C89463170002900D18DE002310191CFB246490423022488469B46CA4608E003237355631C04A9DBB20A5DBB4214D01C1C651EEDB2022AF2D853009B189B009B1841465B5C93422BD0631C5A4604A9DBB272550A5DBB42EAD155460135EDB203F05CFF041C8920CE
S28400A980002C13D0201C07212A1C03F019FF311C2A1CE06C25F016FC201C20300399012203F064FF201C03F0B1F800201FB03CBC90469946A246AB46F0BD2349D3009B18CB185978914210D05A7004AA9146019A02339144181C49460822029325F0CCFB002821D105237355A8E704A900228C469146D444029402E00132082A0DD06446B5
S28400AA009818A118807889788842F5D149460131C9B201328946082AF1D14946029C0829E0D10023735589E749460298082225F0C9FB05490B7801330B70002373557DE7012599E75026002010260020F0B5204C8FB0271D381C23F065FE2378013B237003F0E8FE051E2CD00421042203F0A8FEEE6C15F0A7FE217800233370F370154BEC
S28400AA80021C7170281C0121B1702030009302211A2303F0B7FE281C03F038F82378002B11D1237003A80C4A031C32CA32C332CA32C332CA32C31168196092889A8003F0EBF90FB0F0BD381C23F004FEEAE7C046B8110020010500007064030070B5057894B0002D29D101AC01232370037AC06863700290201C039506F034FD144BA468FB
S28400AB009B69261D002B01D0301C98476D460235311C0222281C25F055FB0E493D2204A825F050FB617823780902194304A80023EA5E03F0B1F914B070BD04A80649312225F040FB04A8291C03F0A6F9F3E7C046B8110020006503004065030030B5047891B0002C20D1694604230B70037AC0684B7001906846029406F0F4FC0F4BDB6959
S28400AB80002B00D0984703A80D4A031C32CA32C332CA32C332CA32C330CA30C312881A8003F07AF911B030BD03A80649312225F009FB03A8211C03F06FF9F3E7B811002074650300A465030010B5094C00232370084B621CFF211C34002011705070093299721970597098700B33A242F5D110BD102600202C260020F0B5454657464E4609
S28400AC00E0B486B08246894690461D1C03F012FE041E21D0134B0E9A02AE9A613580C36C03AD0027281C04936F702F70059606F073FC6A78201C002103F0C2FD0A4B201C20300093514643464A4603F0C5FD074B201CA36102F064FF06B01CBC90469946A246F0BDB811002001050000DDAA0000F0B55F464E464546E0B484B09B460CABBC
S28400AC801D780FAB81468846171C1E7803F0D2FD041E24D0154B0D9A03A9DA61C06C5B4603220B808D7025F08DFAE06C321C0E990330033625F086FAF2B2201C022103F07FFD0B4B201C2030009349463B1C424603F082FD074B201CA36102F021FF04B01CBC90469946A346F0BDC046B8110020010500005DAB0000F0B55F4656464D46CC
S28400AD004446F0B483B01D1C0CAB1E780DAB1B7881469B460EAB1B788846171C9A4603F089FD041E19D00422042103F049FDE36C5A461D709A70043D52465E70DA70012D12D9114B201C20300093494642463B1C03F058FD201C02F0D9FE03B03CBC90469946A246AB46F0BD002EEAD00748FA239B00C36001230374054B067043610430C8
S28400AD8023F0A8FCDDE7C04601050000B81100204DAA0000F0B55F4656464D464446F0B483B00CAC24788046A2460DAC24780F1C161C994603F03EFDA346051E1FD00321072203F0FDFCEC6C4B462370534663700023A3705B46E370022323710EA90222601D25F0EFF9094B281C2030009341463A1C331C03F006FD281C02F087FE03B0ED
S28400AE003CBC90469946A246AB46F0BD010500007047C04670B58EB06C460634D11C201C022225F0CFF902A8084A031C62CA62C362CA62C362CA62C322CA22C312781A70218803F029F80EB070BDC046D865030010B5047890B0002C0ED10C4B1B68002B00D0984768460A493C2225F0ABF9684603F012F810B010BD684606493F2225F07A
S28400AE80A1F96846211C03F007F8F3E7D8110020086603004466030070B5057898B0002D28D102AC01232370037AC06863700390201C049506F056FB134BA4685B68261D002B01D0301C98476D460635311C0222281C25F077F90D494C2205A825F072F961782378090219432A8805A802F0D4FF18B070BD05A806493E2225F063F905A81B
S28400AF00291C02F0C9FFF3E7D811002084660300D066030008B514200449012206F05AFC002801D0024B436108BDC0460504000015AE0000F0B5454657464E46E0B486B08246894690461D1C03F074FC041E21D0134B0E9A02AE5A603580C36C03AD0027281C04936F702F70059606F0D5FA6A78201C002103F024FC0A4B201C20300093A5
S28400AF80514643464A4603F027FC074B201CA36102F0C6FD06B01CBC90469946A246F0BDD81100200504000099AE0000F0B55F464E464546E0B484B09B460CAB1D780FAB81468846171C1E7803F034FC041E24D0154B0D9A03A91A60C06C5B4603220B808D7025F0EFF8E06C321C0E990330033625F0E8F8F2B2201C022103F0E1FB0B4BF2
S28400B000201C2030009349463B1C424603F0E4FB074B201CA36102F083FD04B01CBC90469946A346F0BDC046D81100200504000051AE0000F0B55F4656464D464446F0B489B01D1C12AB1B7880469B4613AB1B880F1C9A4614AB1B88161C994603F0EAFB041E28D002AB5D702D0A9D70002205AD1A7059466A70C26CD97051469980069245
S28400B08049460622281CD98007932A7006F044FA6A78201C062103F093FB0A4B201C203000934146331C3A1C03F096FB064B201CA36102F035FD09B03CBC90469946A246AB46F0BD0504000011AE000030B53A2800D030BD0B88012BFBD14B6818680202120A0A2AF5D100228A609A88002A0ED0012AEED19A680D4B10781B7DDD0703D40B
S28400B1000224051CA54309D001238B60E1E7074B1B7DDA07F8D41C07DBD5F5E719075B070B43DB0F18431070D3E7C0465C05002030B51A4B2B21DC6A595C5A68200201438A4206D33B21DD6B595C280201438A420DD9DC69D97E200201438A186B215A54DD6E120A290E09060A43DA6630BDDC6C4B21595CDD6920020843D97E2C022143EE
S28400B18041188A186B215A54D86E120A010E09060A43DA66024B01221A70E7E75C050020E011002070B51B4B5B205C68DA6D01345C60195C150229430131120E19541206090A1143144AD9651278002A02D1FFF7AFFF70BDD96E6B22985C0D0228430130090E98540906000A0843D8663B21DE6B595C350229438C42EBD3DE69D97E35020C
S28400B20029430C19000E9C540006240A0443DC66DFE7C0465C050020E011002038B50C1E01D1012A00D038BD104802F035FE104B7B215A685A54DD6F100A290E0906DD690143D967D97E280201438A185B215A54D86D120A010E09060A43DA65054B1C70FFF766FF044802F017FEDCE7106703005C050020E01100202C670300F8B55F460F
S28400B28056464D464446F0B4C77883783F021F434D4B061C00209F426ED94C4A4C4DBB185D43FA22A8460023D200974223D0494B0125FC18A4B2632C13D9201C6421FAF771FF1823051C5D4390230135FF33ADB29C4206D9C821201C4900FAF763FF2D18ADB2201C6421FAF7A1FF8BB29B08ED18394BEDB26B43747842469D18012C2AD9E6
S28400B300C821381C4900FAF791FF89B2381C88466421FAF78BFFA522D20094460222023C9246032289B2A4B217402C488946013400230121BB469AB20B2A09D80A1C9A4002421FD167463A4222D15746174225D10133A342EFD130781F4B013858433279E1231B015343C01873791A01D31A9B00B279C018801828183CBC90469946A24657
S28400B380AB46F8BD164A0133AD18A342D3D1E2E7144F0133ED19A342CDD1DCE74246002A05D04F46002F08D05A46002A05D10E4F0133ED19A342BED1CDE70C4A0133AD18A342B8D1C7E7C046CF07000030F8FFFF8033E1012FF8FFFF80510100D50A000080DE2800008D2700803B260000EA2400F0B583B03E490722684624F0E3FE142032
S28400B4000A21002206F0E6F9002801D0394BC3616846FFF733FF384B0122197D58600A43D2B204210A4305210A40D9781A7502221143D970997E0025114399762A215C5C2E4F14435C543A215C5C14435C544A215C5C22435A545822DA76DA7F4D2112060A430124DA6164422B229C54DA6A24490A43DA623B229C54DA6B0A43DA634B2274
S28400B4809D54DE6C320E1206DA64FF26C21916405B27DE55DF6D120A3F0E3F061743DF656B27DE55DF6E3E0E36063243DA66154A012616707B269855DF6F000A3E0E36063043D8678B201C548C201C5821431950FA239B00D3600C4B101D1574536123F0F9F80A493A20183104F044FD03B0F0BD483E03001DB200005C050020584D000097
S28400B500FFFFFF00E0110020A5B10000DC050020014B58687047C0465C05002010B582B0009068460191FFF7A9FE0F4B7B229854DC6F010A220E1206DC690A43DA67DA7E21020A43586080185B229854D96D000A0A0E12061043D865044B00221A70FFF7E7FD02B010BDC0465C050020E0110020F0B5254C0125267D2F1C0740AE433E43FF
S28400B5802675002827D00220F1B28143E078217502210143E170217D0120104004258000A943014321752A21002A1FD1605C0222904360543A21605C904360544A21605C9043605401221340DA00237D08218B4313432375F0BD2940257DE67802204900854386430D43E6702575D4E7605C0222104360543A21605C104360544A21605CB9
S28400B60002436254DEE7C0465C05002070B5164CE57FE0762D06000A2843E0612B202154E66A0D0A300E00062843E0623B202254E66B150A300E00062843E0634B202354E66C1D0A300E00062843E064013107D0013205D0002B03D0044B00221A7002E0024B01221A7070BD5C050020E011002010B5174C201C07F005F802F0D9FB01F007
S28400B680E3FD144B2C341C6002F006FAFDF736FEFEF7FCF901F014FEFEF7CCFCFDF7A2FC01F0F4FFFDF756FFFEF7D2FBFFF732FCFDF72AFBFDF798F9FFF79AFE00F0D2FC00F0A8FEFFF780FA00F084FB10BDC04604060020F811002010B58CB06C460634211C302008F066F9237806AC002B0BD104F0C0FF012323701F4B201C4433A3608D
S28400B70004F0BEFF0CB010BD342002A908F052F9002004A908F04EF9049A029B9A420FD06C4607343320211C08F044F969462120053108F03FF92378002B0FD006ACD7E7059A039B9A42EBD169463320073108F031F969462120053108F02CF906AC211C2F2008F027F9201C002118F0DDF8002018F074F9BCE7C0460406002008B5054BB0
S28400B7801A78002A04D1012203481A7002F09AFB08BDC046081F00206404002000487047F811002008B5FEF78FF908BD012070477047C0467047C0467047C04610B504788EB0002C0ED10C4B1B68002B00D0984768460A49332224F0F5FC684602F05CFB0EB010BD68460649362224F0EBFC6846211C02F051FBF3E7FC110020506703000F
S28400B8008467030070B5057896B0002D29D102AC01232370037AC06863700390201C049505F0A0FE144BA4685B68261D002B01D0301C98476D460635311C0222281C24F0C1FC0E49422205A824F0BCFC617823780902194305A80023EA5E02F01DFB16B070BD05A80649362224F0ACFC05A8291C02F012FBF3E7C046FC110020BC6703008A
S28400B88000680300F0B5454657464E46E0B486B08246894690461D1C02F0CCFF041E21D0134B0E9A02AE5A603580C36C03AD0027281C04936F702F70059605F02DFE6A78201C002102F07CFF0A4B201C20300093514643464A4602F07FFF074B201CA36102F01EF906B01CBC90469946A246F0BDFC110020050B000005B80000F0B55F4601
S28400B9004E464546E0B484B09B460CAB1D780FAB81468846171C1E7802F08CFF041E24D0154B0D9A03A91A60C06C5B4603220B808D7024F047FCE06C321C0E990330033624F040FCF2B2201C022102F039FF0B4B201C2030009349463B1C424602F03CFF074B201CA36102F0DBF804B01CBC90469946A346F0BDC046FC110020050B00005A
S28400B980BDB7000070B5117892B0141C01A8002910D00F4A031C70CA70C370CA70C370CA70C314681C6092889A8002F075FA002012B070BD0749432224F004FCE278A37812021A4301A86378002102F065FAEEE7386803006468030070B58CB001A80C49031C70C970C370C970C370C970C30C681C608C889C8089799971917853780902E8
S28400BA001943127802F048FA00200CB070BDC046A868030030B504788FB0002C15D1104B1B68002B00D0984701A80E4A031C32CA32C332CA32C332CA32C312CA12C312881A8002F029FA0FB030BD01A80649312224F0B8FB01A8211C02F01EFAF3E7C04604120020D46803000469030070B5017894B0002923D101AC01232370037AC068B3
S28400BA8063700290201C039105F06CFD144BA4685B68002B01D0201D984712493D2204A824F090FB61782378090262791943237912021A4304A802F0EFF914B070BD04A8094A031C70CA70C370CA70C370CA70C330CA30C312881A8002F0DEF9EDE7C046041200203869030078690300F0B557464E464546E0B482B00AAC24788146884634
S28400BB00171C1E1C02F096FEA246041E15D00021032202F055FEE56C53462B706E700923360A201CAE7020300093494642463B1C02F052FE201C01F0E9FF02B01CBC90469946A246F0BDC046F0B583B0071C0E1C151C02F06FFE041E0FD00121002202F02FFE0923201C20300093391C321C2B1C02F032FE201C01F0C9FF03B0F0BDC046DD
S28400BB80F0B583B0071C0E1C151C02F053FE041E0FD00221002202F013FE0923201C20300093391C321C2B1C02F016FE201C01F0ADFF03B0F0BDC046F0B583B0071C0E1C151C02F037FE041E0FD00321002202F0F7FD0923201C20300093391C321C2B1C02F0FAFD201C01F091FF03B0F0BDC046F0B5454657464E46E0B486B08246894637
S28400BC0090461D1C02F016FE041E21D0134B0E9A02AE5A603580C36C03AD0027281C04936F702F70059605F077FC6A78201C002102F0C6FD0923201C20300093514643464A4602F0C9FD064B201CA36101F068FF06B01CBC90469946A246F0BD041200206DBA0000F0B55F464E464546E0B484B09B460CAB1D780FAB81468846171C1E78D5
S28400BC8002F0D8FD041E24D0154B0D9A03A91A60C06C5B4603220B808D7024F093FAE06C321C0E990330033624F08CFAF2B2201C022102F085FD0923201C2030009349463B1C424602F088FD064B201CA36101F027FF04B01CBC90469946A346F0BDC0460412002015BA00007047C046F0B589B001A8064C031CE0CCE0C3E0CCE0C32468C3
S28400BD001C6002F0C9F809B0F0BDC046A05A030010B5047890B0002C0ED10C4B1B68002B00D0984768460A493B2224F04BFA684602F0B2F810B010BD684606493E2224F041FA6846211C02F0A7F8F3E70C120020A8690300E469030070B5057898B0002D28D101AC01232370037AC06863700290201C039505F0F6FB134BA4685B68261D0C
S28400BD80002B01D0301C98476D460335311C0122281C24F017FA0D494D2204A824F012FA61782378090219432A7804A802F074F818B070BD04A806493E2224F003FA04A8291C02F069F8F3E70C120020246A0300746A030008B514200121012205F0FAFC002801D0014BC36108BDC046EDBC0000F0B5454657464E46E0B486B0824689464C
S28400BE0090461D1C02F016FD041E21D0134B0E9A02AE5A603580C36C03AD0027281C04936F702F70059605F077FB6A78201C002102F0C6FC0123201C20300093514643464A4602F0C9FC064B201CA36101F068FE06B01CBC90469946A246F0BD0C12002059BD0000F0B55F464E464546E0B484B09B460CAB1D780FAB81468846171C1E78E9
S28400BE8002F0D8FC041E24D0154B0D9A03A91A60C06C5B4603220B808D7024F093F9E06C321C0E990330033624F08CF9F2B2201C022102F085FC0123201C2030009349463B1C424602F088FC064B201CA36101F027FE04B01CBC90469946A346F0BDC0460C12002011BD0000F0B55F4656464D464446F0B489B01D1C12AB1B7880469B4697
S28400BF0013AB1B880F1C9A4614AB1B88161C994602F090FC041E28D002AB5D702D0A9D70002205AD1A7059466A70C26CD97051469980069249460622281CD98007932A7005F0EAFA6A78201C062102F039FC0123201C203000934146331C3A1C02F03CFC054B201CA36101F0DBFD09B03CBC90469946A246AB46F0BDE9BC0000F0B589B0C3
S28400BF8001A8064C031CE0CCE0C3E0CCE0C324681C6001F081FF09B0F0BDC046A05A030010B504788EB0002C0ED10C4B1B68002B00D0984768460A49332224F003F9684601F06AFF0EB010BD68460649362224F0F9F86846211C01F05FFFF3E714120020B46A0300E86A030070B5057896B0002D28D101AC01232370037AC06863700290C5
S28400C000201C039505F0AEFA134BA4685B68261D002B01D0301C98476D460335311C0122281C24F0CFF80D49452204A824F0CAF861782378090219432A7804A801F02CFF16B070BD04A80649362224F0BBF804A8291C01F021FFF3E714120020206B0300686B030008B514200449012205F0B2FB002801D0024BC36108BDC04602020000E6
S28400C0807DBF0000F0B5454657464E46E0B486B08246894690461D1C02F0CCFB041E21D0134B0E9A02AE5A603580C36C03AD0027281C04936F702F70059605F02DFA6A78201C002102F07CFB0A4B201C20300093514643464A4602F07FFB074B201CA36101F01EFD06B01CBC90469946A246F0BD1412002002020000E9BF0000F0B55F463D
S28400C1004E464546E0B484B09B460CAB1D780FAB81468846171C1E7802F08CFB041E24D0154B0D9A03A91A60C06C5B4603220B808D7024F047F8E06C321C0E990330033624F040F8F2B2201C022102F039FB0B4B201C2030009349463B1C424602F03CFB074B201CA36101F0DBFC04B01CBC90469946A346F0BDC046141200200202000056
S28400C180A1BF000030B5D378547811785A002402D2180C4392001549D2188A181179D578090291B02943A1420DD0210AD47011710189827E0120E4B201900020029000940220FEF7E7FD04A8094A031C32CA32C332CA32C332CA32C312CA12C312881A8001F05AFE002011B030BDC04650260020A06B0300F0B55F4656464D464446F0B48F
S28400C20085B0071C039202F015FB061C8920002E48D0301C0021022202F0D2FA4448F16C427803239046434A0B7002910178151C0023B246B946002922D15C000094E418A400E4181419A77966793F023E43E7793F043E43277A3F0637430197A77A667A3F023743E67A247B36043E4324064F4634433F69019EB7424AD02C78FF2C18D0FD
S28400C28001330D35032BD6D10023414641700370504620304946002202F0E8FA504601F035FC002005B03CBC90469946A246AB46F0BD4146039F009C2970E1187C783E788900C9182402511834434C70240A8C704C4626696469370A4E718F71370C360E0E72260A4C728E72260C240ECF71CE720C734146029E01314446C9B2002701339F
S28400C30088463770747001210D35032B93D1BBE74E467669A642B0D1029F0133397029780D3579700121032B00D084E7ACE7C0461C1200205026002030B5057895B0002D20D101AC01232370037AC06863700290201C039505F006F90F4BA4685B68002B01D0201D98470D49402204A823F02AFF6178237809021943227904A801F08CFD21
S28400C38015B030BD04A80649322223F01BFF04A8291C01F081FDF3E71C120020D06B0300106C030030B5047895B0002C22D1694604230B70037AC0684B7001906846029405F0D0F8104B9B68002B00D0984703A80E4A031C32CA32C332CA32C332CA32C330CA30C31188198092789A7001F054FD15B030BD03A80649412223F0E3FE03A86D
S28400C400211C01F049FDF3E71C120020446C0300746C030030B50E4D0021281CFF2200244B005B189B005B18EB18013102705A709A70DC701C715A719A71DA711A725A729A72DA721A730D300329E9D130BDC04650260020F0B5454657464E46E0B486B08246894690461D1C02F0E4F9041E22D0144B0E9A02AE5A603580C36C03AD002791
S28400C480281C04936F702F70059605F045F86A78201C002102F094F9A023DB00201C20300093514643464A4602F096F9064B201CA36101F035FB06B01CBC90469946A246F0BDC0461C12002039C30000F0B55F464E464546E0B484B09B460CAB1D780FAB81468846171C1E7802F0A4F9041E25D0154B0D9A03A99A60C06C5B4603220B8045
S28400C5008D7023F05FFEE06C321C0E990330033623F058FEF2B2201C022102F051F9A023DB00201C2030009349463B1C424602F053F9064B201CA36101F0F2FA04B01CBC90469946A346F0BD1C120020A5C30000F0B583B0071C0E1C151C02F06BF9041E10D00121002202F02BF9A023DB00201C20300093391C321C2B1C02F02DF9201C8D
S28400C58001F0C4FA03B0F0BDF0B557464E464546E0B484B00CAC247881468846171C1E1C02F048F9A246041E1DD003AD002E20D105232B705346201C022102226B7002F0FFF8291C0222E06C23F0FCFDA023DB00201C20300093494642463B1C02F0FCF8201C01F093FA04B01CBC90469946A246F0BD2E70DEE7C046024B39211A888A432B
S28400C6001A8070470808002010B503784278303B9C001B19303A5B00D3180B70C3780279303B9C001B19303A5B00D3184B708479FA22303C92006243437A6424303B9A18C379303B6343D318027A303A9400121952009B189BB28B701B0ACB70C37A027B303B9C001B19303A5B00D3180B71837BC27B303B9C001B19303A5B00D3184B71CD
S28400C680437C827C303B98001B18303A5B00D3188B7110BD70B5074986B06A4670C970C230C930C209881180417E684601F0F4FB06B070BDB86C030030B587B001A8064B021C32CB32C2196811609B880221938001F0E2FB07B030BDD06C030030B50C4B85B06A4632CB32C21B786846137001F0D3FB084C0849094D1034281C103401F031
S28400C700CBFB231C103B19680029F6D105B030BDF46C0300503E0300E46C0300EC6C030000B5037883B001229A4001A91920019207F06CF9002002F02FF803B000BDC04608B5002002F0C6FB22F0D8FB08BDC04608B522F0D3FB08BD10B5046802220848211C23F009FD031C0120002B07D00548211C022223F000FD431E9841400010BDEA
S28400C780046D0300086D030010B5041C82B0FFF7E3FFA188227A237B247C0094FFF7F4FE02B010BD10B5041CFFF7D6FFA188227AFFF7CEFE10BDC04630B5041C85B0FFF7CBFF257CA188227A237B0095257D0195248B0294FEF7DEFA05B030BD30B5041C85B0FFF7B9FF257CA188227A237B0095257D0195247E0294FEF77EFA05B030BDD2
S28400C80010B50022002382B000920193011C0422684623F0D7FC6946002007F0F7F80099019A024B9962DA6202B010BD284C002038B5C568041C291C16480E2223F09CFC002816D01448291C082223F095FC002817D01248291C0D2223F08EFC002800D038BD201CFFF778FFA188227AFFF7A4F9F6E7201CFFF770FFA188227AFFF764F9C7
S28400C880EEE7201CFFF768FFA188227AFFF778F9E6E7C0460C6D03001C6D0300286D030010B5041C82B0FFF757FFA188227AA389247C0094FFF71AF902B010BD10B5041CFFF74AFFA188227AFCF774FD10BDC04610B5031C197900784A1E9141421E90411A7A1B7B541EA2415C1EA341C0B2C9B2D2B2DBB2FEF73CFE10BDC04670B582B069
S28400C900041C066869464068FFF77EFE6846FEF7B5FC6946051CA068FFF776FE6846FEF7ADFCE368021C291C301CFEF76FFE02B070BDC04630B589B001AC094A231C23CA23C323CA23C31188198092789A70FEF7DFFD011C201C01F09FFA09B030BDC046386D030000B583B069460068FFF74CFE00980199FEF7D2FD03B000BD10B582B04B
S28400C980041CFFF7E9FE0C23A188227AE356247C64B20094FCF708F902B010BD38B50D4A0D4C90235B00E25036228023E25202228223051CE25413F005FF8823E0522A78D323E2540122D423E254201C1CF07CFD38BDC04695C600002812002030B54D4A83898DB0041C934200D184E018D94A4A934200D171E042D9484A934231D0484A2C
S28400CA00934213D1FFF7A8FE257DA188227A238A0095258B0195A48B0294FCF72BFE10E0062B3ED0082B0ED0012B48D005A83D4A031C32CA32C332CA32C312881A8001F02BFA0DB030BDFFF787FE257DA188227A238A0095258B0195A48B0294FDF7BAFBEFE7FFF779FE257DA188227A238A0095258B0195A48B0294FEF7DCFAE1E78022DB
S28400CA80D2009342D2D1FFF767FE257DA188227A238A0095258B0195A48B0294FCF7C0F9CFE7FFF759FE257DA188227A238A0095258B0195A48B029400F030FCC1E7FFF74BFE257DA188227A238A0095258B0195A48B0294FFF708FAB3E7FFF73DFE257DA188227A238A0095258B0195A48B0294FDF73EFAA5E7FFF72FFE257DA188227A05
S28400CB00238A0095258B0195A48B0294FCF700F897E7C04601020000020400000504000006040000546D030010B5041CFFF714FEA188227AA38900F025FF10BD10B5041C82B0FFF709FEA188227AA389247C009400F0EAFE02B010BD10B5041C82B0FFF7FBFDA188227AA389247C009400F0AEFE02B010BD10B5041CFFF7EEFDA188227AF5
S28400CB80A38900F07DFE10BD10B5041C82B0FFF7E3FDA188227AA389247C009400F042FE02B010BD10B5041C82B0FFF7D5FDA188227AA389247C009400F006FE02B010BD70B5041C86B0FFF7C7FD257CA188227AA3890095A58A01951826A55F02951C26A55F03952025645D049400F09BFD06B070BDC04670B5041C84B0FFF7ADFD257CF3
S28400CC00A188227AA3890095A58A0195257E6E1EB5410295247F039400F03AFD04B070BD10B5041CFFF798FDA188227AA389FCF7A9FA10BD10B5041CFFF78EFDA188227AFCF784FA10BDC04610B5041CFFF784FDA188227AA389FCF753FA10BD70B586B0021C03AE6C46051C1032331C16341188043219800233A342F9D1281CFFF76CFD12
S28400CC80A9882A7A2B7B0096FCF7FCF906B070BD10B5041CFFF760FDA188227AA389FCF7CBF910BD10B5041CFFF756FDA188227AA389FCF799F910BD10B5041CFFF74CFD237BA188227A5C1EA341DBB2FDF75EFA10BDC04630B5041C85B0FFF73DFD257CA188227A237B0095A58A0195247E651EAC410294FDF710FA05B030BD30B5041C8F
S28400CD0083B0FFF729FD257CA188227A237B0095247D651EAC410194FDF7CCF903B030BD30B5041C83B0FFF717FD258AA188227A237B0095247D651EAC410194FDF788F903B030BD70B5C668041C311C0B48032223F012FA0125002807D00948311C072223F00AFA454245416D00201CFFF7F4FC2B1CA188227A00F0B1FA70BD706D030079
S28400CD80746D030010B5041C82B0FFF7E5FCA188227A237B247C0094FCF724FF02B010BD10B5041CFFF7D8FCA188227A237BFCF7F5FE10BD10B5041CFFF7CEFCA188227AFCF7D0FE10BDC04610B5041CFFF7C4FCA188227AA389FCF79FFE10BD70B5858981238CB0041C9B009D4200D108E11CD9944B9D4200D177E037D8934B9D4250D056
S28400CE00924B9D4200D1EAE08023DB009D4200D18CE005A88E4A031C32CA32C332CA32C312881A8001F038F84BE0032D00D1A4E000D88CE0874B9D4200D166E0864B9D4200D1BBE0092DE4D1FFF786FC257DA188227A238A009500250195251C18350295247F0394FEF7FEFE2BE07C4B9D422AD07B4B9D4200D1D4E0A023DB009D42C8D107
S28400CE80FFF76AFC257DA188227A238A009500250195251C18350295247F0394FFF716FB0FE0FFF759FC257DA188227A238A009500250195251C18350295247F0394FDF713F80CB070BDFFF747FC257DA188227A238A009500250195251C18350295247F0394FDF7C5FEECE7FFF736FC257DA188227A238A009500250195251C18350295EB
S28400CF00247F0394FCF772FBDBE7FFF725FC257DA188227A238A009500250195251C18350295247F0394FBF7AFFDCAE7FFF714FC257DA188227A238A009500250195251C18350295247F0394FBF728FFB9E7002D24D0012D00D05CE7FFF7FEFB257DA188227A238A009500250195251C18350295247F0394FEF776FFA3E7FFF7EDFB257D1D
S28400CF80A188227A238A009500250195251C18350295247F0394FCF797FE92E7FFF7DCFBA188227A238A267D0195251C183500960295247F0394FCF719FA82E7FFF7CCFB257DA188227A238A009500250195251C18350295247F0394FFF790F871E7FFF7BBFB257DA188227A238A009500250195251C18350295247F0394FDF7D7FF60E758
S28400D000FFF7AAFB257DA188227A238A009500250195251C18350295247F0394FDF7C4F94FE7FFF799FB257DA188227A238A009500250195251C18350295247F0394FEF75DFC3EE7060400000204000005040000546D0300010200000202000001050000050B000030B5848981238BB0051C9B009C4200D1B1E01BD9624B9C4259D02ED831
S28400D080614B9C4240D0614B9C4200D19BE08023DB009C4200D160E003A85D4A031C32CA32C332CA32C312881A8000F0F5FE34E0032C00D16AE05AD9564B9C4243D0564B9C4200D175E0092CE6D10024FFF744FBA9882A7A2B8A0094FEF78AFD1DE04F4B9C421CD04E4B9C4200D180E0A023DB009C42D1D10024FFF72FFBA9882A7A2B8A48
S28400D1000094FFF7A7F908E00024FFF725FBA9882A7A2B8A0094FCF7ABFE0BB030BD0024FFF71AFBA9882A7A2B8A0094FDF764FDF3E70024FFF710FBA9882A7A2B8A0094FCF718FAE9E70024FFF706FBA9882A7A2B8A0094FBF75CFCDFE70024FFF7FCFAA9882A7A2B8A0094FBF7DCFDD5E7002C16D0012C00D08FE70024FFF7EDFAA988B3
S28400D1802A7A2B8A0094FEF733FEC6E70024FFF7E3FAA9882A7A2B8A0094FCF75BFDBCE7FFF7DAFAA9882A7A2B8A0094FCF7C8F8B3E70024FFF7D0FAA9882A7A2B8A0094FEF760FFA9E70024FFF7C6FAA9882A7A2B8A0094FDF7AEFE9FE70024FFF7BCFAA9882A7A2B8A0094FDF7A2F895E70024FFF7B2FAA9882A7A2B8A0094FEF742FB20
S28400D2008BE7C046060400000204000005040000546D0300010200000202000001050000050B000008B5002001F0FAF808BDC04608B50078431E9841C0B201F0E3F808BD08B500F029FE08BD08B5024800F0FEFC08BDC046503E030038B53221322800D8C1B20A4D2C1C0834201C00F009FE43B2002B09DD01380935C0B22D182078013460
S28400D28000F0EAFCAC42F9D138BDC046A81300207047C04670B5094988B06B4670C970C370C970C30C6868461C608C889C8089799971D17800F0F0FD08B070BD847F030008B514200621012204F084FA002801D0014B436108BDC04695D20000F0B5474680B482B0071C0E1C151C984601F0A2FA041E0FD04146002201F062FA0623201C40
S28400D30020300093391C321C2B1C01F065FA201C00F0FCFB02B004BC9046F0BDF0B55F4656464D464446F0B489B01D1C12AB1B7880469B4613AB1B880F1C9A4614AB1B88161C994601F076FA041E29D002AB5D7059462D0A9D70D97005AD002251461A7099806A704946C26CD980281C0621894607930692297004F0CFF86A78201C06215F
S28400D38001F01EFA4B46201C203000934146331C3A1C01F021FA064B201CA36100F0C0FB09B03CBC90469946A246AB46F0BDC04691D20000F0B5474680B49EB0151C2349312211A822F0FEFE01AF214B3A1C13CB13C21E680BA816609988804691809B7993711C4A031C52CA52C303CA03C3128806AE1A80184B321C13CB13C21C6811A885
S28400D40014609988002491809B799371297800F043FDE978AB7809021943381C00F03CFD2979404600F038FD2B79002B09D02B195979301C00F030FD01342B79E4B2A342F5D800201EB004BC9046F0BDA47F0300B05D0300D87F0300F07F030070B509498AB06B4670C970C370C970C370C970C3096868461960117800F00EFD00200AB028
S28400D48070BDC04604800300F0B593B006A81249031C151C54C954C394C994C3C4C9C4C350C950C30A8801AC1A800C4B221CC2CBC2C21F681760998891809B799371297800F0EAFCA9786B780902201C194300F0E3FC002013B0F0BD2C800300B05D0300F0B597B00BA81B49031C161C34C934C3844685C985C3B0C9B0C3086801AD1860D7
