S02B0000456E644465766963655F5374646C696E6B5365635F53616D5232315F417473616D723231673138618A
S284000000303D002091AC010000000000B99E01000000000000000000000000000000000000000000000000000000000000000000000000000000000000000000000000000000000000000000000000000000000000000000000000000000000000000000000000000000000000000000000000000000000000000000000000000000000058
S2840000800000000000000000000000000000000000000000000000000000000000000000000000000000000000000000000000000000000000000000000000000000000000000000000000000000000000000000000000000000000000000000000000000000000000000000000000000000000000000000000000000000000000000000FB
S28400010000000000000000000000000000000000000000000000000000000000000000000000000000000000000000000000000000000000000000000000000000000000000000000000000000000000000000000000000000000000000000000000000000000000000000000000000000000000000000000000000000000000000000007A
S2840001800000000000000000000000000000000000000000000000000000000000000000000000000000000000000000000000000000000000000000000000000000000000000000000000000000000000000000000000000000000000000000000000000000000000000000000000000000000000000000000000000000000000000000FA
S284000200000000000000000000000000000000000000000000000000000000000000000000000000000000000000000000000000000000000000000000000000000000000000000000000000000000000000000000000000000000000000000000000000000000000000000000000000000000000000000000000000000000000000000079
S28400410009000100CD290020000000000000000008000400981A0020000000000100000007002800F01E0020000000000100000006000200F0290020000000000000000005001C009C1A0020000000000200000004000300EA290020000000000000000003008001F81F00200000000002000000020000016813002000000000010000000D
S2840041800100600058110020214E000000000000B0C701000900014008B502F051F902F06BF9FCE7002934D00123002210B488422CD301242407A14204D2814202D209011B01F8E7E400A14204D2814202D249005B00F8E7884201D3401A1A434C08A04202D3001B5C0822438C08A04202D3001B9C082243CC08A04202D3001BDC0822436F
S284004200002803D01B0901D00909E3E7101C10BC7047002801D00020C04307B4024802A14018029003BDC046D90000000029F0D003B5FFF7B9FF0EBC4243891A1847C046002941D010B4041C4C40A44601230022002900D54942002800D5404288422CD301242407A14204D2814202D209011B01F8E7E400A14204D2814202D249005B00A3
S284004280F8E7884201D3401A1A434C08A04202D3001B5C0822438C08A04202D3001B9C082243CC08A04202D3001BDC082243002803D01B0901D00909E3E7101C6446002C00D5404210BC7047002806D003DB0020C043400801E08020000607B4024802A14018029003BDC046190000000029EBD003B5FFF7A7FF0EBC4243891A1847C046C2
S2840043007047C0469C460304F0B51B0C17043F0C150C1E1C041C000C7E436B4347434543FB18300C1818874202D980235B02ED18030CED1863465C434A433604360CA118000480194919F0BD08B5054B020A5A77020E18779A77DA77024B1B68984708BDB40000201006002008B520220B4B00280AD1985421229854222298542322985429
S284004380074802F0A1F908BD9954080A21229854080E2222985423229854F1E7B4000020A543000008B524220B4B00280AD19854252298542622985427229854074802F0AFF908BD9954080A25229854080E2622985427229854F1E7B40000204943000008B502F041F902F06BF902F095F908BD08B502F03BF902F065F902F08FF908BD6E
S28400440008B5034B1860034802F032F908BDC046100600206943000030B585B00190002403A801A90022039400F0BAF9002822D000216822039818F01BF9039B01204A229852022530229D5401211C87482419554C2418534E20195450215A525822985C04210143C9B208200143012001439954592200219954012005B030BD08B5031C7A
S284004480427A807A197B00021043DA7A0902114300F07AFC012008BD08B5034B00221A7000F00AFC08BDC0461406002008B5034B02221A7000F000FC08BDC0461406002008B5FFF795FF034B01221A7000F0F4FB08BDC0461406002010B582B06946073100241D200C7002F0FBFA024B1C7002B010BDC0461406002030B51E4D83B02C7836
S284004500012C22D0002C10D0022C06D0032C02D1281D16F005FF03B030BD00F0BBFBFFF75FFF1548FFF76CFFF5E7281D16F020FF124BEB6001232B74114B6B6102232B7000F0BAFB01F0E2FCE5E7002301A8019300F09CF9002804D103232B7000F0ACFBD9E70198074904702F22013017F0ECFFF2E7C04614060020C14400001027000065
S284004580AD440000B4000020054BC36010230374044B4360044B0360044B83607047C04658C70100D9440000F94400009944000008B502F099F908BD08B5002002F0BCF9012002F0AFF9022002F0ACF908BDC04608B5002002F09CF9012002F0A3F9022002F0A0F908BDC04608B5022002F09AF908BDC04608B5022002F094F908BDC0463E
S28400460008B5022002F084F908BDC04608B5022002F088F908BDC04608B5012002F08CF908BDC04608B502F05FF9002002F070F908BDC04608B5002002F07EF908BDC046027838B5194B002A24D01A7A0132D2B21A72032A17D900221A7203225A721D1C011CDA68E0390C1E944203D117E09C420DD01A1C1368002BF9D1281C01F018FDDE
S28400468000F056FB38BD00225A721D1DE8E724681460F2E71A7202225A721D1CE0E7181C0C3001F02BFD011CE7E7C0463006002038B50A4C0023251C1035211C281C1831637263602361E360236001F0F1FC84235B00281CE11801F0EBFC38BD30060020F0B52D4D47466B7A80B4022B08D0032B04D0002B30D004BC9046F0BD00F036FB30
S2840047002B68181C0830002B1CD02E1CE827A8461036041C083CE359002B00D098472A68211E914203D132E09C4212D01A1C1368002BF9D1301C01F0BBFC2868002801D00830E6E7FFF762FF00236B7200F0F0FAD1E724681460EDE76C68002CCBD0FFF74FFF0E4ADC23E250221C4232D423201CE250803004F068FE281D01F0BFFC011C51
S284004780281C0C3001F094FC00F0D2FAB3E7404601F0B4FC011CCDE73006002041460000F8B51C4D4F462C694646C0B49146061C0F1C002C2CD0281C103001F09FFC011C281D01F075FC396800291DD042231B19181C3022984617F0B7FE3168251C8035002903D0281C682217F0AEFE42463A60E8234A463560E250012400F099FA201C44
S2840048000CBC90469946F8BD422212199046E4E70024F2E730060020084870B50023041C061C036043600834D836051D211C281C343401F03DFCB442F8D170BD2808002030B5114C83B02568002D0ED02979684600F0B4FA00280AD1201C01F04FFC011C201D01F025FC00F045FA03B030BD281D019B98470028EFD1201C01F03FFC011C05
S284004880201C01F015FCEEE72808002070B50E4C061C6568002D14D0201D01F02FFC011C201C01F005FC31680435002903D0281C302217F049FE3560012400F01BFA201C70BD0024F9E7C0462808002008B5FFF773FE08BD00B5406C83B00190FFF79CFE01A8FFF7D3FF03B000BDC04600B583B001A815F0D5FA054B8022198852010A43DC
S28400490001A81A8015F0D2FA03B000BDAC0D002008B5437E002B03D1034B04221A7008BDFFF7E4FFFBE7C0460009002010B5FFF781FE094C6388E1681A1E8A4200D90A1C9B1A9BB26380002B04D1FFF76BFE201D16F00EFD10BDC0460009002038B5124D041C281C00231C302B7616F001FDA37C002B15D102232B70FFF72AFEAB6B002B44
S28400498000D098472279094BDA7462791A75A2785A72E2789A72228ADA8222785A7538BDFFF7A4FFFBE7C04600090020B4000020F0B5764E8DB03478012C00D1C1E0002C4BD0022C2FD0032C2BD1FFF70DFE704D704AA0235B00EA503422A023EA522B1CA2331C7007F0A2FE291CB031026843680A604B600023F322AB54F422A8582E1C51
S284004A00010E0906A950F722AB54F823E95820360A0E1206EA504022FB23EA54301C11F0BDFF0DB0F0BD6823F25CD00706D501218A43F254336B002B00D098476823F25C510700D59BE06823F25C9007E9D502218A43F254FFF7F4FEE3E7FFF7A9FD002002A902F011F80298039901225242D31712184B41591C71D0301C3030FFF784FD1E
S284004A806C460223E3710734211C212002F028F8414F237801223B704423F254331C44335A70DA704922B15C0F2000248143012001439C701C71F365301C384B5430B154336605F063FAFA235B0073622823F454334B01246442E517342004A9F3620494059501F0FDFF10222E4908A817F02CFD08A906A80694079506F09CFE08A90020FA
S284004B0001F0C2FF08993A780B0213433B606B4623331B78099A3B7113023A7913437B606B4627331B783B72736B002B00D09847FFF7BEFDFFF770FE01233370FFF7D6FE6FE7FFF739FD337E002B12D0164A301C98237030F25011F0FBFD62E7101C08308AD902A801F026FE002002A901F0B8FF82E7301C1C3016F0D3FB3476E6E704216D
S284004B808A43F254FFF7ACFD5DE7C046000900208009002011490000B4000020D5480000CD48000068C701005D49000010B5037886B0502B3DD0902B31D00AD9912B06D1FFF718FD2F4B01221A70FFF78FFE06B010BD8E2BFBD3C27981792B4B12020A435A72120A9A72C1780279D9741A758278417812020A43234CDA824279201C5A7588
S284004C001C300023237616F0B3FBFFF7E1FC2378012B08D0042B2CD002232370D7E7194B04221A70D3E7A36B002BF5D098472378F0E70279C37812021A434379C1791B041A4383791B061A43037A1B020B43417A09040B43817A009209060B4302A80B491022019317F070FC684602A906F0E2FDADE702232370A36B002B00D09847FFF7B9
S284004C8035FEC9E700090020B400002068C701007047C04630B5074D83B001ACEB8A201C238010F0E9FFA3782B76E3786B7603B030BDC046B400002000B50C4B83B01A78022A01D003B000BD6822985C0121014301A8995415F0E4F8054B8022198852010A4301A81A8015F0E1F8EBE700090020AC0D002000B50C4B83B01A78022A01D08C
S284004D0003B000BD6822985C0221014301A8995415F0C6F8054B8022198852010A4301A81A8015F0C3F8EBE700090020AC0D002000B50C4B83B01A78022A01D003B000BD6822985C0421014301A8995415F0A8F8054B8022198852010A4301A81A8015F0A5F8EBE700090020AC0D002008B5054B1A78022A00D008BD03221A70FFF7B6FD72
S284004D80F9E7C0460009002070B50C1C002801D0002900D170BD074D2E1D6880301C16F0E7FA00232B74044B301CEC606B6116F0B7FAEFE7000900202D490000F8B5154E051CF36B0F1C002B19D0321C3032127C002A14D0002407E0331C303301341B7CE4B2A3420BD9F36BE2009918281C082217F0AAFB2B78BB42EED1012009E000233E
S284004E002B706B70AB70EB702B716B71AB71EB710020F8BD000900207047C0467047C04670B52C4B2C4C196A5A6A216062602B4D2B4E2B79291C2372AA6CEB6C22616361284B201C1B683031A3617723F35C213023776E23F35C63772023EA5CA2772122AA5CE2772222AA5CE254112217F06CFBEB8863862A7B3423E2547A23F35AE386AD
S284004E807123F25C3823E2549223F25C3923E2545023EA5C3A23E254327C3B23E254124B9968DA68216462641A8A4823E2525223EA5C4A23E25432884C23E252727A4E238036E2543268736822656365EA7A5823E25470BDC8280020581100200829002060290020B028002088280020F0B5A4220E4C920085B0051C0F1CA61802E01034C8
S284004F00B44210D010226846211C17F01DFB6A461388AB42F3D1381C6946102217F014FB012005B0F0BD0020FBE7C0460041000000B50B4B01228240101C1A7883B01043187001A814F0ACFF064B8022198892010A4301A81A8014F0A9FF03B000BDC046280B0020AC0D002010B5154C82B02178002913D0CB0720D4002301200133DBB226
S284004F800A1CDA401042F9D001229A40D3B25940217000F01FF82378002B01D102B010BD01A814F07DFF074B8022198892010A4301A81A8014F07AFFF0E70123E7E7C046280B0020AC0D002008B500F089FE00F09FFC08BDF0B5374E85B000250124A95DEFB200230A1CDA40D8B214421CD10133082BF7D10135062DF1D13827381C00F02D
S284005000F3FD6C4600281BD1381C6946FFF76EFF002833D1331CB11D1A78002A40D101338B42F9D105B0F0BD0122FF009A40C7199143381C715500F0D7FD6C460028E3D0381C6946FFF752FF0028E3D06388002B2AD0019B002B27D0A368002B00D0984762886368381C002100F06AFC0028D1D0C2211148490000F019FFCBE7029B002B89
S28400508000D0984761886268381C00F03FFDFD231842BFD080210848490000F007FFB9E70020FFF745FFBDE7BB210348490000F0FDFED1E72C0B002078D9010010B5831C041C09480E341A78010A4A4011094A40000250401103484052015040013380B2A342F0D110BDC046FFFF000010B5114B1978002910D0104B1A8882420FD04C1EA1
S284005100E4B20433A4001C1904E01A1C11880433814205D0A342F8D10024201C10BD1A1C5388141C002BF8D124210448FF3100F0BDFEF2E7340D0020340B002088D9010038B5041CFFF7D2FF002804D098210C48490000F0ABFE0B4D287843B2002B08DB431C2B70084B800018180470240A447038BD32210248FF3100F098FE2878EFE7C0
S28400518088D90100340D0020340B002010B5041CFFF7ACFF00280ED0201CFFF7A7FF094B042219780139C9B21970074B8900591817F0CAF910BD9F210448490000F076FEEAE7C046340D0020340B002088D90100F8B5084F061C0D1C141C7878311C2A1C231C00F0CBFD7878311C2A1C231C00F059FEF8BD340D002030B51B4C802285B00B
S284005200051C00216078920100F046FE00280AD1607800F023FE802260780021920100F03BFE00281CD001236A465B421380412393705423D370532313714E235371762393713123D37102950020ED43694610220395FFF7BDFF002802D01023638000E0002005B030BDC046340D002000B583B0694606310023022200200B80FFF7A8FFE0
S28400528003B000BDF0B556464D465F464446F0B48DB002911699061C9146002951D0CA18002101928B4649465D18ADB24F46029CA94514D140E004AA1023301C211C00F02BFD6A46938AD28AAB4206D2D21892B2BA4202D9AA420CD2171C6B465C8B002CE9D100200DB03CBC90469946A246AB46F0BDEA1A92B2904610344444A4B2A246B8
S2840053009F421BD3EF1BBFB2029CB8464F464246019BAD1AADB2002B1BD00199224B4246891A587853460191991A89B2019A434600F0F2FCAF42D2D10120D3E769464C8BE5E7194A52889A1892B2934600220192A9E7002AEED003974746B0465646AA465D46A34600E0271C0024102F03D93C1C103CA4B21027F61BED1BB6B24046311C1A
S28400538008AAADB23B1C00F0C7FC281C08A93A1CFFF71EFF0028A5D0002CE4D15C46039FAB4646465546C5E7340D002008B5064B5B68002B03D09847002800D108BD034B187800F04BFDF9E7340D0020E400002038B501235B4203704370041CFFF76EFE0C4DA073000AE073211C68881022FFF7EFFE041E06D06B880F221F3393436B80F1
S284005400201C38BD68786988102200F045FD0028F6D1F0E7340D0020F0B5564644465F464D46F0B4474D8DB0281C083001F0C8F86A7800232B846B849246101C002104AA102300F069FC069C0026013CA0463E4F544608E000236E709C420CD04046FFF7CBFE002810D16B780133DBB2012BF1D86B709C42F2D1381C344900F017FD404684
S284005480FFF7BAFE0028EED02B78A246002B49D000236F46994608AC00260E3709E043465A465A804B460133DBB299462B784B4538D94A469300264A5046D218518810239046221C00F028FC2389201CE3806B88A6806681A6819B46FFF77AFF002818D0424651882389504600960022FFF7CAFE00280ED0E2886B885846D3180F330F227C
S2840055009343391C02226B803E80FFF761FE0028C5D10024201C0DB03CBC90469946A246AB46F0BDFFF7A2FE041EF3D0094B24355246281C1A7015F01BFF281C15F0F0FEE8E7C046340D002088D90100DB020000340B0020E4000020F0B51A4D83B0041C0E1C6F88FFF734FF00281DD0002E09D0E279A379120268881A43311CFFF728FE09
S284005580002813D0E379A2791B0213436A8869469B180F330F2293436B8006310023381C02220B80FFF714FE03B0F0BDE379A2791B0213436A889B180F330F2293436B80F2E7C046340D0020104A08B5518880239B015B1A9BB2834206D30D498B4202D8137A002B09D008BDFFF716FF0028FAD10848094900F05AFCF5E7101C0830012137
S284005600064A074B00F0BEFFEDE7C046340D00200F04000088D901001B0300001027000079570000F0B557464E464546E0B44C4C88B06368002B09D09847002806D1052008B01CBC90469946A246F0BD608C002839D1238C0020002BF2D0181CFFF746FD061E56D0C278837812021A4304AD111C1023904660782A1C00F04EFB638C002B01
S28400568049D063882A899A46914636480421002200F00EFC2A89638C218C334800F00AFC638C4A462B81994552D892B291460027281CAF80EB806F81AF81FFF789FE002807D10120BCE7103080B2FFF77DFF208CC4E760784146009700224B46FFF7D2FD0028EED0EA8863886946D3180F330F2293430E315046022263800F80FFF768FD6F
S2840057000028DED05246B2705246130A27846784F370002094E72889103080B2FFF754FF208CFFF7E3FC061E14D0F278B37812021A43111C1023904660782A1C00F0ECFA62882B899246628C9946002AAFD09CE71A1CAAE70348054900F0A8FBE5E7C046340D002088D9010090D901004E03000008B5FFF757FF08BD08B5084B5B68002BA8
S28400578003D09847002800D108BDFFF745FE0028FAD10348D92100F089FBF5E7340D002088D90100F0B5474680B4564C00232370012388B000255F42FF266A461023281C002100F0A9FA6A461388002B03D19278412A00D16CE00135EDB2022DEDD1FF2E35D010236670301C6380102104AD08AE0F2710232A1C00F08FFA2B1C1978FF2908
S28400580009D10133B342F9D101223823E25408B004BC9046F0BDEA89281C9046FFF74EFC804509D061881F31B94389B26180364B9942E9D86078DCE72B88002B23D0E9886388C9181F31B94389B26180EFE700232E4D637002204042FFF7CEFC002803D0FFF704FD00280BD163780133DBB26370012BEFD9EF21281C890000F017FBE9E70A
S28400588000232370C0E76B88181C9846FFF72EFC002833D063881A0A8370C2702A89002A27D0EA881F329B18BB4399B26180BEE76A46D378542B00D08DE71379532B00D089E753794E2B00D085E79379762B00D081E7D379312B00D07DE7029B039A5A40013200D077E7BB4200D374E71F1C2E1C71E74046FFF74AFC6388D2E74046FFF740
S2840059001FFCC7E7340D0020FF1F000088D9010010B5084C3823E35C002B01D1FFF742FF231C243301221A73034B6363034BE36210BDC046340D0020AD530000581B0000F0B54F464646C0B4051C85B08946171C9846002850D0002B4ED0304E7468002C08D0A047002805D1052005B00CBC90469946F0BD381C103080B2FFF725FE281C92
S284005980FFF7B4FB041C0320002CEED0E578A3782D021D437078291C6A46102300F0BCF969460B8949467A1804209A42DDD86A4649469180D78055819F422BD09389694601338B81684641467588FFF7C5FD031C0120002BC9D0A5702D0AE57069468B89642B07D94B883384002373843C23F35C002B06D00020B8E709480A4900F056FAE0
S284005A00ABE7301C3C300121074A084B00F0BAFD0020AAE700239381D4E7C046340D002088D9010025040000B80B000071570000F0B5474680B4041C82B08846171C1D1C002812D0002B10D0201CFFF74FFB002814D0C47886782402211C3143032000290ED102B004BC9046F0BD0E480E4900F01DFA201CFFF73AFB0028EAD10320F0E792
S284005A804346DA19094B9A4201D90420E9E7084B4246587800953B1CFFF7F4FB0028F4D00020DEE788D9010076040000FFFF0000340D002010B5041C84B0002815D0201CFFF714FB002819D0C17883780902194302D1081C04B010BD094B6A465878102300F01AF96B461989F3E70648064900F0DDF9201CFFF7FAFA0028E5D10021E8E786
S284005B00340D002088D9010092040000F0B5461E041C3048B6B285B00D1C171C864217D88023DB00994213D8201CFFF7DFFA002804D0C37882781B0213432FD1264E7368002B0AD09847002807D1052005B0F0BD2248234900F0AAF9E6E7281C103080B2FFF732FD33787F2B2ED86A4600236846391C93805381938176885480D5801581CF
S284005B80FFF7EAFC031C0120002BDFD0201CFFF7D7FA8670360AC6700220D7E7201CFFF789FFA84206D00C4B1C845D84FFF73AFD0028CBD10020002FC8D0201C00212A1C3B1CFFF735FFC1E70448064900F06EF9CBE7C046FEEF0000340D002088D90100DF0300000704000008B5FFF77FFA002807D08378C07800021843431E9841C0B2B7
S284005C0008BD0020FCE7C046F0B557464E464546E0B499462F4B4003CB180C1C1B18494684B0151C9A4600294FD02B4E731E9A4546D853464B449E423DD380234C449B019C4233D84B46002B2ED049464B46102900D910239BB298461A1C6846514616F073FC4246002A17D0002407E02F780135BE420AD10134E4B2A0450DD96B461E5D37
S284005C80002DF3D1FF27BE42F4D0002004B01CBC90469946A246F0BD494642468B1A9BB29946C244002BD0D10120EFE70B48A92100F0FCF8C6E70948A82100F0F7F8BCE70648A72100F0F2F8B3E70448A62100F0EDF8AAE70001000000410000BCD9010010B5094CFF231C4203D00848462100F0DDF8074B074A9B189C4203D003484A2152
S284005D0000F0D4F810BDC04600010000BCD901000041000000C0FFFFF0B54746144D80B4144F4D1940031C1C2D187B1E0E1C90469D4218D82B199F4210D3802336199B019E4203D90C485A2100F0B0F84046291C221C16F0F9FB04BC9046F0BD0648592100F0A4F8E9E70448582100F09FF8E1E70001000000410000BCD90100F0B5474600
S284005D8080B4334F4003CF190E1C151C1C1C3F18002B3ED02F4B9846013B9F4242D83B19984546D3802336199B019E424AD8FF20802638407600361AA64200DD261CB3B2191C2A1C984615F069FD381C15F06EFD4346E41A80235B00A4B2F7199846AE19002C13D0251C444501D980256D00ADB2321C0020291C641B15F050FDA4B2381C58
S284005E0015F054FD7F197619002CEBD104BC9046F0BD11486D2100F049F80E4B9846013B9F42BCD90C486E2100F040F83B199845B8D209486F2100F039F8361980239B019E42B4D90448702100F030F8AFE7C0460001000000410000BCD9010038B50B4B4403E4180A4B013B9C420AD880239B01E518201C0134FF3415F014FDAC42F8D1C4
S284005E8038BD0448902100F011F8EFE70001000000410000BCD9010008B5131C0022FFF7B3FE08BD08B5FFF7AFFE08BD7047C0467047C0460FB404B07047C0467047C04630B5104C83B02378002B0DD06D4607352120291C00F0D8FD69461D20063100F0D3FD2B78022B03D014F0DAFA03B030BD6A469379002BF7D1034B201D63610FF0AE
S284005F00F5FEF3E7880D0020BD5E0000014B01221A707047880D0020014B18787047C046880D002008B515F091FA08BDF0B51F24044001234746A34080B40E1C47091C1C3F2817D8BF00F5196B68234202D004BC9046F0BD114B311C181C984600F0F4F800280DD06B68474423436B607B681C437C60ECE70A4A0B4B1A8000F069F9E1E72A
S284005F8030717071B071F07130727072B072F072311C404600F08CF8E4E7C046A00D00200380FFFFBC11002070B51F2404400123A3400D1C46091C1C3F2817D8B00029184B681C4211D0E5432B404B600A490B68002B06D01A185268224206D11B68002BF8D1081843681D40456070BD034A044B1A8000F02DF9E1E7A00D00200380FFFFA2
S284006000BC110020F0B5454657464E46E0B41F2505400123AB40071C884646091D1C3F281ED8164BB6009A1952682A4213D01C68002C10D0124A134B92469946A3195B682B4205D0E368002B10D0381C414698472468002CF2D11CBC90469946A246F0BD094A074B1A8000F0F3F8DAE74B465246138000F0EDF8E368E7E7C046A00D002031
S284006080BC1100200580FFFF0480FFFF1F23034001229A40131C4009044A8000101840681840431E9841C0B27047C046A00D0020026808B5002A18D091420FD0131C01E099420BD01B68002BFAD10B6000E01A1C1368002BFBD11160012008BD054A064B1A8000F0A1F80020F7E70A6001600120F3E7C0460080FFFFBC1100200368002B81
S28400610001D01A680260181C7047C04610B500290ED004688C4213D0002C09D023688B4204D107E01A688A4206D0131C002BF9D1002010BD1A1C231C126801201A60F8E7246804600120F4E70368002B03D106E01B68002B03D09942FAD1012000E000207047C04610B5808800280BD115F01AF984B206F0DBFA0023C25A02335440082B6E
S284006180FAD1201C16F0C2FA0348012303731C3015F0C6F810BDC046E800002008B5024806F032FB08BDC046E800002010B5084C237B002B0AD0201C1C3015F0D9F8054B201CA3610023237306F01EFB10BDC046E800002065610000F0B5474680B480460F1C4E08041C0025002E0AD016F098FA013583B22370ADB21B0A63700234B542DE
S284006200F4D3FB0704D516F08BFA013F47443870002004BC9046F0BD08B502481C3015F0A7F808BDE8000020064808B502230380054B1B884380054B1B68002B00D0984708BDC046C0110020BC110020B8110020064808B503230380054B1B884380054B1B68002B00D0984708BDC046C0110020BC110020B8110020F8B546464F46C0B4BF
S28400628008AC267809AC257841607E2A27D8141C7F2A22D8E2B26400A046047891460122144047462743FCB24F46154094430381BB002543CB18067405700022994208D2CA70037844685B089B000431E3189942F6D30CBC90469946F8BD7F24DAE7034A034B1A80FFF7A0FFF3E7C0460180FFFFBC110020F8B54F464646C0B48846071C6A
S284006300914615F04FF8FB68051C3989C01AFDF749FFFE2808D8C0B2002806D139787B684E08B6009E1918E0FF2039787C684E08B600A619B44241D28446E3781A1C834200D962469B1AE37039787B684E08B60004349E19B442F0D3FD60B34230D20025DC78002C02D01A88424517D0002D02D0EA78A24200D91D1C0433B342F0D3CB0767
S28400638011D5002D18D043462B804B46AB703B7C0120EB700CBC90469946F8BD9A784A45E4D10020F6E7002D04D0EB780220002BF0D1E8E70220EDE70120EBE7231CCBE7CB07591E8B410220C01AE3E708B5FFF7EDFE08BD7047C04630B5144B144D198883B0002401222B880B4023411A4204D101340E2CF7D103B030BD01A813F050FDCC
S2840064002B880122A240934301A82B8013F04EFD084BA400E458002C01D0A047EBE7064A064B1A80FFF714FFA047E4E718010020AC0D002078C701000680FFFFBC11002000B583B013F0BAFE0CF03AFE0223002802D1181C03B000BD01A813F021FD054B1022198801A80A431A8013F01FFD0123EFE7C046AC0D002010B5FFF7ADFF2B2083
S2840064800021FFF7BFFD054C2388002B01D1FFF717FD2088431E9841C0B210BDAC0D0020026870B554425441051C0E1CE4B2002905D0281C311CFFF7FBFD201C70BD034A034B1A80FFF7C4FEF3E7C0460780FFFFBC11002038B5041C0D1C00280DD000290BD02368002B1ED09D420CD0154A164B1A80FFF7ADFE002038BD144A124B1A8004
S284006500FFF7A6FEEDE7201CFFF7F8FD2568002D07D0AB68002B0DD0201C696898470120EAE70120E8E70A4A074B1A80FFF790FE0020E1E7044B074A1A80FFF789FEAB68EAE7C0460A80FFFFBC1100200880FFFF0980FFFF0B80FFFF38B5041C0D1C002806D0002904D0291C201CFFF7EDFD38BD024A034B1A80FFF76BFEF4E70C80FFFF30
S284006580BC110020F8B51D1C0378041C0F1C161C012B05D000232774E66065612370F8BD00230370043014F0E3FEF3E708B50378002B04D101230370043014F0B1FE08BD08B50378012B00D008BD00230370043014F0CEFEF8E7C04610B51F4C0123227882B013420BD022789A43227022780223134323706368002B01D0012098472378D9
S2840066009A0713D5154B1B68DA0011D523780222934323702378042293432370A368002B01D001209847082015F024F902B010BD0B4B0122197801A80A43D2B21A7013F02FFC084B8022198852000A4301A81A8013F02CFCEAE7C046B00D0020204400411C0E0020AC0D0020002070470020704700B50B4B83B018600A4B0222197801A855
S2840066800A431A7013F00CFC074B8022198852000A4301A81A8013F009FC002003B000BDBC0D00201C0E0020AC0D002008B5034B01201B680021984708BDC046BC0D0020002070470020704700B50B4B83B058600A4B0422197801A80A431A7013F0E0FB074B8022198852000A4301A81A8013F0DDFB002003B000BDBC0D00201C0E002012
S284006700AC0D002008B5034B01205B680021984708BDC046BC0D0020002070470020704700B50B4B83B098600A4B0822197801A80A431A7013F0B4FB074B8022198852000A4301A81A8013F0B1FB002003B000BDBC0D00201C0E0020AC0D002008B5024B00209B68984708BDBC0D002008B50248062115F09FF808BDC80D002010B50A4C57
S284006780A5235B00201CE362243001230373074B636314F0C5FDE369002B03D02022A05CC0B2984710BDC046C80D00206D6700007047C04638B5174C2322227201222282154A051CA26128226261144A1448E26002226060628100F025F8201C15F08CF8C3B2002B01D058B238BD201C15F0B0F8C3B2002BF7D10823201C6381E56015F087
S284006800C5F8C3B2002BEED1201C15F08DF80020EAE7C046000E0020B16700001C0100201C350020094B984200D07047084B0222036010234371002303711121C37183720123827101724272C372EEE71C350020000C004210B5224C1023227882B0134238D12278012313422ED122780223134224D12278042313421AD122780823134211
S28400688010D12378002B0BD001A813F009FB154B8022198852000A4301A81A8013F006FB02B010BD22789A432270FFF757FFE8E722789A432270FFF725FFDEE722789A432270FFF7F3FED4E722789A432270FFF783FECAE722789A432270FFF74FFFC0E71C0E0020AC0D0020064A80231B031360054A0221107801431170044A0020136036
S2840069007047C046084400415344004118440041002803D18022024B12031A607047C04614440041002803D18022024B12031A607047C04618440041002803D18022024B12031A607047C0461C44004110B5144C0021201C402215F08BFE29230522E25410499822104815F0EFFD104C1822211C18310F4815F0E8FD211C303128220D48C6
S28400698015F0E2FD211C583158220B4815F0DCFDB62200215201094815F06AFE10BDC046C8280020C8C701006029002048C80100B02800208828002008290020C811002030B583B000236C460093A380FF23CAB299438023051C5B00994220D080239B00994214D000290AD0114A124B1A80FFF72FFC2B1C06CC06C3281C03B030BD0E4B5B
S284006A00D200D1186846082215F09EFDF1E70B4BD200D1186846082215F096FDE9E7084BD200D1186846082215F08EFDE1E7C0460A600000BC11002080CB0100F8C8010010CA010008B5FFF781FFFEF7BDFA08BD30B5041C83B00D1C6846211CFFF7B0FFFF239C4380239B009C4204D0044A054B1A80FFF7EDFB009B2B6003B030BDC046CA
S284006A8006600000BC110020F0B5041C83B00D1C6846211CFFF794FF01AB009F1E88002D13D0FF239C4303D080235B009C4206D1281C391C321C15F047FD03B0F0BD064A064B1A80FFF7C4FBF7E7044BC022D2011A80FFF7BDFBE4E701600000BC11002030B5051C83B00C1C6846291CFFF768FF002C0FD0FF239D4304D0094A094B1A808B
S284006B00FFF7A6FB6B469A880098211C15F01CFD03B030BD044A034B1A80FFF799FBE9E705600000BC11002004600000F0B5474680B41A4C82B0A588A846A94225D2A668B44603E0013189B241451ED24C00641824016444A57A2E1C16409E42F2D1002807D027680668B742ECD164684768BC42E8D101AB6A461980957158881B880004A7
S284006B80184302B004BC9046F0BD0422524201AB1A8000216A469171EFE7C046200E0020F8B52A4CA368834238D8C01A000A2178C2B2914238D9FF25284005025D19AB7F5B08022B07D023DD032B21D0AB7F01229343AB77F8BDE378002B01D0013BE370D023EF5826694C21B81BFDF7DBFAC3B2B7421FD362789A4222D9FF2318404C2306
S284006C00584336183378002BE0D000233370DDE72379002BDAD0013B2371D7E70C4A0D4B1A80FFF701FBD5E70B4A0A4B1A80FFF7FBFACFE7094A074B1A80FFF7F5FAC9E7074A044B1A80FFF7EFFAC3E7F829002082440000BC110020834400008444000085440000F0B5D623314C57464E464546E0B45B0092220568FF32E0500023A354F7
S284006C80C92252002B4FA3547A78CB235B00E25482B0C82252006E469420A11840000736FFF7F2FE3020311CFFF7EEFE3378002B36D05823EB5CDA0732D5C8235B00E65C3D2E31D85023E85A311C9846FDF7B8FACA23C0B25B00E054994643468246311CE85AFDF703FB002903D0534601334A46A3542423FB5CFF229A40D24301239A4359
S284006D009423FF33E2540C4A137B591C11739622FF32A35402B01CBC90469946A246F0BDC8235B00E65CCDE73D22E2543D26C9E7F829002088280020200E002000B50A4B01228240101C5A7B83B01043587301A813F0A6F8054B2022198801A80A431A8013F0A4F803B000BD200E0020AC0D002008B5064B011C9A7B181C013A10309A739B
S284006D80FFF796F90120FFF7D9FF08BD200E002008B5011C044868391430FFF789F90320FFF7CCFF08BDC046200E002008B5011C044820391830FFF77BF90120FFF7BEFF08BDC046200E002008B5011C044828391C30FFF76DF90120FFF7B0FF08BDC046200E0020F0B5454657464E46E0B43A4C82B0A268051C002A5ED0236A002B5BD048
S284006E006A68013219D12B68073316D90122002000210023FFF78AFE0522E846009086B2914633B29A46043318D10322524201AB1A8000216A46917134E0284B281C1A7801231A43914600210122FFF76FFE86B233B2E84600909A46043333D052465700A36857443F01D8193022002115F000FC5246D300226AD31800221A705A709A70C5
S284006E80DA701A715A719A71DA71A3684246DF1916802B686C683B607C60009B4C460193BC7201AB58881B880004184302B01CBC90469946A246F0BD094A0A4B1A80FFF7C7F99DE70122002000210023FFF72EFE6A4600901688A4E7200E00203001002022450000BC110020426938B5B023D458051C002C21D023780322934301221343E2
S284006F0003221340104A2370137B281C6370591C0723A370903003781173E3704378237183786371C378A3710379E3714379237283796372C379A37238BD044A044B1A80FFF786F9D7E7C046200E002081450000BC11002010B5041E0AD008480023E366211C1430FFF7A4F80320FFF7E7FE10BD034A044B1A80FFF76BF9EEE7200E00201A
S284006F8060450000BC11002038B5B023B425C1544359041C002B03D0201CB030984738BD034B044A1A80FFF753F96359F4E7C046BC110020F545000070B50E4CBE23228D061C113AFF3A92B2656ADB009A4204D9094A0A4B1A80FFF73BF9201C2430311CFFF766F8002D00D070BD0020FFF7A6FEFAE7C046200E002063440000BC110020C0
S28400700038B5041C0D1C002809D09423C358002B05D09122201CA5549130984738BD044B044A1A80FFF714F99423E358F1E7C046BC11002092450000426938B5B023D458051C002C12D02378032293430122134303221340084A2370137B591C63700923A37011739023EB5CE37038BD034A044B1A80FFF7EDF8E6E7200E002091450000A8
S284007080BC11002010B5041E17D001227023E25411227123E25403227223E254231CA033A367094B094AE3678023E25024227423E254201CFFF74EFF10BD054A054B1A80FFF7C6F8E1E7C046B1720000D970000033460000BC11002038B5041C0D1C00280DD0C8230948E55401228823E254211C2C30FEF7DDFF0720FFF720FE38BD044A8D
S284007100044B1A80FFF7A4F8EBE7C046200E002007460000BC11002010B5041E1CD00021201C882215F0A4FA01227023E2540F227123E25403227223E254231C9033A367084B094AE3678023E2501D227423E254201CFFF7FFFE10BD044A054B1A80FFF777F8DCE729730000D970000013460000BC110020F0B557464E464546E0B43D4FF6
S28400718082463A78002A13D0BC68A37FD80715D5551E631CEDB2FF332D025D1906E01A1C917F1E1B0133FF33C80709D5AB42F6D100201CBC90469946A246F0BD221C00260021D023D1505146022924D007D3032905D0294A294B1A80FFF73AF8E8E73B79B9789942E4D901333B71D17F0F25002329409360D1771371A419E37F0F2293432A
S2840072005146E37748000123184300232360A077B8688019CDE7FB7899467B784B45C7D9387B80460028C3D039690D780B1C8C464C330021002D07D10BE09C464C331D1C4C3D2D78002D04D00131C9B24145F4D1AEE74B4601336046FB700123037038208444D0256046505113713B7B8B42C3D19EE7C046F829002081440000BC11002096
S2840072804823002210B5C254436C041C002B03D0201C4830984710BD034B044A1A80FEF7D7FF636CF4E7C046BC11002044440000426938B5B023D458051C002C27D09823E95C2378032293430122134303221340124A2370137BE170581C6370291C0523A3701073A831201D102215F02DF9291C201C90310822143015F026F905F016FA08
S284007300011C201C08221C3015F01EF938BD044A044B1A80FEF79CFFD1E7C046200E002034460000BC110020426938B5B023D458051C002C27D09823E95C2378032293430122134303221340124A2370137BE170581C6370291C05231073A370A9311022201D15F0F1F8291C201CA0311430082215F0EAF8A823EB5C002B01D1237738BDF8
S28400738001232377FBE7044A044B1A80FEF760FFD1E7C046200E002014460000BC11002070B582B06D46203103350191041C291C0D20FFF769FB2B780199002B5BD10222A823CA5403225242AA23CA525023E25AAC230932CA54636DB020093B0B50228F5A70120A9A704C22A25CDA70221C4C3252781A714A22A25C5A71221C4A3252787F
S2840074009A714E22A25CDA71324A157B1D720B58032019786E1C81430C2001430F20014019702D480199C0231673C8505923E05C0199B823C854294B01991878B923C8545823E45C01980121E4094C40BA21445401980123BB2143540198BC2143540198BD214354937B0198013393730BF09CFB002002B070BD0122A823CA54228FAA23BF
S284007480CA525023E25AAC230832CA54636DB020083BFF220B505A704C22A25C9A70221C4C325278DA704A22A25C1A71221C4A3252785A714E22A25C9A71064A157BDD710B5808211970064801996E1CC0231673C850ABE7200E00205D78000088280020716D0000F8B55F4656464D464446F0B4456B061C2B780F1C580606D400203CBC2E
S28400750090469946A246AB46F8BD9B0707219B0F8846012B00D1A9E0654B1A78002A20D09B68013A5C1CD2B2FF341202A41803E00133FF33A34214D09A7F052AF8D11A1CCA32B18D12889142F2D11A1CD03212684046295C125C9142D0D00133FF33A342EAD10220FFF706FE0028C7D0D023C35802211A1C383A57705660C8228154B18DCD
S284007580CA2281520021D8228154D9228154DA2401220255DB240255DC24015545498C466446E0214450DD21425419780324A1438C46022189464946A34664460C431C702C785946A4080C40A400A1461C780C218C4349460C431C702C7819782409224010241201A14311439F220A401A702A781978D2097F24D2010C4022431A702A785A
S284007600D1062BD40822CC240255AA795A70E978AA7809020A439A70120ADA702A7994466A79614619715A716A7841469A71726B525CDA712A78D209012A23D0AF2F18D0CC23C35C011C03741B4814317C30FEF72FFD0220FFF772FB012050E7726B4446125D02215A70CC23C154E7E70122904652E7114B20309A7B01329A730BF094FA3A
S28400768001203CE72A7A920704D11A72035D01330355D3E7025D5946033202552C7A5A4614401A7A8A43224311401972C6E7C046F8290020716D0000200E0020F8B54449BC234F4646465B00C0B4CA1888235B00CA50842302225B00CA540A8E85235B00CA5286230B265B008C22CE54520000238B541A22FF328B548D22012452008C5466
S2840077001C22FF328C548E2252008B54314F902252008F501E22FF328C54BC2464000F5D0322022597432F43B14683263740B84680277E42474637430F5538240F5D7A24FF340F558F8EBD2464000F53CF8EBE2464000F5332240F5DBF2464000F5539240F5D8024FF340F55C02464000F5D97433D432A400A552D228C5C8222FF328C54F7
S2840077802E228C5CC12252008C54C62252008A5C4224FF340A558B620876AF2A0ED00E4850234A46CA547C305431FEF781FC0220FFF7C4FA0CBC90469946F8BD064B081C9A7B603001329A730BF0EEF9F2E7C046F829002021820000200E002038B54469051C002C2BD0B023E358002B21D0AC23E35C002B1DD0154AC023E2500222A823F9
S284007800E254AA88AA23E252B423E5507023EA5CBB23E2540123BA22A3540021B822A154297FBC22A154BD22A354201C0BF0BCF938BD074A074B1A80FEF70AFDDBE7064A044B1A80FEF704FDCDE7C046F5B1000069450000BC1100206845000038B5041CC43CB023E358051C98785A7800021043FF2109F0C3FB002803D1281CFFF778FAC4
S28400788038BD054AC023E2500022BD23E254201C09F07EFDF4E7C046716D0000F8B5384C8820211C4000FFF7EFF8211D35480C3CFFF7CEF8237B002B0BD0256900234C200021021C5A4351550133227BDBB29A42F7D81020FF30211CFFF7D6F8211C08312948FFF7B5F82678002E45D0A268771EFFB2531CFF333D025D19012001E001339E
S284007900FF33917F814391771A1EAA42F7D1237B6370012E32D9A770C822002352009420E3702371A1184000FFF7AEF8211C2A202531FF30FFF7A8F8211C8C20243140002425FFF7A1F8635D002B0CD0211C1C310E48FFF77DF8D8235B008420E1188000FFF776F8635D2522A25C5343E269D318236200232376F8BD237B6370A670CBE7D6
S284007980042A00200E0200000D0200000F02000010B5124C1248211DFFF75AF81820FF30211CFFF771F822786368002A01D0002B0DD091008918C9005918A8208B4205D21A1C2032283310709942F9D810BD054A054B1A80FEF728FCF8E7C046A00E00201202000029440000BC11002070B5041C0D1C00281CD09C23C358002B18D0002DD3
S284007A0007D09823E554201C9C239830E358984770BD261C90363068716809F087FF002802D000210AF04AFE301C08F061FFE8E7024A034B1A80FEF70BFCE0E782450000BC110020F8B54F464646C0B4274F051CFC69002C45D004209422A0268046914606E0042B37D0012B2DD02468002C23D0A35D022BF5D1AB7A023B012BF5D8AA69AC
S284007A80E969231CA83318689042EED15B688B42EBD101234A46381CA3541C30211CFEF735FB9523E35C002BDFD0201C0021FFF76BFA2468002CDBD1FB69002B11D00CBC90469946F8BDAB7A40468343012BCCD12A686968D5E7AB7A042BC6D12A686968CFE7381C083013F043FCE8E7A00E0020F0B5474680B4154FFC69002C22D01C2328
S284007B00DB1990259526984604E0013B63512468002C10D06359002BF7D1A35D002BF6D0211C4046FEF7F2FA201C0421FFF72CFA2468002CEED1FB69002B03D0381C083013F0EEFB04BC9046F0BDC046A00E002070B5041C0E1C002813D0C368002B10D00B4D281C2430FEF7C9FA201CE3682674103098476B6A002B02D00020FFF7DEF8D3
S284007B8070BD044A044B1A80FEF762FBE8E7C046200E00206B440000BC11002070B55E4D281C2C30FEF7AAFA041E00D17EE08826A35D012B05D9594B594A1A80FEF748FBA35D002B3AD1221C903213685268134366D09823E35C052B0AD801229A402221114234D11121114268D10C21114205D14C4A4A4B1A80FEF717FB70BD023B012BCF
S284007C0004D9494A454B1A80FEF722FB221CA0321368526813436DD0201CA9300CF0F4FB002804D1414A3D4B1A80FEF711FB404B88260222A255201C9847A35D012B24D0EB6A002BD9D00720FFF778F8D5E704229343012B04D0374A304B1A80FEF7F8FAB123E35C002B27D0221CB83213685268134321D1304A294B1A80FEF7D5FA04220A
S284007C80C823E25401228823E254CC23E358002B2AD0201CC8309847EB6A002BD3D1ACE7264A1E4B1A80FEF7BFFAA6E7244A1B4B1A80FEF7CDFA7AE7224BB9E70422934304D0214A154B1A80FEF7C2FA221CA03213685268134313D0201CA8300CF094FB002813D0194BA3E7194A0C4B1A80FEF79BFA82E7174A094B1A80FEF7A9FA8BE75F
S284007D00154A064B1A80FEF78FFAB8E7134A034B1A80FEF789FAB2E7200E0020BC110020024600000446000010460000124600001971000020460000214600000346000001460000B591000030460000857000000546000011460000314600003246000070B5041E29D06569AC22AB5C0B33DBB2AB54412B05D0144A144B1A80FEF754FA15
S284007D8070BDB026A9593622081C0B3014F01EFC0F4AA859137B591C117343700E238370C37A202293430370A16F0822033014F0CBFB201CFFF712FDE2E7064A034B1A80FEF746FACFE7C04625460000BC110020200E00202446000070B5041C463C051C6669002C32D02B78002B10D14525635D227B9A4216D3AC22B354226CB023F25012
S284007E00A369002B1CD0A369201C984770BD80256359002B20D0201C02219847301C09F013FEF3E7104A114B1A80FEF711FA635DAC22B354226CB023F250A369002BE2D10B4A0A4B1A80FEF703FADCE7094A074B1A80FEF7FDF9C6E7044B074A1A80FEF7F7F96359D7E7C04666450000BC11002067450000654500006D45000010B5041C36
S284007E80C43C002803D0201C09F0DEFD10BD034A034B1A80FEF7DCF9F5E7C04635460000BC11002038B5041E16D02379251CC43D002B04D1B423E8580378052B03D0281C09F0C2FD38BDAA238288EB5A9A42F6D108300EF0F7FBF2E7024A034B1A80FEF7B7F9E2E727460000BC11002030B5041C85B000280CD04368002B09D00268002AC6
S284007F0006D030229A5C042A0CD0012005B030BD0B4A0C4B1A80FEF79BF9636830229A5C042AF2D15D6B21686846082214F00CFBEB786A46684613720EF042FBE5E7C04693450000BC11002070B542683023D55C036886B0041C002B16D0032D02D8012006B070BD63686A465E6B2168F37868461372082214F0E8FA6A46137A022B09D001
S284007F8068460CF097FBEAE7064A074B1A80FEF75FF9E2E70C2DE2D1311D04A8082214F0D3FAEDE7F4450000BC11002030B5041C85B000280CD04368002B09D00268002A06D030229A5C0B2A0CD0012005B030BD144A154B1A80FEF73BF9636830229A5C0B2AF2D15D6B21686846082214F0ACFA2A79EB7812021A436B79E9791B041A4337
S284008000AB7968461B061A432B7A1B020B43697A09040B43A97A029209060B4303930EF0F9FAD2E783450000BC11002030B5041C87B000280CD04368002B09D00168002906D030229A5C0E2A0CD0012007B030BD1A4A1B4B1A80FEF7FBF8636830229A5C0E2AF2D15D6B21680822684614F06CFA2A79EB7812021A436B79E9791B041A43B6
S284008080AB796C461B061A432B7A1B020B43697A09040B43A97A029209060B430393287BE97A000208436082697B2174022901D009F050FA68460CF0CBFAC6E773450000BC110020F0B55F46564644464D46F0B485B001908846171C12F04AF882464B482023C35C002B00D178E049490C788946002C00D186E0816A53465B1A4A46029358
S2840081009368013C191C08315E1CE4B2009124027D22816AFF36361994460124524664428A1AA34600993B4D3B4C0392009705E001330131FF33FF31B3421ED0DA8B2A40A242F5D19A7F674652083A40012AEFD10A68002AECD0019FBB42E9D0029FBA4238D9039FBA180A605A4543D8934601330131FF33FF31B342E0D1009F41460029C9
S28400818023D14A46936A002B1FD0826A5446A11A8B4232D9D218121B49468A62BA4200D93A1C5A4500D95A46041C2034201C01211A4BFEF7E7F9201CFEF7F8F905B03CBC90469946A246AB46F0BD5A46BA42EBD93A1CE9E700220A609346C8E7041C2034201C01213A1C0D4BFEF7CCF9201CFEF7DDF9E3E75A469346B9E742464B469A6208
S2840082000022D1E701235B429B46B7E7A00E0020F8290020010F0000010200009D82000038B5184B184C9A7B013A9A73237E032B0ED0022B04D0154A154B1A80FEF708F88E21FF31635C002B06D12376A36238BD00232376A362FAE701220E4822762422825C4078013A9500AA180B4D5200AD6B013B521942436354A26200200121FFF75C
S28400828021FFE4E7200E0020F829002052440000BC11002088280020A00E0020F0B5454657464E46E0B43B4D2B78002B6BD0012339483A495B42984600248146384F394E8A4604E001342B78E4B2A34222D9AA682302D318DA8B3A40B242F3D19A7F7D21520811400129EDD149469868C96A401A98602CD1D97F0F20814304200143D977A3
S284008300032A2DD00120FEF719FD01342B78E4B2A342DCD8AB6A002B06D04846C06A1B1AAB622CD0984528D84146013113D04C462034201C012142461B4BFEF723F9201CFEF734F91CBC90469946A246F0BD8045B8D98046B6E748462030FEF731F9F1E752462423D35CFF229A409423D243FF33EA540120FEF7E2FCC7E79846D4E7022023
S284008380FFF79CF9D0E701235B429846024B9946C0E7C046F8290020A00E002088280020010F0000010200009D820000F0B557464E464546E0B4314B061C5C681B788A469D00ED182023C35CED006519002B4DD1AC423BD2428910231B189046077A994604E0AA2B07D02834A5422FD9231C20331B78A42BF5D1237ABB42F4D16389434571
S284008400F1D1226833689A42EDD1626873689A42E9D1327B237B9342E5D1012B0FD0032B1DD1327E237E9A42DDD1211C48461031082214F063F80028D5D1201C0AE0328A238A9A42F9D02834A542CFD820235246F25400201CBC90469946A246F0BD084A084B1A80FDF7E0FE0020F3E7064A054B1A80FDF7D9FE0020ECE7C046A00E0020A8
S28400848026440000BC1100202544000070B52F4D281C1430FDF732FE041E24D07423C35C002B20D0A06F0DF0E9FA002825D003882749A380274B602023617423E25C7123E35CCB18997C0023084221D19B18201C2373083009F0A6FA6B69002B02D00320FEF72CFC70BD1C4A1C4B1A80FDF7B0FEA06F0DF0C3FA0028D9D1E16E00290ED056
S2840085008026A359002B19D0201CEC219847E3E77323E15C11230029D8D10923D6E703225423E254A36F201C19685A680C4B21666266E36650300DF097FACDE7074B094A1A80FDF785FEA359DEE7C046200E00208828002041B2000061450000BC110020916D00006D4500005823C35C021C0020D90708D5190705D55023D35A3D20984241
S2840085808041404270471907FCD55023D35A5120984280414042F5E7F0B54E4645465746E0B4AE4AE023CA500222C823CA54028FCA23CA525923C25CD823CA540022D923CA545823051CC05C0E1CC00901214840DA2170540122DB217254DC217254EB5C84B05B06DB0F04D12A8F9D4991425B41DAB2DD23F254281CFFF7B6FF002840D063
S284008600984CC8235B00E35CCA22994652009223FF33A25CE35C013A934200D115E16F460F373020391CFEF72FFA3B78002B00D102E15823EB5CDA0700D4FDE08A4B8B4A1A80FDF705FE30239A463A20D8235B00E25898461018C8239222FF325B00E35CA15C4A4659436B6D591813F06DFF4A46CC230A32F25441466458D0235444F45014
S2840086800CE05023EA5ACC230832F2546C6DD023083C00226F46F45091460F372278EC23134023702A8F6E4B9A422BD823780C229343237023782022934323705823EB5C59072DD42378402293432370281CFFF74BFF002841D0227880235B42134323709222604BFF32995C002900D09BE0227A03218A4301210A432272CA2252009B5CFC
S28400870063722EE023780C22934308221343237023782022934323705823EB5C5907D1D52278402313432370F37F0F229343904601221343F377281CFFF716FF00286DD14B4B5A78F37F414612010B401343F377281CFFF709FF0028BDD123787F22134023704823EB5C281C63704C23EB5CA3702B1C4C335B78E3704A23EB5C23712B1CDE
S2840087804A335B7863714E23EB5CA371FFF7ECFE002836D0334A9623FF33D35C354AE37190463020391C3468FEF76EF93B78002B0ED14246937B301C0133203093730AF0F3F9002004B01CBC90469946A246F0BD5823E35CDA07ECD53068FFF7C5FE002817D15023CC22EB5AB25CD31A4046311C337414317C30FDF75BFC0220FEF79EFAD1
S284008800DFE71C4B191C98461B7B5A1C0A73E371C7E7CC23F35C49465B1AE7E7CB23114A5B00D25C8EE7217A032081430220014321729B5C637294E70C4A0B4B1A80FDF707FD22218A462C2000E749464B435022AA5AD31ADBB29946E1E6C046716D0000F7FF0000F8290020BC1100205144000088280020200E002008B5044AD6235B00BE
S284008880D1580868FFF788FE08BDC046F829002003789A07920F0AD11A07920F0921032A03D0DB090821012B14D0081C70470221012AFAD00021022AF7D10221DA06F4D4DB090821012BF0D1037A0B219B07ECD10921EAE7017A89074B1E99410931E4E710B5041E10D06023C154002A16D012684266E36D002B13D0201C60309847201CB8
S284008900FFF732FE002800D110BD084AD62300215B00D1500120FEF711FAF5E74266E8E7034A044B1A80FDF77FFCEDE7F829002054440000BC110020F8B5041E09D0AA23202543550668476803F0F0FE0268B24202D00025281CF8BD4368BB42F9D182236355237A013BDBB2FD2BF2D8237B032B09D0012B02D0A6236355EAE7002220234C
S284008980E2540125E6E7237E0025013BDBB2FD2BE0D8236962691343F0D1034A034B1A80FDF742FCD6E7C04610440000BC11002010B50C1C002807DB064B80B29B88834202D96007C00F10BD034A044B1A80FDF73FFCF6E7200E002026450000BC11002030B5164D83B02B6A041C002B05D0002803DBA98882B291421DD8114A114B1A8025
S284008A00FDF726FC286A6200A96812191201E4008A18215A13890C1CFF22090A144008021A401204204310431B0A00021B06000A184303B030BD181CE5E7C046200E002020450000BC110020F0B583B0041CFFF7C7FF87B27A1E1A4B01AD019092B26E889A4219D8002E11D0164B0137196AE200BFB2575262009B68141924011C192F8036
S284008A802681013E6E80019803B0F0BD0E4A0F4B1A80FDF7DDFBE7E70A4B0122186AE1000A522A8062009B68141901362401B6B21C19268120200021FDF7A4FAE1E7C046FDFF0000200E002028450000BC11002070B5114D03682C69061CA34214D3181B4C21FBF75FFB6A78C3B2061C9A4205D80A4A0B4B1A80FDF7ABFB2C69FF200640DF
S284008B004C207043201870BD054B064A1A80FDF79FFB33682C69E2E7F829002048440000BC11002047440000F8B5061C48780B78000218438B78151C1B041843CB780A791B0618434B791B0213438A79C979120413430906194308F0E9FE041E2DD00378012B03D00120052B21D0F8BD01273068391C08F06FFF002821D0C02285500221D7
S284008B80A8228154A188AA228152B4228450BA21002242540123B8214354BC214254BD214254BB22875409F0FFFF0020DDE70DF07DFD47424741FFB2D9E70120D5E7034A034B1A80FDF730FB0020CEE709460000BC11002038B54468051C002C08D00068002805D03023E35C0120412B0AD038BD164B174A1A80FDF72BFB3023E35C012049
S284008C00412BF4D1134B29689A68DB68501C19D00868904201D00120E9E74A689A42FAD14023E35C0120002BE1D0616B36223023E2540B1C0B336363281D0331064AFFF773FFD4E7581CE3D1EAE7C046BC1100202646000088280020A57E000008B503F065FD064B026899684068DB684A405840104343425841C0B208BDC04688280020D1
S284008C8038B54269B023D4589823C15C23780322934301221343032213402F4A2370137B051C6370581CE1700523291C1073A3701022201DA13113F047FCA023EB5C2375AA88264B9A421DD900236375A375E37523766376A376E3762377214B9A6801321BD0FFF7BBFF02281AD003F01FFD011C201C1D30082213F027FCB123EB5C002B01
S284008D0018D138BD201C291C08221530903113F01BFC134B9A680132E3D1DB680133E0D1201C1D300F49082213F00EFCB123EB5C002BE6D008F0F4FE0028E2D0C023EB5C002BDED074232522EA54074BAB612B1C9033AB67D5E7C046200E0020F7FF00008828002090280020617D0000F8B5164D281C3C30FDF7C2F9041E1ED0261C231CD9
S284008D808033A03619685A689C2731607260A8230022E254E359002B08D0301C9847EB6B002B02D00420FDF7C9FFF8BD074B084A1A80FDF74DFAE359EFE7064A034B1A80FDF746FADAE7C046A00E0020BC1100205145000052450000F8B54F464646C0B49946244B041C5E681B7888469D00ED18ED00171C7519002839D0864231D82834DC
S284008E00A01B2821FBF712FA002904D01A4A1B4B1A80FDF71DFAA54205D81DE0AA2807D02834A54218D9201C20300078A428F5D1267ABE42F4D163894345F1D14B4622681B689A42ECD14B4662685B689A42E7D1A428E5D1201C00E000200CBC90469946F8BD074A054B1A80FDF7F2F9C7E7341CD1E7C046A00E002024440000BC110020DE
S284008E8023440000F8B55F4656464D464446F0B40E1C051C03F04AFCF823071CF458002D2BD0A8229346002827D04C2291464E23F822984692464B46E95A4346EA5C201C3B1CFFF789FF041E33D0EB6A002B23D0237B5246B450032B24D1201C10300CF0CDFD002815D0227E4823EA540388311C2B87281CFFF750FB05E0194A194B1A8043
S284008F00FDF792F9A8203CBC90469946A246AB46F8BDA9239B46CEE7227B9346032A0AD0F823F450238A281C2B87311CFEF738FAE9E75846E7E7201C10300CF09FFD0028C6D15B462B75226963692A626B62064B281C1030EB620CF087FD0020D3E7C04614440000BC1100206D8F0000F8B5174F061C3A78283EBC680025002A0BD0A37F95
S284008F80D90702D52368B3420BD001350134EDB2FF349542F3D10E4A0E4B1A80FDF758F9F8BD211C301CFFF76DFF011E03D13B78AB42F5D8EFE7301C0022FFF791FC201CFDF7EEFD0120FDF7B9FEF0E7F829002015440000BC11002038B5051C0C1C002810D000290ED00023F822EB62281CA350211CFFF747FF051E02D0201CFDF7D0FD75
S284009000281C38BD024A034B1A80FDF721F9EAE713440000BC110020F0B5056883B0061C0F1C141C002D58D0002C22D1CE2F32D020233A1C9A43D02A2DD0D12F04D15823EB5C0324DB0927D16C4607343020211CFDF71AFD2378002B05D058242B5DDA0701D59A063FD5F023F35802246B666023EF54022C17D0032C21D0012C01D003B08F
S284009080F0BD2248311C14317830FDF711F80220FDF754FEF3E70324F023F3586B666023EF54022CE7D130683023C35C002B07D1EB62281C311CFFF7E5FEA828DFD1306860232A1CE95C6432FFF70AFC301CFDF767FD0120FDF732FED1E70D4A0D4B1A80FDF7B6F8A0E708F01BFD002802D02B5D9A07B8D4281CFFF737FA0028B3D1302321
S284009100EB5C012BAFD00124C6E7C046200E00204F440000BC11002010B50378002B0BD1064C0220221C6C321370FDF707FEA06E00210222FFF770FF10BDC046200E002010B5041C002B0BD00068191C0022FFF7C7FB201CFDF724FD0120FDF7EFFD10BDCC23C254D023C1500122DB23C254044B20309A7B01329A7309F016FDEFE7C046C9
S284009180200E002038B50A4C051C231C00226C3302201A70FDF7D2FD2B78A06EA16D5A1E93415D345B002278FFF7CAFF38BDC046200E002070B5041E39D08822201C002113F056FA01257023E55410227123E25472230222E254B123E35C002B1BD0231CB833A367154B164AE3678023E25074262523A35508F094FC002808D0C023E35C69
S284009200002B04D0A35D0B33A3557323E554201CFDF7A0FE70BD231C9033A367074B084AE3678023E25025227423E254EFE7054A054B1A80FDF70CF8BFE7C046818C0000D970000022460000BC11002070B5174D82B0041CEE6B1ED07C22002113F008FA281C211C3C30FCF723FF2220FF3001A9FDF70AFC019BFF229202934205D89B0A04
S2840092802371002E0DD002B070BD094A094B1A80FCF7CAFFF7E7084A064B1A80FCF7C4FFF1E70420FDF74AFDEDE7C046A00E00205C450000BC11002050450000F8B5041CFFF73AFB002800D1F8BD201C0021FFF76DF800280DD0201CA621FFF767F80028F2D0A4222023C25410200021FCF78AFEEAE7002C03D02023E35C002B04D01C4AD4
S2840093001C4B1A80FCF7A4FF1B4B1A78002A16D05D682023EB5CA82B15D0013AD2B291002B1C89182833C900591806E01D1C28331A1C083A1278A82A05D08B42F6D1AE222023E254C0E72026A427AF55002C09D0A35D002B06D1281C211C282213F0F4F8AF55C1E7054A034B1A80FCF75DFFBBE720440000BC110020A00E0020274400009A
S28400938010B5041E03D0104A5368984213D20F4A0F4B1A80FCF75CFF2023E35CA42B06D0AA2B04D00B4A0A4B1A80FCF751FFA8222023E25410BD127891008A18D2009B189842E4D2E8E7C046A00E002021440000BC1100202244000010B5041CFFF7ACFA002800D110BD201CA421FEF7DFFF0028F8D0FFF7C5FF10200021FCF703FEF1E7C9
S28400940000281BD00F4B283059681B789A00D218D2008A1890420FD22023C35CA42B08D109E02830904207D2031C20331B78A42B01D0AA2BF5D170470020FCE7014B5868011CE2E7A00E002010B5041C0548211C1C30FCF72DFE0023E3620120FDF76EFC10BDC046200E002010B5041C0548211C1830FCF71DFE002363620120FDF75EFC76
S28400948010BDC046200E002070B588B0384A05AC08202923FF30211CD55CFDF7F5FA1A2006A9FDF7F1FA069B9D4206D35B001A2006A90693FDF714FB069B22782D4E51008A182B35356455436C465B1915346D4608201635211CB363FF3001232B70FDF7D3FA2420291CFDF7CFFA1A2007A92478FDF7CAFA2B78326C0798002B31D06100FF
S284009500FF2932D84A43002412181B48013B1118DBB264185200002BF7D12B706D46620AEB75E40517351220611E8C41FF30291CA4180793FDF7A8FA8220800007A9FDF787FA301C443007992A78FF2C0BD8012301930023E4B20293802300949B00FCF78BFE08B070BDFF24F1E7FF21CAE7C046C8280020A00E0020FF01000010B5002869
S28400958046D1274A0023D36193611361254A264C9365D0220A215200A1502449D4225200A150D22201215200A1542E22A3543922A3542C22A3542D210022625432216254382162542276201C8022A386E3862386A36200215200403013F04AF8A0235B00E01800214C2213F043F82523E25C2423E35C01325A430021E06913F039F8BC23AD
S2840096005B00E21888235B00E250FFF73DFF10BD13F086F8024A002310739373B2E7C046200E0020A00E0020F829002079880000F8B54D465F4656464446F0B4051E05D06D4C061C606A103EB0420AD06B4A6C4B1A80FCF7E9FD3CBC90469946A246AB46F8BD3379192BF1D1238DE022D200934254D080229200934204D0624A604B1A8066
S284009680FCF7E6FD6049002788465C230120CF546773FFF773FFFEF701F9404643460830DF616761E76211F063FE80234046DB000361564B6767836101230375231C6C33A767E7671F700BF0F7F8FEF761F9A288002A0ED0013A92B2A168500082180B1C120138318918083300221A8030338B42FBD1474B201C23852B7824303376FCF7C6
S284009700FDFC7369002B70D0281C08309847636A002BA0D00020FDF711FB9CE71C21E76909198846002F0AD04046FCF7E7FC381CA3210022FFF7D4F8E769002FF4D1354A10231B1991469B46334A92462769002F35D0391C5846FCF7D9FC484683680178FA1A120A9046D2B2914215D9FF2241460A4012029B1818689B7F5B08012B19D0A2
S284009780022BE3D0002B0FD0244A1D4B1A80FCF75FFD214A9246D9E7194952460A80FCF757FD48468368E1E73A1C39790C32FFF797F8C9E7A7210022FFF792F8C4E748460378002B07D15DE7484601370378FFB2BB4200D856E74946896838020818837FDA07F1D5FDF7DCF9EEE7054B0C4A1A80FCF72EFD736987E7200E00206644000007
S284009800BC11002067440000A00E0020F17A000032030000F829002042440000434400006944000038B5354D6C6A002C46D023798A2B21D0C52B16D0192B05D0304A314B1A80FCF705FD38BD2A8D88235B009A4249D0E023DB002B852B4B201CE360083008F01EF9EFE72A8D284B9A422CD0201CA321FEF76DF9E6E72B8D254A934216D052
S284009880C222D200934212D0A3232373281C2430FCF734FCA368002B29D0201C0C3098476B6A002BCFD00020FDF748FACBE7174B2B85FFF7E9FD00232373E7E7154A114B1A80FCF7C5FCB2E7A023DB0012482B85022323812030FCF773FE00230120AB73FDF72CFAAFE780239B002B85B4E7054B0A4A1A80FCF7ACFCA368CEE7200E0020F4
S28400990065440000BC110020319600003F0400003203000064440000A00E00206A44000010B58368021C58789B7886B01B0203AC03434020208001A860600120A0600C4881420ED08B4211D06B4619811E20211C0192FCF757FBA06843425841C0B206B010BD1BB20120002BF9DAEDE70120F6E7FFFF0000F8B54F464646C0B4051E38D0E1
S2840099801F4B20221F4E002491469846002C1FD02468002C23D02379002BF7D1A268002A21D0A98F201CFFF7BBFF0028EED0A368288A1F78391C07F021FB0028E6D04A46AF54E368002B05D0281C9847002CDFD13468DEE70C4A0A4B1A80FCF725FC0CBC90469946F8BD094B42461380FCF730FCD7E7074A024B1A80FCF72AFCC0E7C0463F
S284009A00BC110020200E0020324400003144000030440000F0B55F46564644464D46F0B48846476B061C818D7F4899B0FA794430FCF760FC002863D07A78531EDBB2FD2B68D900242823F35C02AD012B00D002232B73738D2B827A782023EA54B08D0CF04FF8002800D1B5E003222123EA540168426829636A63B38D40202B85F38D482150
S284009A802B87BA793A23EA547B793A791B021343AB87FB78BA781B021343EB873023F25C8946131C0A3B9BB22B5282460020011C484629543878C00938D1131C083B9BB250462B52D31A726B4046D3186B644923E8544022B15C4A23E9543823F15C4B23E954F16B3923E964F15C5023E9543B78DB09012B2ED0002C21D0E368281C98478D
S284009B00301CFDF7BDFB19B03CBC90469946A246AB46F0BD454B1C6805E0A0680378934200D18FE72468002CF7D1E9E7387A8007C8D1131C093B9BB251466B52C2E72823F35C012B6BD07B78FF2B47D0281C0CF0E5FFD5E73B7A9B079B0F022BCBD1344B181C99461B6A1978A9522C221978825C8A460120012A29DD4022291C9346221C56
S284009B8055460197B246041C0E1C90464F46FF694A4678192527D15DD26961434F4651181A5D12F0D1FC3B6A5F461A191078F15B01344118F153127849462C27AD18CA5DA242E3DC019F351C444656464946C969696490E702222123EA544CE72020134F00248046002C18D02468002C00D187E7A1680B78002BF5D02379002BF2D1A98F72
S284009C00201CFFF78DFE0028ECD0A268404613782B54E168281C8847E4E73C68E5E7281CFFF7A8FE6CE7C046A00E0020200E0020F8290020F8B55F4656464D464446F0B4456B061C6A780F1C531EDBB2FD2B20D8C64B1C6800E02468002C0CD0A06803789342F8D169792B7909021943201CFFF757FE00280ED12B780022DB09012B3FD042
S284009C80002A37D101203CBC90469946A246AB46F8BD00242978CB09012B35D001224806ECD50907890F02294CD0B18DB04A914248D8002C03D0217900220029DED1301C391CFDF70FFC01235840C0B2DBE72C222421A25C695C581ED31A8B4200DD0B1CC318DBB2013A9846934200D019E10320FDF7E4FC301C391CFFF78CFE0020C2E70D
S284009D002B7A9B07BCD002E02A7A9207C6D03023756B984CF25C2423697AE35C8846002BB0D00A3AD2B29246227E9146012A0BD0002A74D0032A6CD98F4A904B1A80FCF787FA9FE7002299E72B7A9A07920F022A01D0002996D19B0894D12C23E35C434500D28FE7228EB38D9A4200D08AE73223E25C6B789A4200D084E7EB78A978A28E00
S284009D801B020B439A4200D07CE76B792979E28E1B020B439A4200D074E73823E25CAB799A4200D06EE73923E25CEB799A4200D068E72D23E35C724D9B462423EB5C99465B464B44984500DB5CE740464946FAF72DFACAB2C34509D941468B1A2D21635401214B46494299402E23E1542523E05C41464843E369716B18188946002399B272
S284009E008A4548D09C46CC446146897AC1540133F5E75C4A594B1A80FCF71AFA32E7287A8346012800D02DE7994200D92AE72522A25C924500D925E701325A430021E06912F016FCC6235B00E754424659462C23E2542176B38D484623866A783223E254EB78AA781B021343A3866B792A791B021343E386AA793823E254EA793923E254D2
S284009E803F4B00215A788E23FF33E2542D23E05488462B7A5FE7236A5146404619542D23E35CA146984525D00121081C90402E228446A05C924662461043C2B250462254FF2A00D103E72C22A25C013A904548D02422AA5C013A9B18984522D00A235A43294B00209B6BD2186B785A43A262FEF7E9F8C7E62C21615C091AC9B28C46242137
S284009F00685C6146844500D9011C0120C9B24042884084462E2082464946604651440870C2E70220FDF7CAFB2E23E35CFF2B00D0A8E62D222423A15CEB5C5918A1542C22A15C42460139891AC9B20A1C994200D91A1C0123D2B25B4293401A1C2E23E25490E60220FDF7AAFB8CE6C046200E0020F7FF0000F829002053440000BC1100200C
S284009F808828002040440000A00E002038B5051E13D0A62303748368002B0ED01A78531EDBB2EF2B09D80A48046800E02468002C04D0A1680B789342F8D138BDE9684B424B412B71291CFCF773F82C74F5E7C046200E0020002801D000687047014B1868FBE7C046200E0020F0B58FB0002859D00378032B01D00FB0F0BD438802AC238075
S28400A0008268C368A260E360037C466A2374438A63828269C369A261E3612823C25C2C23E2542A23C25C2D23E2542023C55C062DE1D933789A07920F032ADCD15B09DAD17378002BD7D16F4607371420391CFCF71BFD32783B78D206520F9A42CBD1B3789A07920F032AC6D11A09C4D11B079B0F032B1DD0B31E0722997958790902014356
S28400A0806184D9791B7AAD1A1B020B4323842423E554104BB2181B6EA262002BABD0201C9847A8E70C4A0D4B1A80FCF7BDF8A2E701232374082D9ED93079F37800021843FF21208306F09AFF002800D193E7331C0922D1E7A00E002045450000BC11002010B5234B84B09A68002A33D0002838D04368013303D1036801AC073311D80123CF
S28400A10000210122FCF712FD03B201AC0190043307D0029002AB58881B880004184304B010BD0D220D2300200021FCF7FFFC83B21AB203900190043204D02380019B029302ABE8E70020002105220523FCF7EEFC0190DEE70621494202AB198069468A72D9E70522524202AB1A806A469072D2E7200E002070B5D4B286B0061C0D1C009245
S28400A1800193AF2C0FD06B460222985E01AB1978FEF70EFC184B5D19002824D1A87CC006C00F06B070BD002817D0311C082204A812F0CAF904A8FFF793FF039000B200280BDB6B46997BFEF7F3FB0B4B5D1900280DD0A87C8007C00FE3E7074B01205D19AB7C1840DDE7A87C0007C00FD9E7A87C4007C00FD5E7C0468828002070B588B029
S28400A200041C0E1C0092019300282CD03023E35C022B10D9626B95786B1E0D2B0BD8052D01D0002E25D0301C291C009A019BFFF7A1FF002802D1012008B070BD1049AD00491903A8042212F07FF9039B002BF2D0009A0594069204966A46918806AA918004A89847E8E7074A074B1A80FBF7F0FFCCE7A08D0BF044FC061ED4D1DBE7C0464A
S28400A280F0CD01006B450000BC110020F0B55F4656464D464446F0B42823C45C97B0051C0F1C466B012C11D0022C66D1327893079B0F012B00D104E1022B66D0002B5CD11207920FD3B29046032B04D0281C391CFFF7B0FC52E0BB48A98D327A4430FCF709F8002849D03023EB5C082B45D9694601230B73B37872781B0213430B82A88D12
S28400A3000BF0FEFB2123002800D110E141466C46E154026843680C920D93AB8D69460B85EB8D6C460B87F2793A23CA54B37972791B0213438B873379F2781B021343CB873023EA5C4023093ACA526A6B0021093211924822A1544922A754EA5C4A23E2543823EA5CEF6B4B23E25413973923EA5C68465023E254FFF7FDFA012017B03CBC79
S28400A38090469946A246AB46F0BD8F48027884681202A2188446A242EFD98C4F8C4903E00134FF34A242E8D9E38B3B408B42F7D1231CD0331868236880461B8FA88D9842EED14346F079DB799842E9D1737930791B029A4643461B799B4643465B791B029946534603439A4658464B4618438245D6D1F378B0781B029A4643469B789B466C
S28400A4004346DB781B029946534603439A4658464B4618438245C3D1434670789B799842BED14346B0795B789842B9D1A07F40088046012800D1ADE00328B1D1C9235B006146727ACB5C01209A4297D1614B24215D5C021CAA405542B27A2A43B272E27F0F25AA4303252A43E277B27AFF2A61D0D2439424FF34D2B267463A555D5C041C28
S28400A4800023D9B2A94213D2181C161C064101332642F6D0012383409A4394236046FF33C254C9235B00C35CC9189223FF33C154D6235B006246D1580868FEF76DF801205CE7B378013B0D2B00D956E753061FD43C48A98D72784430FBF70CFF031C0120002B00D14AE76C6B23789B06DA0F002B13DB6F46AF2301213B70494201AB7980AF
S28400A5001A70281C0021009A019BFFF777FE35E7FCF7E8FF0028DBD12FE72F48291C7430FBF7C6FD0220FCF709FC002026E76846C454F2E65A5CCA21814065466E5CC9218140695C4D1E701A904200DD101C28189225C0B2FF356746013E7855B04226D08918C920C9B2400039545878CB235B00F854FF2393400124DA439423A243FF33DB
S28400A580FA54D623A3407955F9580868FEF704F8201CF3E6E37F0F229343032213430021201CE3770A1CFEF737FD4046E6E6201CFCF758FB0021201C0A1CFEF72DFD0120DCE6C046A00E0020F8290020010F00000102000088280020200E0020F0B54D4644465F465646F0B4CC4D8823288D87B080465B00984201D100F0DAFB05AAC84F5F
S28400A6009346281C1030FBF779FD041E00D184E0BB683978E61A360AF2B2914200D8B2E3FF22164036029E19C223DB00984500D1A8E0A023DB00984500D1A3E0B37F5B08012B00D1CFE000DCAAE0022B00D1B5E0032B00D0ACE0F37F1B071B0F012BD0D19223FF33FA5CCA235B00FB5C013B9A4200D1A0E3AB4924230091CB5C9C46002BFF
S28400A6801ED09423FF33FB5C9946DB0701D500F0E5FB624649460123B1469A46A4460E1C019207E0191C301C084154460133044200D091E30199DAB28A42F3D364464E461A205946247CFCF7DFF9974B05991B6C5C43009B64185A78F37F1B09D31A9C40A146D62464003E5912F01AF8C305DB0D4B44B3603B590F21DA7F8A4302210A431A
S28400A700DA77385900218268FDF7DCFC281C1030FBF7F4FC041E00D07AE718268348804900235C4676192380B0468246894602274046FBF7E3FC041E00D1FFE0626A2E8D002A00D1A8E07A4B676B9E4200D1B4E03B789A07920F012A00D1AFE04122A25C002A00D0AAE0201CFCF78AFD3823E35C5A4613703923E35C3B2059465370FBF7B2
S28400A78041FCD4E7B37F5B08022B70D0221C30680C32A321FEF7A4F8201CFCF701FA30E7002B05D12179301C0022FEF735FC28E7604A614B1A80FBF74BFD22E7301CD030FEF786F94278061C40689146002800D11EE34946FFF71EF9201CFCF7E1F90120FCF7ACFA0DE7F37F1B071B0F012B00D007E7207C3368019059461A209A46FCF7BB
S28400A80043F9494B05991B6C464A029303910092F37F52781B092179D31A9946002900D1CCE2CE2900D11CE3F02900D119E3D02900D116E3D12905D158235246D35CDB0900D00EE311F06CFFFA23C2059B004C46D20DA340D218B260F37F0F218B4302210B43F377301C0021FDF72CFCC9E6301CD030FEF72DF94378814640689A460028A7
S28400A88000D1E0E22379002B00D07FE74A4650685146FFF7BFF879E7626B137899069B07C90F9B0F012B00D111E1002900D012E11F4B171C9E4200D04AE73B785E0600D4E8E248464E46C278317900785118884200DC48E77178914200D844E71A07920F012A00D13FE79907890F022900D13AE7002A00D037E7980600D599E29B0704D17D
S28400A9004023E35C002B00D189E2201CAF21FFF7BDFC002800D129E725E7C046200E0020F829002088280020A00E0020AD6D00003F0400004E440000BC1100202B8D9C0700D4F9E0C34EC44FB246EC69002C10D0E06A002800D18EE0D6235B00FB58002B1DD0201CFDF700FE002828D02468002CF7D12B8DA022D200934200D1A7E1C222C9
S28400A980D200934200D1A2E1B44A934200D106E107B03CBC90469946A246AB46F0BD201CFDF7E2FD00280AD0D8235B00FB58002B00D1A0E05823E35CAA26580708D55023E35A522B0FD95823E35CA02619070AD4281C1C30211CFBF799FB201C311C0022FDF77EFFB1E74E23E65C002E08D02B6800E01B68002B3CD09A681078B042F8D121
S28400AA005823E25C30235207D20FE35C002A04D0022B00D1A6E1012B2BD0991E012900D8A6E1002B1BD1002A00D09FE0201CFDF79BFD002800D0ACE15823E35C5E0700D48DE00120FCF796FB061C854880465AE0844B854A1A80FBF7E7FB3023E35C012B4BD0002BE2D0022B00D113E1032B00D104E1A626ACE73026A35D032B00D18FE1D5
S28400AA80022B00D068E730205946FBF7FDFF5A461378002B00D15FE75823E35CDE0700D45AE7208F0BF02CF8002800D054E7238F23833023E35C201C23756C4B1030E3620AF0D2FF281C1C30FBF718FB3DE79378052B00D1E9E6A08D0BF012F8002800D031E6A38D201C238253462773636208300AF0BAFF1CE6AA266AE70020FCF73AFB0D
S28400AB005B4A061C9046002E00D132E7281C1C30211CFBF7FBFA3460201CFDF725FD002806D1311C201CC047061E00D10DE754E7301CFCF797F8F4E7EC69002C00D119E72E1C1C36211C301CFBF7E0FA201CA3210022FDF7C5FEEC69002CF3D109E70020FCF708FB3E49061C8846CCE74C23E35A994601F0DBFD8046002800D168E7002012
S28400AB8003E0037B012B00D173E74946321C4346FEF722F90028F4D13023E35C5FE72E4E3378002B00D1F3E6324B33487D210024994680468A4605E001343378E4B2A34200D8ABE0B2682702D719FB8B484603404345F1D1BB7F52465B081A40012AEBD1F97F0809009000D10CE10807000F0128E2D00F2081438B468446012158460843DC
S28400AC008346009861460F3008400001009058460840011C00980143F977012B00D12CE1032BC9D19423FF33F15C9143F154C9235B00F25C9223FF33F254CB235B00F25C013AF254D6235B00F1580868FDF7A4FCB2E7C04699850000F82900203F040000D98F0000BC11002012440000C96D0000A1730000010F000001040000201C4030CD
S28400AC800AF0FCFE002800D1DBE00388022223873023E254201CFDF767FC002810D15823E35C5E0706D50120FCF764FA061C7C48804628E70020FCF75DFAD046061C22E70320FCF757FA764B061C98461BE7754E00243278002A05D121E001343378E4B2A3421BD9B1682702CB199A7F032AF4D1DA7F1207120F042A01D0022AEDD118681F
S28400AD00A3210022FDF7ECFDB2680134D019E430FBF746FF3378E4B2A342E3D82B8DA022D200934200D033E6AB7B002B00D02FE66C6A2379C52B04D05B4A5C4B1A80FBF787FA238902229343238100D020E60020FEF714FCC223DB00201C00212B85FCF7F7FE15E6228F524BA6269A4200D92FE64823E35CA6260F33DBB20D2B00D827E69D
S28400AD803023E35C6BE64B4A484B1A80FBF74CFAC3E40320FCF7EEF9474B061C9846B2E6201C40300AF06AFE002852D0A35D67E605A98B46B1E44148009081E411F0B0FC019C029BC2056343039C48461B19D20D8340D218B2603FE501238B40DB43B146DBB24E4694213340FF317B54C9235B00FB5C3348D2189223FF33FA5410F090FAE7
S28400AE00FFF7FFFB381CA7210022FEF705F9D3E62C4A264B1A80FBF71BFA7068D9E407F0ABFE002800D09EE43B78990600D46CE5281C211C7430FBF73BF90220FBF77EFF94E4A926C4E5204B18490B80FBF700FA18E5216C626C216262622AE6FE230022BFE7221C0C325046FDF73AFD201CFBF797FE0120FBF762FF4FE4AB7B381C013349
S28400AE802030AB7307F090FEBA68381C0021FDF719F991E61A07920F012A00D02BE562E499850000F82900206D440000BC110020F7FF000049440000D98F000088280020902B00204D4400004A440000F0B5474680B4436830229A5C8EB0051C5E6B042A0FD9F17805290CD801208840011C2220084254D11120084200D086E00C220A428D
S28400AF0005D10124201C0EB004BC9046F0BD40229A5C002AF5D041229B5C002B04D12B7A4F33DBB2012BECD828680F21AA68EB68FFF720F9041EE4D068683023C35C1D2BDFD12968466B002900D1AAE06846082211F0FAFA68686F46838D311D3B81F378102208A8BB7211F0EFFA311C06A81431082211F0E9FA337F002B66D001233B7441
S28400AF80AB68AA890C930CAB9A8068460DF052F8337F002BB6D06846FCF754FDB2E7252AAFD1371C1D37381C1021AA68EB68FFF7E1F8041EA5D0152292199046131C1A78002A44D10133BB42F9D1F378052B42D06A469372391C0822684611F0B5FA6A686846938D6A461381AB68AA890C930CAB9A80337D6A461374311D1130102211F0B8
S28400B000A3FA68460DF016F8C5E7242A00D078E7371C1C37381C1121AA68EB68FFF7AAF8041E00D16DE701F081FB142292199046111C082211F062FA002838D0281D4146254AFDF771FD041C5CE73B7498E7F378052B0ED100206A684123D35C002B05D12B7A4F33DBB2012B00D94AE7002800D047E701F05BFB0822011C404611F03EFA49
S28400B080F3780028A4D0012B00D03AE72B7AAF2B00D136E7281D4146104AFDF745FD041C30E700220023009201936F4654E7F3786A469372391C0822684611F045FA6A68311D938D6A461381AB68AA890C930CAB9A8004A892E7C0467D7E0000A57E0000F0B546464F46C0B4041C83B0806F8846FEF7F6FF87B2030C3EB20190D9B2656966
S28400B100002E58DB7123301CE55CFDF751FC344B5D19AD7C002844D16D06ED0F44D06169B023CA58434641469146237700293BD17223E25C3023E2542A4B9A68002A4DD099880023B94205D973009B191B01D218131C1B33E362301CFDF776FC606306F0D9FC3823E0547323E25C3923E25401F0DDFAE0634846FDF78BFB4423E054742314
S28400B180E25C4523E2544A46174B22641278A364202313434946201C0B70203008F0B8FD03E0AD06ED0FBAD10025281C03B00CBC90469946F0BD8026A359002B07D0201C02219847281C06F03FFC0125EDE7074B074A1A80FBF73CF8A359F0E70023B9E788280020200E0020D97D0000BC1100206D45000070B584688023E358051C6669EA
S28400B200002B13D0002E11D0237F002B05D0201C0021FFF765FF002807D18023201C2979E3589847301C06F00FFC70BD024A034B1A80FBF70DF8E7E76A450000BC110020F0B5041C143CE26F83B0061C6569002A40D08023E358002B3CD0A36F002B39D0002D3ED0B023EB58002B3AD05D222D4FB25C6020BA18917C0022084204D05F22DC
S28400B280B15C0D22002934D09B18B0216B50264B6E46A361201CE26F073690473020311CFBF7F2FB3378002B0BD07123E35C6022FB189B7C1A4204D0A06F03684268134319D17423E25CAC23EA54A369201C984703B0F0BD154A164B1A80FAF7B9FF002DC0D1134B134A1A80FAF7B2FFB023EB58BCE70522C8E701F01DFA0028E1D1A36FF3
S28400B3005A68013202D11B680733DAD87123E35C201CFF18B97CC909FFF7E2FE0028D7D1CFE7C04688280020DD77000063450000BC11002064450000F0B5454657464E46E0B48AB01F1C12AB9C4C1D7801235B4290467022A352009300227223E254231C6E33AF22E0640E1C1A700590FDF790FA69460876002806D102200AB01CBC9046EC
S28400B3809946A246F0BD05A808F0CEFC07990023002905D0CA5C6846C2540133042BF9D1002D1ED0A16E0422894601A81A3111F0CBF84A464B46528B1B7F9046994613B2002B00DAE5E0A068002800D1E6E0A1880022414503D95A00D21812018218A26423E0252068440378002B00D181E0089B5A78197812020A439978187909040A4340
S28400B400D97809060A435979090201439879DB79000401431B060B4322636363684A231C30330021A3648946904600990131A3D0A26C002A73D009A80378012B00D199E0A16C002302A8CA5CC2540133082BFAD1002D57D0424612B29246002A00DA8BE7584B0299986888427AD0231C6E33AB221A70A268002A00D19DE0A1880023414503
S28400B48005D95046430053441B01D3181B334946236449074CD5002D3DD14A46D10801224A40012111408A46181C002879D001AB4046188049466B469971019A226706F029FB231C303318756846027E231C50331A70231C51331E70231C5233514619706765002D63D1201C383008F017FC012043E740460AF004FBA0643148002399468F
