S02B0000416C6C5F5374646C696E6B5365635F53616D5232315F417473616D723231653138615F52663233332B
S284000000605E0020B986020000000000E17802000000000000000000000000000000000000000000000000000000000000000000000000000000000000000000000000000000000000000000000000000000000000000000000000000000000000000000000000000000000000000000000000000000000000000000000000000000000001
S2840000800000000000000000000000000000000000000000000000000000000000000000000000000000000000000000000000000000000000000000000000000000000000000000000000000000000000000000000000000000000000000000000000000000000000000000000000000000000000000000000000000000000000000000FB
S28400010000000000000000000000000000000000000000000000000000000000000000000000000000000000000000000000000000000000000000000000000000000000000000000000000000000000000000000000000000000000000000000000000000000000000000000000000000000000000000000000000000000000000000007A
S2840001800000000000000000000000000000000000000000000000000000000000000000000000000000000000000000000000000000000000000000000000000000000000000000000000000000000000000000000000000000000000000000000000000000000000000000000000000000000000000000000000000000000000000000FA
S284000200000000000000000000000000000000000000000000000000000000000000000000000000000000000000000000000000000000000000000000000000000000000000000000000000000000000000000000000000000000000000000000000000000000000000000000000000000000000000000000000000000000000000000079
S2840041000C000F007001002000000000000000000B000F00C803002000000000000000000A008000402200200000000000000000090001007D4900200000000000000000080020005831002000000000010000000700300230380020000000000100000006000200A0490020000000000000000005001C00783100200000000002000000FC
S284004180040003009A49002000000000000000000300F000403B002000000000020000000200A000E8240020000000000100000001006000C0220020418C00000000000050E502000300034078EB02000900014008B509F09DFB09F0B7FBFCE7002934D00123002210B488422CD301242407A14204D2814202D209011B01F8E7E400A142AD
S28400420004D2814202D249005B00F8E7884201D3401A1A434C08A04202D3001B5C0822438C08A04202D3001B9C082243CC08A04202D3001BDC082243002803D01B0901D00909E3E7101C10BC7047002801D00020C04307B4024802A14018029003BDC046D90000000029F0D003B5FFF7B9FF0EBC4243891A1847C046002941D010B4041C1B
S2840042804C40A44601230022002900D54942002800D5404288422CD301242407A14204D2814202D209011B01F8E7E400A14204D2814202D249005B00F8E7884201D3401A1A434C08A04202D3001B5C0822438C08A04202D3001B9C082243CC08A04202D3001BDC082243002803D01B0901D00909E3E7101C6446002C00D5404210BC704786
S284004300002806D003DB0020C043400801E08020000607B4024802A14018029003BDC046190000000029EBD003B5FFF7A7FF0EBC4243891A1847C0467047C046F8B55F46564644464D46F0B40C034D00CE0F610A440F2143C400180380465800400D8246D80F84464046400A530F0343D0006D0D371C83465246664500D1A4E0AF1A002F72
S28400438000DC09E1002A3BD1184300D0EAE0630700D187E00F232340042B00D182E0221DA242A4416442802309191B040B40371C141C002B00D17CE0CE4B01359D4200D105E1CD4BE40819404807490204430B0B002000211B031A0B0B0D6D051B0513436A08C64DFF071D4015436D006D08291C3943201C3CBC90469946A246AB46F8BD5F
S284004400BC488542C3D0802000040343382F00DDF0E01F2F00DD24E12020C01B1A1C814682405846F8400243944658464A469040421E9041FB40624602431F1CA21A9442A4416442C91B091B141C0B029FD549024F0A002F00D1C8E0381C01F079FB021C083A1F2A00DDB5E02821091A201C9740C84007439440954200DDB2E0551B691C74
S2840044801F2900DDDCE01F22551B3B1C221CAB40CA40AC40651EAC411343CF401C43391C002574E780231B040B40371C002B00D082E7904B4807E4080443C9089D4248D009030B0B84E7AA1A9446002A00DC98E05046002852D08748854200D157E78020000403436246382A00DDFCE01F2A00DD4AE120226046101A1A1C824082469146E8
S28400450058466246D0404A4602439046584652469040421E9041424602436046C3401219A242A441644259180919141C080200D42DE7704B01359D4200D122E16E4B60081940012323401C1C0443CB071C4349081DE7231C0B433AD080231B030B431B031B0B35E7013F002F65D15846221A9442A4416442C91A091B141C66E7584618432C
S28400458000D104E70122524294446046002800D0C5E058460219C3E7002F73D1681C4005400D012800DCDEE05A46A21A9442BF41C81A7F42C71B380200D489E05A46141BA3459241591A52428F1A664641E700230024FDE6271C283887400024954200DC4CE74549AD1A3940D1E6201C01F0B0FA203034E75A461A43531E9A41D2B20027E4
S2840046001CE7002A00D0DCE0681C4205520D012A00DC8DE0374DA84200D1F3E05D462A19A242A441644259180919CC07520814434908051CABE62F48854200D0E6E6A6E62B1C1F3B3A1CDA40131C20296CD03F22551BAF403C43601E84411C430021002595E6381C20381A1CC240101C202F5DD04022D71BBB405A461A43531E9A41024327
S2840046800027DBE6002D3BD01A4DAA4500D193E080252D047F422943382F00DDACE01F2F00DD29E12025ED1B081C261CA840FE40AC400643651EAC413443F9405D462C1BA34592415B1A5242991A55466646BCE6131C3B43141C002B00D0BAE60027002100250024E5E65A461A43531E9A41D2B2002314E7FF070000FFFF7FFFFFFF0F80AD
S2840047000D1C254358D0FF43002F51D1041BA3459241591A5242891A5546664695E69648854200D0DEE632E6002793E70023A2E7081C2043002D00D0C4E0002800D1F7E05846184300D122E658460219A242A441644259180919141C0A0200D417E6874B0125194013E6081C2043002D39D1002871D15946194303D0191C5C46664606E6C3
S28400478000270021002494E6604620381A1CC24060469146202800D1ACE04022121A93405A461A43531E9A414B461A430023B6E6714DAA4500D06FE7191C5C4655466646E5E5002D22D10D1C254377D0D543002D71D15C445C4592415918524289185546A4E600284DD15946194300D194E0191C5C466646604DCAE50C43611E8C41E4B270
S28400480000215BE7051C0021002452E65A4DAA4554D05542802210040143382D00DD81E01F2D00DD92E02022501B0A1C84468240201CE8400243904662469440601E844142461443E9405C445C459241CB185242991855466AE65846184300D197E55846271ABC429241C81A5242801A020266D55846041BA3459241591A5242891A6646CA
S28400488085E55846184333D04807E40804438020C9080003014208D0DD08054205D15946CA085C071443291C6646630FC9001943E400314D6BE5304A9245AED1191C5C46554664E5002836D05846184310D080254807E408C9082D0304432942E5D0D8082842E2D15D46EA085C071443011CDCE7214D4CE5002353E73D1C203D0A1CEA40CD
S284004900151C202F34D04026F71BB9400C43611E8C412C430021D1E680210027C903164D0024C6E50C43611E8C41E4B200218AE7191C5C462BE5191C5C460F4D27E5031C3B4300D11CE7011C3C1C20E52020404240190A1CC2409046202D0BD04020451BA9400C43611E8C4145462C4300216AE70021CBE70021F4E7FF070000FFFF7FFF7F
S284004980F0B5564644465F464D46F0B41F1C0B031B0B98464B0087B0041C81465B0DC80F161C9A460090002B51D06A4B9A4531D08022414652030A43630FD2001A43664B90460025E20091469A44002402953B031B0B9B46FD0F7B00311C5B0D019560D05C4A934254D08021584649030143720FC9001143584A8B469B18F1000020009A05
S284004A0004436A4003920F2C00D9ADE0534EA4003459A746404604436ED1002102250824884689460295D2E7009C0298C34649460194022864D0032800D1ABE2012800D038E2019A002402400025A14660E0434623434AD04046002800D1C0E101F078F8031E272B00DDB3E128210D1A211C083B4246E9409A400D1C1543221C9A40A846C4
S284004A809146374B00251B1A9A46002402959EE75A4616430320002EB1D1B34600210220ADE75A4632431BD05B46002B00D18AE1584601F04DF8272800DD7DE12822171A011C321C08395B46FA408B40171C1F43331C8B40BB46191C214B1B1A00208EE70027BB460021012089E70020012504248046814602956AE703250C24029566E7FB
S284004B00019C0394039D01222A400024114DA146002000212403260B0C0D2405114B34432D0523402B435B005B08D207191C4846114307B03CBC90469946A246AB46F0BD0022802424039146024DE1E700240025A146DDE7FF07000001FCFFFFA8FE02000DFCFFFFFFFF0F805546ED1A0495D84500D953E100D14EE1049C0025013C4E4616
S284004B8004944746A946584603020C0E1C430902250C23041B0C0091381C291C0193FFF71DFB019983464143381C8A46291CFFF759FB330C090419438A450CD95B460919013B8C4200D947E18A4500D844E102225242934409195346CB1A181C291C9846FFF7FCFA071C0198291C784382464046FFF738FB36040B04360C33439A4509D933
S284004C001B197A1E9C4200D924E19A4500D821E1023F1B195E4632041743380CBB46009E009F51463F0C32045B1A5946BA46120C0F043F0C904651467A434F434146414356467043CF19160CBE19B14202D980277F02C019310C12043604120C4018B618834200D2C4E000D1BEE0191A4846861BB145BF417F42CF1BA74200D113E1291CE4
S284004C80381CFFF7ABFA019902904143381C8946291CFFF7E7FA330C0904194389450CD9029B0919013B8C4200D9FFE0894500D8FCE0029F0919023F02974F46CF1B381C291C0597FFF78AFA071C0198291C784381460598FFF7C6FA36040904360C0E43B14509D936197B1EB44200D9E0E0B14500D8DDE0023F3619029D4946761A2904A3
S284004D0039430B0457460A0C1B0C40464546584355437B437A43EB18070CDB199D4202D980256D0252191D0C00041B04000C52191B18964235D300D1FCE001231943049E994FF519002D00DCA1E0480709D00F230B40042B05D00B1D8B42894149428B44191C5A46D20107D5904B5C46049E80271C40FF00A346F5198D4B9D427ADD039C97
S284004D800122224000248B4DA146C1E680242403474627424CD13C432403240B009A854DB6E63619481EB4425ED9011C9642C4D1009E9E42C1D1C2E7031C283B311C99408B46002188E6301C00F0C2FE203072E6283B211C994000228846914651E6201C00F0B6FE20303BE60021B14500D33DE7009F5A46B944B945BF417F423F19FB18D7
S284004E00013A9C421ED2984200D97EE000D1B5E0191A93462AE7894500D8ADE64846464642467708D3074608C0071E438146AAE65846204212D1044324032A1C240B89465C4D65E6A342E3D1009F4F45DBD9211A93460BE7171CDDE69B46BCE63C432403240B009A534D53E6B24259D800D18AE0011C62E75F46C9087B07039E0B437C0294
S284004E806D0501229946240B6D0D324040E64A4B049FDB1B382B10DD039C0122224000240025A14634E60121494248E7029304E71F1C21E7019C039441E71F2B40DC3F48049F0C1C3A1858469140DC40904020430A1C511E8A41011C11435A46DA40131C480709D00F220A40042A05D00A1D8A42894149425B18111C1A0234D5039C01221A
S284004F00224000240125A14602E6009F02214942B9448B44B945894149420919CB18A4E6009D881E6900A942AD416D422C19361900913AE7002B00D033E70024009437E71F4A049C5D46121BD5402A1C202B1FD01C4E5F46A3199F403B1C19434B1E994111430023BCE75A07C9080A43039F91465B0201221C0B3A400025C9E54E45C4D80E
S284004F809346002172E6009F9F42C9D3011C0FE70023E2E7802424035F463C432403240B019A8946034DB3E5FF030000FFFFFFFEFE070000FF07000002FCFFFF1E040000E2FBFFFF3E040000F0B5564644465F464D46F0B41F1C0B031B0B9A464B0087B0041C80465B0DC80F161C02938146002B68D0694B0299994232D08022534652031B
S2840050001A43D200630F1A439246644AE000891880460291002400253B031B0B9B467800FB0F321C400D039300D175E05A4B984269D08022594652030A43730FD2001A43564B9346C018F200002303994E4671401C430F2C00D9A9E0514EA4003459A74653461C4300D087E00025AA46A84608240225D1E74946022D6CD0032D00D117E2E8
S284005080012D00D058E10D40EDB20024A9460023A0460020002125030A0D1C052D0B1205404B2A43134023435B004C465B08E207191C4046114307B03CBC90469946A246AB46F0BD5346234350D05346002B00D184E1504600F03CFD031E272B00DD76E128210D1A211C083B5246E9409A400D1C1543221C9A40AA4690462B4B00241B1A61
S2840051000293002588E75B461E430323002E9CD1B3460022022398E75B46334321D05846002800D14EE100F013FD272800DD42E128210F1A021C311C083A5B46F94093400F1C1F43331C9340BB461A1C164B181A00237AE701230B4000249946A0460E4B97E70027BB46002201236EE7002104248A46884601254FE70C2403254CE70025B4
S2840051808024A9462403A846034B82E7DA46904603991D1C6FE7C046FF07000001FCFFFFE8FE0200FFFF0F800DFCFFFF029F160C381804904046070C0004000C1204120C031C5343041C3D1C7443554398463B1C73436419A44644460293230C63449D4204D9029D802464022D1902951D0C039545462C041B04240C1C1905945C46230CB3
S284005200051C58432404240C8446381C604365435F438146CC44280C6044BB46814502D980277F02BB442D04070C2D0C000440195546BC462F04E3448446280C3D0C2F1C5743B8462F1C77434243B94647463F0C9144BA46D14446434A4502D980225202B6184F463A0CB6183A0447463F043F0CB8462F1C67435D434443584365190190CF
S284005280380C2D184244B846AC4204D9019880235B02C0180190039C029F201C6044C0196045A44147466442A4462B043C049946240C4C44A046D8448018C246E24490429241574652429146F219E245BF417F424B46BC46D845BF41D4187F4263461F432D0C7F19B24292414C45AD4152426D421543019E7D19AB19E20D5B02059F134360
S28400530042023A439A46531E9A41C30D101C18436402204380465046C0010DD5454601225646049C6B082A401A43F30701341A43760804949046B246049E634FF319002B61DD404640070BD00F2244462240042A06D042460432424580414042824490465546ED0107D5594B5646049F80201E40C000B2463B18564A934200DDEAE64446D5
S2840053805546E2086807104301226C025B050A408046240B5B0D91467BE6DA4690461D1C69E680242403574627421CD13C432403240B484B6DE6031C283B311C99408B460022C3E6301C00F0C3FB2030ADE6283B211C994000228A4690468EE6201C00F0B7FB203078E65846204207D1044303992403240B89469046364B4AE63C4324032B
S284005400240B344B45E6344B049E9B1B382B06DD01230B4000249946A046002339E61F2B25DC049C2D4D46466019524644468640DC4082405746301C2243DF40441EA04102433B1C540709D00F201040042805D0101D9042924152429B18021C1D021AD501230B4000249946A046012311E61C48049C5546001BC540281C202B16D0194E14
S2840054805746A21997403A1C43461A43531E9A4102430023D6E758075B02D2081C0B01230B401043994680460023F2E50022EBE78024240350460123044319402403240B8946044BE5E5C046FF030000FFFFFFFEFE070000FF07000002FCFFFF1E040000E2FBFFFF3E040000F8B55F46564644464D46F0B40C034D00CF0F610A440F214302
S284005500C4001803DE0F8046B44646465800760A530F3343D600D14A6D0DBA46400DB346904200D1F5E06246012672409446674500D1ABE02F1A002F00DC11E100283ED15846184300D0F1E0600700D197E00F232340042B00D122E1221DA242A4416442802309191B04012750460B400740141C002B00D179E0B94B01359D4200D10BE137
S284005580B74BE40819404807490204430B0B002000211B031A0B0B0D6D051B0513436A08B04DFF071D4015436D006D08291C3943201C3CBC90469946A246AB46F8BDA7488542C1D0802000040343382F00DDFDE01F2F00DD31E12020C01B1A1C5E468240FE40324394465A468240101C421E9041FB40624602431F1CA21A9442A44164428E
S284005600C91B091B141C0A029ED549024F0A002F00D1D6E0381C00F09BFA021C083A1F2A00DDC3E02821231C091A9740CB401F439440954200DDC0E0551B691C1F2900DDEAE01F22551B3B1C221CAB40CA40AC40651EAC411343CF401C43391C002573E780217E4D0027C90300247C4B4807E4080443C9089D4250D009030B0B87E7802319
S2840056801B04012752460B40174071E72A1A9446002A00DCA1E0002854D07048854200D152E78020000403436046382800DD0EE11F2800DD57E162462020801A1E1C8640B1465E46D6404A4632435E4686409046301C421E9041424602436046C3401219A242A441644259180919141C080200D42AE75A4B01359D4200D131E1584B6008DB
S2840057001940012323401C1C0443CB071C4349081AE71E4300D00AE705E7231C0B433BD080231B030B431B031B0B30E7013F002F6DD15E46A21B9442A4416442C91A091B141C60E75846184300D1FDE601267642B4446046002800D0D0E05E463219BFE7002F00D080E0681C4005400D012800DCE8E05A46A21A9442BF41C81A7F42C71BE5
S2840057803E0200D498E05846041BA3459241591A52428F1AE2463AE700230024F7E680231B04012756460B403740E1E6271C283887400024954200DC3EE72949AD1A3940C2E6201C00F0C4F9203026E75A461A43531E9A41D2B200270EE7002A00D0DEE0681C4605760D012E00DC90E01B4DA84200D1F5E05E463219A242A4416442591839
S2840058000919CC07520814434908051C9CE61348854200D0D9E697E62B1C1F3B3E1CDE40331C20296FD03F22551BAF403C43601E84411C430021002586E6381C20381E1CC640301C202F60D04022D71BBB405A461A43531E9A4102430027CDE6FF070000FFFF7FFFFFFF0F80002D37D0B64DA84200D18FE080252D047F422943382F00DDB3
S284005880A8E01F2F00DD24E12025ED1B0E1CAE40B046261CFE404246AC401643651EAC413443F9405A46141BA34592415B1A5242991A051CE246A6E6131C3B43141C002B00D0A4E60027002100250024CDE65A461A43531E9A41D2B2002300E70D1C254358D0FF43002F51D15A46141BA3459241591A5242891A051CE24684E692488542B7
S28400590000D0D1E620E6002790E700239FE7081C2043002D00D0C2E0002800D1EFE05846184300D110E658460219A242A441644259180919141C0A0200D405E6834B0125194001E6081C2043002D38D100286FD15946194303D0191C5C46E246F4E500270021002481E6604620381A1CC2406646101C202E00D1AAE04022921B93405A46DF
S2840059801A43531E9A4102430023A8E66E4DA84200D073E7191C5C46051CE246D4E5002D22D10D1C254376D0D543002D70D15C445C459241591852428918051C96E600284CD15946194300D14AE6191C5C46E2465D4DB9E50C43611E8C41E4B2002161E7051C0021002440E6574DA84253D05542802216043143382D7BDC1F2D00DD8CE010
S284005A002022561B0A1CB446B240261CEE403243904662469440661EB44142461443E9405C445C459241CB1852429918051C5DE65846184300D187E55E46A71BBC429241C81A5242801A060260D55846041BA3459241591A5242891AE24675E55846184333D04807E40804438020C9080003014208D0DD08054205D15946CA085C0714436C
S284005A80291CE246630FC9001943E4002E4D5BE52D4A9042AFD1191C5C46051C54E5002830D05846184310D080254807E408C9082D0304432942E5D0D8082842E2D15D46EA085C071443011CDCE71F4D3CE5002355E73D1C203D0E1CEE40351C202F2ED04026F71BB9400C43611E8C412C430021D8E60C43611E8C41E4B2002190E7191C9F
S284005B005C4621E5191C5C460F4D1DE5031C3B4300D124E7011C3C1C16E52026764276190A1CF2409046202D0BD04026751BA9400C43611E8C4145462C43002170E70021D1E70021F4E7C046FF070000FFFF7FFF1C2101231B04984201D3000C10391B0A984201D3000A08391B09984201D30009043902A2105C40187047C0460403020245
S284005B8001010101000000000000000002780B7801300131002A01D09A42F7D0D01A70478446101C62468C46191C634600E0C0461FB500F073F9002801D40021C8421FBD10B500F0A3F84042013010BD10B500F065F9002801DB002010BD012010BDC04610B500F05BF9002801DD002010BD012010BDC04610B500F0D3F8002801DC002038
S284005C0010BD012010BDC04610B500F0C9F8002801DA002010BD012010BDC046002B11D1002A0FD1002900D1002802D00021C943081C07B4024802A14018029003BDC046F9E6FFFF03B4684601B5029800F044F8019B9E4602B00CBC7047C0469C460304F0B51B0C17043F0C150C1E1C041C000C7E436B4347434543FB18300C1818874270
S284005C8002D980235B02ED18030CED1863465C434A433604360CA118000480194919F0BDF0B583B0161C1F1C0090019100F01AFA041C0D1C221C2B1C301C391CFFF7CEFF009A019B121A8B410899201C0A604B60291C03B0F0BDC046F0B583B0141C1D1C0090019100F0DAFB221C2B1C061C0F1CFFF7B4FF009A019B121A8B410899301CCF
S284005D000A604B60391C03B0F0BDC046F0B55F4656464D464446F0B40D1C041C8046E80F814618030F03000B3F0B83B084461B48009749005E00DF0F490D9246760DBB4681420CD01548864210D00120B14215D003B03CBC90469946A246AB46F0BD009F01202743F4D10D488642EED1604602430120002AECD10120B142E9D1009B6345C8
S284005D80E6D1D045E4D1D94506D00029E0D11C43201C441EA041DBE70020D9E7FF070000F0B55F4656464D464446F0B4CD0FDE0FAC461D032D0BB146374E0F034C00AB465D0080463F0B640D92466D0DB44232D0314EB54235D0002C0ED1384341424141081C002D0BD0002919D1CC452DD0654668420123184318E0002DF6D1281C594626
S284005E000A4353425341002806D1002BEDD0634658420123184308E00020002B05D14A46504250414042012318433CBC90469946A246AB46F0BD3E1C0643C9D002204042F3E75E461643C6D0F8E7AC4207DC0BDA614648424841404201231843E5E76646704201231843E0E75F450AD80ED000205F45DAD26546684268414042012318432E
S284005E80D3E76246504201231843CEE7D045F8D80020D045EED3C8E7FF070000F0B556464D4644465F46F0B40D1C83B0041C0190E80F814618030F03000B3F0B84463548009749005E00DF0F490D9246760DB846814234D02F48864236D0002918D0002E1FD1341C67463A4353425341002C1FD00020002B05D14246504250414042012364
S284005F00184303B03CBC90469946A246AB46F0BD0098044360426041041C002EE2D00028E9D1C14515D04F46784201231843E8E7002BF6D04B46584201231843E1E7009F02202743DDD1C5E7674602201743D8D1C3E7B14204DD4A46504201231843D0E7B14207DB00986045E4D80AD0009F00206745C6D24F46784278414042012318430B
S284005F80BFE7019A5245D5D8019A00205245F1D3B7E7C046FF07000070B50B1C124C09030E0B5900021C490DDD0F0020A14211DD0E4881420FDC8020400306430C48401A1F280BDD0B4A521AD640321C5042002D00D1101C70BD084BE818FBE7074BC240C9188E403243F1E7FE0300001D0400003304000013040000FFFFFF7FEDFBFFFF6C
S284006000F8B5041E31D0C70F00D04442201CFFF79FFD184D2D1A0A2819DD0B38844024036D05240B6D0D3A1C0026002000210B0D2403240B1B0523430F4C2D051C402C4364006408D307211C301C1943F8BD061C1536231CB3401E1C0B23181AC44024036D05240B6D0D3A1CDFE70022002500240026DAE71E040000FFFF0F8010B5041E64
S28400608028D0FFF765FD154A121A0A2815DD0B38844024035205240B520D0023002000212403181C0B0D240B1B0523430C4C12051C4014436400610810BD031C1533211C99400B1C0B21081AC44024035205240B520DE3E7002200240023DFE71E040000FFFF0F80F0B544465F4656464D46F0B41C1C85B0002900DADBE00F1C0021061C57
S2840061008A46101C191C002C00DAC9E00196009089468046002951D1B84200D871E0FFF717FD002809D020234546311C1B1A85408740D940A8460F4386404246150C13041B0C291C381C9B46FEF748F85B464343041C291C381C9946FEF784F8330C08041843814509D94044631E804500D978E1814500D875E1023C40444946411A89468B
S284006180081C291CFEF72AF85A464243071C291C48469346FEF766F836040904360C0E43B34507D946447B1EB04502D8023FB34500D81F1C24042743002403E0B94211D9002400275246381C211C002A03D03B1C00215842A14105B03CBC90469946A246AB46F0BD081CFFF7B3FC041E00D0BFE0B94500D242E1019D0099071C8D4247411A
S284006200E0E7002804D101200021FDF7E7FF80464046FFF79DFC002852D1414644460B043C1B1B0CA3460D0C00930124291C5846FDF7D4FF009F81464743291C5846FEF711F8330C090419438F4208D94B464144013B884502D88F4200D91AE19946C91B8B46081C291CFDF7B9FF009B291C4343071C58460093FDF7F5FF3604009D090419
S284006280360C0E43B54207D946447B1EB04502D8023FB54200D81F1C49460E04374391E75246D243031C0C1C924600215842A1412CE7002746428F41012149428A4620E720231B1A4246351C82403C1CDD40DC4087402B1C150C3B43291C8640201C009317049046FDF77AFF3F0C011C794381468B46201C291CFDF7B5FF009C0904230C9A
S28400630019438B450CD94B464144013B884500D9BDE08B4500D8BAE002225242914441445C460C1B201C291C0194FDF757FF391C4143041C8B460198291CFDF793FF009A090413041B0C19438B4509D94144631E884500D997E08B4500D894E0023C41445B46CB1A49469B460B041C4300975DE7009D20231B1A4A468240DD401543391C62
S284006380009AD94082408846311C0092D9403A1C82400B1C134301932F0C2B041B0C391C40460293FDF71AFF029A81464243391C40469346FDF756FF019A0904130C19438B450AD94B464919013B8D425DD88B455BD902235B42994449195A468A1A101C391C0392FDF7FAFE029B80464343391C03989B46FDF736FF019A090413041B0C24
S28400640019438B450AD943464919013B8D4238D88B4536D902235B42984449195D464D1BAB464946009D0F04424617432A04120C3B042D0C1B0C380C111C594342436B436843D3180D0C5B198C469A4202D98022520280181D0C401983450CD303D00024B0E61C1C89E665462A041B04120C9B18A6409E42F3D2013F0024A3E600240127B7
S284006480A0E69846CAE71C1C6AE79946A5E7994646E70222524291444144E0E6F0B55F4656464D464446F0B40D1C85B0061C924698460290019103921F1C141C8346A946002B59D1AA4269D9101CFFF741FB00280AD020231B1A311CD94085400B1C2B43864084409946B346250C23041B0C291C48469846FDF772FE4646071C4643291C63
S2840065004846FDF7AFFE5A460904130C19438E4209D909197B1E8C4200D957E18E4200D854E1023F0919891B8946081C291CFDF755FE43464343061C291C48469846FDF791FE5A46130409041B0C1943884508D90919731E8C4200D936E1023E884500D832E1380430430027391C05B03CBC90469946A246AB46F0BD019A934262D8181C5C
S284006580FFF7E6FA041E60D1019B9F4200D22CE1029F03998F4260410027E5E7002A04D101200021FDF71AFE041C201CFFF7D0FA002800D0B9E023042D1B1B0CA946260C98460127311C4846FDF708FE41464143051C8A464846311CFDF744FE5A460804130C1843824507D900196B1E844202D8824500D910E11D1C5346C31A181C311C06
S2840066009A46FDF7EBFD41464143814688465046311CFDF727FE5A46130409041B0C194388450BD94B460919013B8C4200D9CFE0884500D8CCE002235B42994428044946084391E7002700208EE720231B1A424657468240DF401743524682400192321CDA40291CD9408540131C2B4302933D0C3B041B0C8846081C291C9A46FDF7AEFD6F
S284006680534643438146291C40469B46FDF7EAFD029A0904130C19438B4506D94B46C919013B8F4200D8ABE099465A468A1A101C291C9346FDF792FD53464343291C804658469A46FDF7CEFD029A090415042D0C29438A4506D94346C919013B8F4200D886E098465746CF1BBA464946019F0804424610433D042D0C03043F0C1B0C020CD4
S284006700291C594355437B437A43EB180F0CDB198C469D4202D980277F02D2191D0C521992455FD356D000271EE720231B1A311C2F1CD940DF4085400B1C84402B4386400193B3462304260C1B0C381C311C9846FDF744FD42464243051C311C381C9146FDF780FD019F09043B0C1943894507D909196B1E8C424DD889454BD9023D09198D
S2840067804A468A1A101C311C9246FDF727FD43464343071C311C50469946FDF763FD019A090413041B0C1943894507D909197B1E8C422DD889452BD9023F09194B46CB1A2D0499462F43FDE61E1CCAE61F1CAAE6994633E761460A041B04120C9B18A6409E42A0D201380027BEE600270120BBE68A4500D875E702235B429844C91971E7CE
S2840068008B4500D850E702235B429944C9194CE71F1CD3E71D1CB3E7023D0019ECE6C046F0B5151C89B0264A6B4692CA92C392CA92C31168061C1960928868469A8001F0D3FC2B78012B11D0022B24D01D4B1C68002C08D06369002B02D0301C291C98472468002CF6D1002009B0F0BD164A6978907A012401432140984308439072687824
S284006880C007C00F0143907A19409843014391722B78022BDAD10C4B6A78987AD207C107D20FC90F914301229043084398726878C007C00F8143987A904301439972C5E728FF0200200E0020B4000020F0B587B0154B061C01A8151C021C92CB92C219681160998891809B79937101F07DFC2B78DA070FD40D4B1C68002C08D02369002BE5
S28400690002D0301C291C98472468002CF6D1002007B0F0BD002002F0CDFC2B78DC07E9D5012002F0E5F8F2E748FF0200200E002070B5184C051CA388161C002B0ED1164B1C68002C08D0A368002B02D0281C311C98472468002CF6D1002070BD02F0EAF8061C8920002EF8D0301C0021022202F0D5F8F36C2279301C1A70627920305A7066
S284006980291C012202F0F2F8301C01F067FA0020E3E7C046B4000020200E002008B5064A9388013B9BB29380002B03D10348043022F0F2F908BDC046B4000020200E0020F0B585B0174B061C01A8151C021C12CB12C2198811809B78937001F005FC6A782B78114C12021A43271D104B381C9A8022F0D2F96B782A781B0213430ED1246891
S284006A00002C08D06368002BF9D0301C291C98472468002CF6D1002005B0F0BD381C22F093F9ECE75CFF0200200E0020B400002010B5012A00D010BD0029FCD1064C0434201C22F0A9F9054B9B88002BF3D0201C22F07AF9EFE7C046200E0020B400002008B50A4B0022112003219A8004F00AFD002801D0064BC361064BFA229200DA6037
S284006A8000221A74044A5A6108BDC046B4000020316A0000200E00209D69000008B50248043022F079F908BD200E002038B5064D041C211C281C06F09FFD002803D1281C211C06F04DFD38BD200E00207047C0467047C046024B9888431E9841C0B27047B400002010B5054C054B04349880201C22F052F9201C22F027F910BD200E00200F
S284006B00B4000020044B0122101C0840997A9143014399727047C046B400002008B503480021802223F066FF08BDC0464022002008480022031C1978002905D001320833102AF8D100207047D200012383548018F9E7C046402200200023037043708370C370037143718371C371704710B50A4B002203E001320833102A0AD01C88844249
S284006B80F8D15C1E24788C42F4D1044BD200D01800E0002010BDC04642220020402200200E4B30B51C1C051C80340020002102E00833A34210D01A88AA42F9D19A1E117051700130197059709970D970197159710833C0B2A342EED130BDC0464222002030B5021E16D0134B984211D3181C783082420DD81C1C8034181C9A4205D21D7897
S284006C00002D02D05D888D4203D00833A342F3D1002030BD0748031C1C78002C02D05C888C4204D001320833102AF5D1F0E7D2008018EEE74022002070B5194988B06B46141C64C964C364C964C30A6868461A608A889A808A799A716178237809021943A27801F0C1FA607823780002A1781843FFF77CFF041E0FD0807901F009F8E079B0
S284006C8000F0C8FC6278074B0A205A726288DA8101221A7602F000FB002008B070BDC04668FF0200E8000020F0B5474680B4444C88B06B46151C884686CC86C386CC86C306CC06C369782B7809021943061CAA78684601F089FA68782B78000218433ED1A978FFF743FF002864D0364B47461A7901321A71AA786B7942706A782C78120203
S284006D00224342802A790633EC78F91A1202224389B2EB188280002918D10A2002F0BCFA00242323F35C0020002B23D008B004BC9046F0BD082A3BD1DA78C2719A780339891AD41C89B21B190029E6D05A781C7812022243062AEDD1DA788271EEE7112114F010FC85240028DBD068782B7800021843B5E701F0DEFE071C8920002FD5D085
S284006D80381C0021042201F0C9FEFB6C28786978AA785870381C9970DA701C702030311C012201F0E3FE381C01F058F80020BDE78524B6E7FFF7BCFE89240028B1D094E788FF0200E8000020F0B5141C89B0374A6B46C2CAC2C3C2CAC2C31168051C1960928868469A806178237809021943A27801F0FAF9607823780002184345D1A178C4
S284006E00FFF7B4FE061E4BD0294F3B7901333B7100F090FFB07100F0F7FB0023F071B380637822781B0213437380A3780A2073707B727388FB8101233B7602F02DFA00272323EB5C0020002B01D009B0F0BD01F071FE061C8920002EF7D0301C0421042201F05CFEF36C20786178A2785870301C9970DA701F702030291C012201F076FE57
S284006E80301C00F0EBFF0020DFE7112114F07AFB85270028D4D06078237800021843AEE7FFF746FE8927061ECAD0ADE7A8FF0200E8000020F0B5474680B42A4C88B06B46151C86CC86C386CC86C32168061C1960A28868469A80A2799A7169782B780902194301F081F96C782B7824021C4331D11D4F201C3A799046FFF752FE4346181A0E
S284006F0038710A2002F0C8F900272323F35C0020002B03D008B004BC9046F0BD01F00AFE041C8920002CF5D0201C0321032201F0F5FDE36C29786A78201C59709A701F702030311C012201F011FE201C00F086FF0020DFE7201C112114F014FB0028C7D18527D2E7C8FF0200E8000020F0B58BB02D4C061C01A8031C151C86CC86C386CCF7
S284006F8086C306CC06C322881A80A2789A7069782B7809021943AA7801F026F968782B780002184334D1A978FFF7E0FD8B27002809D0FFF7D1FD1D4B0A201A790027013A1A7102F069F92323F35C0020002B01D00BB0F0BD01F0AEFD041C8920002CF7D0201C0221042201F099FDE36C28786978AA785870201C9970DA701F702030311C7B
S284007000012201F0B3FD201C00F028FF0020DFE7112114F0B7FA85270028D4D068782B7800021843BFE7C046E8FF0200E8000020F0B58BB0061C354C01A8031C151C86CC86C386CC86C306CC06C322881A8069782B780902194301F0C7F82323F35C002B09D069782B78090219433AD10020FFF7B7FD002832D001F05DFD071C8920002F3D
S2840070802DD02B78224A6D781279FC6C2D0210211D438A1AA3702B0A6270E370002D2BD1002005E02279511C21714178A2185171291CFFF795FD0028F4D1227920700532D2B2381C062101F029FD381C2030311C012201F04BFD381C00F0C0FE00200BB0F0BD081C112114F04DFA0028F6D069782B7809021943B9E7281C112114F042FA00
S2840071000028CDD1852323700422DAE70C000300E8000020F0B58BB0061C364C01A8031C151C86CC86C386CC86C306CC06C322781A7069782B7809021943AA7801F054F82323F35C0020002B01D00BB0F0BD01F0F1FC041C8920002CF7D068782B78000218432FD1A978FFF701FD00283FD0E36C00221A702F7869785F709970A9780125CE
S284007180D9700179197141799A7159710621D9711A725D72877908219F72D9721A735D73C2799A730F22201C012101F0B7FC201C2030311C012201F0D9FC201C00F04EFE0020C2E7112114F0DDF900280AD18522E36C1A706A7829789A705970AA78DA700422E0E768782B7800021843BAE78B22EEE7C0463000030008B5064B00221A714D
S2840072005A72DA8101221A7600225A77FFF786FC08BDC046E8000020014B00221A767047E800002030B5094A87B06B4632CA32C312CA12C3127868461A7000F0D5FF044821F0AAFD002007B030BDC04654000300380E002010B584B001A8074B021C12CB12C21B78137000F0BFFF044821F094FD002004B010BDC0466C000300380E002070
S284007280F8B5194C051C201C171C0E1C21F084FD002F25D1002D14D00123A375134B311C1D796B1E9800C3185800FCF7E5FF80B2A08201235D1B6083201C258321F044FDF8BDFE23094AA3751579311C5B1B9800C3185800FCF7D0FF80B2A082FE23E9E7012000F0D5FCD5E7380E00207001002070B58CB001A80C49031C141C64C964C349
S28400730064C964C364C964C30A681A608A889A802178627800F068FF207861780122FFF7AFFF00200CB070BD7800030070B50C4988B06B46141C64C964C364C964C30A6868461A608A889A802178627800F04CFF207861780022FFF793FF002008B070BDA4000300F8B5164C051C201C171C0E1C21F012FD002F12D1FF2D15D0002D00D142
S2840073800125104B9E4213D00F4BA575A6821B79201CED1A2583668321F0D6FCF8BD012000F076FCFF2DE9D1064BFE259E42EBD10548057104F0B0FCFFF72EFFEEE7C046380E0020FFFF00007001002070B510498CB06B46141C64C964C364C964C364C964C324C924C30A7868461A70A2786378120221781A4300F0F7FEA17863780902D1
S284007400207819430122FFF7ADFF00200CB070BDC400030070B58AB001A80D49031C141C64C964C364C964C364C964C3A2786378120221781A4300F0D7FEA17863780902207819430022FFF78DFF00200AB070BDF4000300F0B51F4C474680B49846071C201C0E1C151C21F097FC4346002B2CD1A17D002F14D17618331CF6B2FE2E21D8E2
S284007480D9B2A375144B9D4212D0144B201C1B796583C91A218321F057FC04BC9046F0BD891BC9B200290AD0A1750B4B9D42ECD10A48017104F030FCFFF7AEFEEDE70121A175F2E702235B42DAE7012000F0E0FBCEE7C046380E0020FFFF00007001002010B58EB0141C68460C49382223F0EEF9E378A0781B02217862780343684600F05A
S28400750073FEE278A378120220781A4361780123FFF7A0FF00200EB010BDC0461801030070B58CB001A80F49031C141C64C964C364C964C364C964C324C924C3E378A5781B02217862782B4300F04EFEE278A378120220781A4361780023FFF77BFF00200CB070BD5001030070B5184C90B0638B013B9BB26383002B17D1201C21F00CFCB0
S284007580A37D1348037104F0C7FBFFF745FE11493D22684623F09AF96846A17D00F024FE0C2001F079FE10B070BD1822A05EA18A5843FCF713FE064DA67D361A281C2E7104F0AAFBFFF728FEEDE7C046380E0020700100207C010300044B00221A71044B1A7364229A60034A1A61704770010020380E00206975000008B5024821F0CCFB00
S28400760008BDC046380E0020014B18797047C0467001002010B5041C054821F0BDFB0548047104F079FB0C2001F036FE10BDC046380E00207001002038B5074C251C18352368002B00D098470434AC42F8D1034801F022FE002038BDCC0100200340000010B50D4C0123237160220423A35400216522A15402226272201C0322A2730749D5
S28400768008221830E37423F021F9201C04490E223C3023F01BF910BDA4020020BC010300C801030000B5782383B00093044B1120019314210622002301F060FA03B000BDC576000000B5282383B000930023019311201421082201F051FA04F06DFE03B000BDC04610B51A4C201C04F035FE00F047FD00F0A3FA201C2C30FFF7D7F9FFF7C3
S284007700AFFFFFF7ADF900F0BDFAFFF765FF00F0FBF9FFF771FD0A2001F074FE002813D10B2001F06FFE00280AD10C2001F06AFE002802D00C2001F043FD04F03DFE10BD0B2001F03DFDF0E70A2001F039FDE7E71403002000B587B002F0E4FD6A4601231370044B68464433029302F0E1FD07B000BDC04614030020034B1A78002A01D175
S28400778001221A707047C046381B00200020704708B5FFF783F9FFF72FFF08BD002070477047C0467047C0467047C04670B515498AB06B46141C64C964C364C964C364C964C30A7868461A70617823780902194300F00AFD607823780002041C1C43FFF779F9002802D100200AB070BD201C112113F0C8FE0028F6D1201C112113F020FE71
S284007800F1E7C046D801030030B5104A87B06B4632CA32C312CA12C3118868461980927800249A7000F0E0FC02E06088FFF7B8F9201C13F075FF041EF7D1112013F06AFE0A2001F029FD002007B030BD00020300F0B5244D87B06C46161C0ECD0EC40ECD0EC47178327809021143071C684600F0BBFC7478337824021C43201C112113F066
S28400788081FE8A25002822D02323FA5C0020002A01D007B0F0BD01F04DF9041C8920002CF7D0201C0021032201F038F9E36C31787278201C59709A701D702030391C012201F054F9201C00F0C9FA0020E1E7201C112113F0B5FD43425841892540420540D2E7C04618020300F0B589B0244C061C01A8031C151C86CC86C386CC86C3228853
S2840079008B271A80A2789A7069782B780902194300F06AFC6C782B7824021C43201C112113F0BAFD002822D12323F25C0020002A01D009B0F0BD01F0FDF8041C8920002CF7D0201C0321032201F0E8F8E36C29786A78201C59709A701F702030311C012201F004F9201C00F079FA0020E1E7201CFFF716F90A2001F08FFC0027D4E7C04681
S28400798030020300F0B5474680B488B0061C224C01A8031C151C86CC86C386CC86C322781A7069782B780902194300F01DFC2323F45C0020002C03D008B004BC9046F0BD01F0B8F8071C8920002FF5D0381C0121052201F0A3F82B786D78F96C2D021D438846281C112113F0CDFD002811D18B2341460B7042465570381C2D0A957020302A
S284007A00311C012201F0B2F8381C00F027FA0020D2E742461470EDE74C020300F0B5454657464E46E0B488B0061C364C01A8031C171C26CC26C326CC26C322881A8000F0D3FB2323F55C0020002D05D008B01CBC90469946A246F0BD01F06CF88146494689200029F2D0CC6C13F046FE657020703B780020002B3FD000256B00DB19012299
S284007A8098469246C244514648785B7800021843112113F077FD00280DD0637850465A1C62704246517842785B0012020A43E3189A70120ADA7001353B78EDB2AB42DCD86278484601325200D2B2022101F026F848462030311C012201F048F8484600F0BDF90020B2E763785A1C627082785B00E3189A70C278DA7013F012FE0028F2D16E
S284007B00DEE7C04668020300014B00221A71704770030020024B39211A888A431A807047CC04002070B5074986B06A4670C970C230C930C209881180417E684600F054FB06B070BD8402030030B587B001A8064B021C32CB32C2196811609B880321938000F042FB07B030BD9C02030030B50C4B85B06A4632CB32C21B786846137000F09A
S284007B8033FB084C0849094D1034281C103400F02BFB231C103B19680029F6D105B030BDC002030058E50200B0020300B802030000B5037883B001229A4001A91920019206F090F9002000F093FF03B000BDC04638B50D4A0D4C90235B00E25036228023E25202228223051CE25413F057F88823E0522A78D323E2540122D423E254201C40
S284007C001BF09EFF38BDC046257B0000580E002008B5002001F04EFB21F0AAFC08BDC04608B521F0A5FC08BD08B5002000F09EFD08BDC04608B500F0D7FA08BD08B5024800F0ACF908BDC04658E5020038B53221322800D8C1B20A4D2C1C0834201C00F0B7FA43B2002B09DD01380935C0B22D182078013400F098F9AC42F9D138BDC0467B
S284007C80D80F0020014B00221A717047C803002038B5041C06480579047104F03DF8A54204D0FFF7B9FA0B2001F0F6FA38BDC046C803002010B584B001A8084B021C12CB12C21B78137000F08FFA054B187901235840FFF7DDFF002004B010BD78040300C803002000B5084B83B01A68684600929B886A46938000F077FA0020FFF7C8FF22
S284007D00002003B000BDC0468404030000B5084B83B01A68684600921B796A46137100F063FA0120FFF7B4FF002003B000BDC0468C040300014B18797047C046C8030020F0B5474680B443788CB0041C002B1ED1017800290DD1061C083E336F002B01D0201C984700226D23F2540CB004BC9046F0BD04A8224A031CE0CAE0C3E0CAE0C353
S284007D8015681D6092889A8000F02EFA6378261C083E012BE1D104AF1A4A3B1C23CA23C323CA23C3106818609188998092799A714923F35C023B012B04D92178381C00F013FACAE7337C012BF7D001AD04232B70237AE16800226B706960AA609046002BBBD0281C03F016FAAB68381C197800F0FBF96B784046A860002BF2D1ADE7C0469F
S284007E0094040300B4040300F8B5134D00232A1C6D321478002C06D0013378320C2BF8D10026301CF8BD1F01FB1ADF00EE19331C683301225A71301C0021582222F0DAFD3B1C5833EB181C605C609C60DC601C611C75F364E5E7C0461810002008B583690367024B836104F099FA08BD417D000008B583690367024B836104F079FA08BDAA
S284007E80417D0000F0B503788C46002B27D0031C01331A78002AFBD1013B834221D3124A1C7817683A195278510716D5013800250122042104E01C783E19767831420CD0303C54432D199400A218013B52008342F1D163461D600120F0BD0020FCE7031CDAE70025F5E7C046A005002010B5037882B00C1C2D2B0AD0002B0BD001A9FFF799
S284007F00C1FF002806D0019B0120236003E04378002B02D1002002B010BD013001A9FFF7B1FF0028F6D0019A012053422360F2E770B502780023002A28D0031C00E0231C5A785C1C002AFAD1002598421CD8002209E0573CE4B29440013B2D190432984212D8202A10D01C78261C613E052EF0D9261C413E052E0BD8373CE4B29440013B44
S284007F802D1904329842ECD90D600123181C70BD303CE4B2092CDED90023F7E7014B18607047C046B8150020F0B55F4656464D464446F0B48DB00A281CD06B4B68221B681B185B7893430AD108285AD01B283FD00DB03CBC90469946A246AB46F0BD634A634913680431591A5429F1DC591C11601870EDE75D4A5E4E13689046321D93422A
S28400800003D8043642461660E2E700211970317902AC01940029F4D0002300200CE0002B21D0022B19D0032B0CD12029E9D1013200231178002934D0012BF0D12229E0D0202901D00132F4E7107000230132F0E7474A464B04321A60BAE72229F2D1107003230132E5E72029ECD0019B0CADAB42C7D222290FD0191D01911A60013201239A
S284008080D7E73A4A3A48116804308142A0D9013911600B709CE7191D013201911A600223C7E7022BADD0019A9146A242A9D03468216800294BD0029D03E010342168002945D0281CFDF762FD0028F6D1676803AD3B78AB46002B40D0A9452DD904AA91462022924609E001373B780435002B32D004229144019AAA421ED9642B0CD0692B45
S2840081000AD0632BEFD14B46043B1A685178002912D112781A70E6E74B46043B18680378302B04D1437852469343582B08D0291CFFF7DCFE0028D6D1E068FFF77BFD60E70230291CFFF7F4FE0028CCD1F4E70948FFF770FD55E7019B99464D45ECD1A368584698474DE7C046A0050020F0030020B8150020D404030008B5FFF767FD08BD73
S2840081800E4808B5011C3C31016232218184011C70310B4B81620B490B4AC360818500230A49036182828375002203834363382382760163C25421F081F808BD141600201C560020EE02000056ECFFFF7981000008B5031C0A1C0348191C21F021F9C0B208BDC046141600200FB400B5AFB030AB04CB01A8B421009322F09EFC01A9C2B283
S284008200034821F0A3F82FB008BC04B01847C0461416002008B5064820F0BEFD054BD321002249005A54A821FF315A5408BDC046F40300207819002008B502200249FF22FEF744FC08BDC046FFFF000010B52848CB235B00CA22C35C520000218154254C90225200643384509B00062480228452C3580224822284541C88882284521A88D5
S284008280D3240255120AD42402551A8AD5240255120AD6240255A422FF32825C002A15D0D72281540121EA2281549622FF32825C9B685200D35AEB228354190AEC228154D222520083521BF03BFC10BDD72101244454EA2142549622FF32825C5B685200D35AD8228352D22252008352EBE7C046781900203584000030B5184CCB256D001C
S284008300635D83B0012B0AD0A4220023FF32A3549622FF32A35400F023F803B030BD01200121FEF7EFFB635DFF2263339B001B5902201988032300930123FEF7C9FBA8220023FF32A354D3225200A354D4235B00E358002BE1D09847DFE7C04678190020F8B51A4CCB235B00E05CA421031CFF316433625C9B00E358002A12D19625FF3577
S284008380675D1E7DB7421AD1012666546255DB7C93420CD1CB2301305B00E054FFF7ACFF0CE09622FF32A25CDB7C9342F2D0FFF74DFF9623FF33E25C0132E254F8BDFFF745FF635D01336355F8E7C0467819002010B51648CA235B00C35C002B02D1FFF7BFFF10BD013B5A00D3189B00C3189133FF33D9791B7AD3241B020B4301551C0AC4
S284008400D42144540022D5214254D62142540849902252008150012180228152022182228154882283521BF08BFBDAE7781900202187000008B5437E0D2B16D0002B11D10B4BCA225200995C002900D008BD012199549833FF33011C1A31181C0C2222F035FAF3E7FFF77CFFF0E7FFF7B1FFEDE77819002070B58AB00EAC2578CB260F4C56
S2840084807600A65D009001916436B60036596846B17C0172D2214900615A04920593418103210173057608F061F920236A46D05C43425841C0B20AB070BDC0467819002070B51B4A3023D45C82B0002C1ED06D460735291C212005F0D9FC164C261C1436301C20F059FC201C20F056FC301C20F02BFC201C20F028FC02200F49FF22FEF7BE
S284008500E5FA2B78002B0FD002B070BDB420FEF7E9FA0A4BD32252009C54D42252009B58002BF1D09847EFE7B420FEF7DBFAEBE7F81A0020F4030020FFFF000078190020F8B5144CD3235B00E35C061C002B04D0A825FF35635D002B00D0F8BD0E4F381C20F01AFC381C143020F016FC01236355FFF70CF9C8235B00011C0422E01822F0E5
S284008580A5F9C8235B003289E3581A80FFF7B4FEE3E7C04678190020F4030020F0B5CB23524C5B00E35C87B064339B00002004A9E65805F06BFC69460F31212005F066FCCA214900625C013A5500AD18AD0065199835FF35AB78002B00D169E06846C27B022A00D168E0013BDBB2AB70002B03D1635C013B6354AB78EB18DB78C42252004F
S284008600A7180093049805993A687B68FFF732FF00284ED0364A90235B00E250201C21228023E252032182239030E1540CCF0CC0D3202254D420120A94462258170E3F0662463A432250D722A354D822A7581B0A380E00060343A350AB786846ED18EA78DB23E254D2235B00E25ADC23E252027CDE23E154DF23E254E023E758049A059807
S284008680110A3A0E12060A43E25005AB1A78E323E254E423E758010A3A0E12060A43E250B27CE723E254201C1BF04AFA07B0F0BD6254FFF78DFEF9E7C42149006618013BDBB2AB70EB18DB7804980599009332687368FFF7CFFEAB78002BF0D1CA235B00E25C013AE254FFF773FEDFE778190020F586000008B5CA22084B52009A5C51007A
S2840087008A1892009B189133FF335B7A002B02D1FFF75EFE08BDFFF741FFFBE778190020437E10B5002B02D0FFF71AFE10BD818B428B09041143054B028CC48B893312042243FF3306C3FFF729FFEFE77819002008B5044A3023D05403482830FEF7A6F908BDC046F81A0020F403002070B5061C1BF098F9002805D1134CD3256D00635D96
S284008780002B00D070BDD822201C0021520022F031F901236355D4235B00E6500B4A90235B00E25036228023E25202228223E254032252428823E252B422D323E254201C1BF0BEF9DEE7C04678190020C1840000044BD321002249005A54A821FF315A547047C04678190020014B01221A707047301B002000B5002183B00020FEF782F9C2
S284008800084B002201A85A709A701FF05DF8064B8022198852010A4301A81A801FF05AF803B000BD301B0020601E002070B584B06C460734061C0D1C2120211C05F026FB2378022B0ED0012B01D004B070BD02A900223620CA708A704B700B700A7105F041FBF2E702A90123CB704B70362003238E700B700D7105F035FBE6E730B585B04D
S284008880041C01A81FF020F8294B8022198852010A4301A81A801FF01DF8A47C002C1ED0244C0223A370637A002B01D105B030BD6D4603351020291C05F0E8FA2B7801229A40131C626893422CD0192002A9029305F008FB01200121FFF7A8FFE6E7062002A905F0D3FA182002A905F0FBFA114D1920291D05F0F6FA2B7A012B00D02C7247
S284008900042301200021AB70FEF7FCF86C7A002CCCD1094D2B78002BC8D00848FFF726FF2C70C3E7211D192005F0DCFAD2E7C046601E0020301B002034040020A177000030B5454C85B0A378022B5FD0042B5AD0002B01D005B030BD002002A905F096FA0298039901225242D31712184B41591C5AD069460023033117200B7005F0B2FA01
S284008980211D192005F082FA69460231012521200D70A57005F0A6FA01225242D31702A934200292039305F09DFA022301A8A3701EF08AFF294B8022198852010A4301A81A801EF087FF26493520043104F006FDFEF7E4FEFFF7BCFE224800F0E5FC214800F010FD002804D01E4800F0E9FB002829D1062000F006FD002820D1FEF7AAFEDF
S284008A00FEF770FEA6E7FEF7B7FEA3E763785A1C6270032B05D0144B201C1030A3631AF05DFF0323A37095E7101C0830A1D902A805F0F4F8002002A905F054FA99E7062000F0BEFBDAE700200021FFF7EFFE6572FEF748FE7EE7C046301B0020601E002034040020014000007D88000070B58AB0041C1B4A01A8031C62CA62C362CA62C38E
S284008A8022CA22C312781A702178FFF7ADFB2378912B08D1134C2578002D06D0002000F009FC20F065FD0AB070BD01200121FFF7BDFE6570FFF78CFE00210020FEF722F802236846A3701EF0FFFE074B8022198852010A4368461A801EF0FCFEE3E7C046E8040300301B0020601E00207047C046074B10B59A78052A09D0064C05222070EA
S284008B009A70FEF745FE201C14301AF08FFA10BD301B0020340400207047C0464923C1544A23C25411224823C25401224B23C2547047C04670B588B0FFF766F9041E02D0201C08B070BD084A6B4662CA62C362CA62C31168684619609188998092799A71FFF742FBECE7C0460C05030038B5151C041C282221F0AAFEA57738BDF0B54D4634
S284008B8044465F465646F0B487B09B4610AB8246894690461D88FFF7CDFF041E42D0012769465A464A700F7059466A460B0A9370D570C36C2D0A0621157103AD002604938B4600AB281C297005936E7002F0FCFA6A7849235946E1544A23E2544B23E75452464823E2542023E65482235B002387231C20334946424626859976A2870E4AE1
S284008C004023E6521378591C1170221C423213703E23E754119B002B0BD01199A161201CFFF726F907B03CBC90469946A246AB46F0BD024BA361F2E720230020198B000070B52C4B2C4C996ADA6A216062602B4D2B4E2B79291C2372AA6CEB6C22616361284B201C1B683031A3617723F35C213023776E23F35C63772023EA5CA27721226D
S284008C80AA5CE2772222AA5CE254112221F01EFEEB8863862A7B3423E2547A23F35AE3867123F25C3823E2549223F25C3923E2545023EA5C3A23E254327C3B23E254124B9968DA68216462641A8A4823E2525223EA5C4A23E25432884C23E252727A4E238036E2543268736822656365EA7A5823E25470BD70480020C0220020B848002087
S284008D00104900205848002030480020F0B5A4220E4C920085B0051C0F1CA61802E01034B44210D010226846211C21F0CFFD6A461388AB42F3D1381C6946102221F0C6FD012005B0F0BD0020FBE7C04600410000F0B5071C87B00D1C161C1C1C9A4209D002A9FFF7D3FF002804D069460B7DDA0700D4F6E0092F00D9F8E0834BBF00DB599E
S284008D809F462B1C2A1C603303E001329A4200D1F8E01078FF28F8D07C4B29686A689962DA627B4C2B7AA96923712A696B69A264E364784B784E19602A7F7723F2546A7F6E23F254AA7F2023E254E97F2122A154EA5C201C2223291CE25421311122303021F074FD6B8EE3803423EB5C2373EA8E7A23F2523823EA5C7123F2543923EA5CF4
S284008E009223F2543A23EA5C5023E2543B23EB5C296C6A6C3374614B9960DA604822AA5A1A824A23EA5C5223E2544C23EB5A33804E23EB5C737280362A6D6B6D326073605823EB5CE372012007B0F0BDA642FAD000D991E008200021321C2B1C00F042FF0028F0D07C214E48FF3101F039FA0120EAE7A642E7D0E6D92F19321B381C0021AA
S284008E8021F0B8FD06232034A4B23B702037A642F9D802200021321C2B1C00F023FF0028D1D0CD213E48490001F01AFA0120CBE72A883C4B9A42C6D100232B800120C3E7A642C0D0BFD92F19321B381C002121F091FDA8223B1C28342033A4B21A702837A642F7D807200021321C2B1C00F0FAFE0028A8D066212A48FF3101F0F1F9012083
S284008F00A2E76C46063490204000211C04F0BEFF812069464000073104F0B8FF224802A904F098FF2378002B00D18CE7013BDBB2DA00D21A92006946AA18029CC8791C32291C0B78002B08D04B7843431D011B181B016519E3184D618B611C319142F0D171E70F48D32101F0BBF903E70C489B2101F0B6F9012067E7321B2819002121F037
S284008F8039FD67E700205FE7E8E5020070480020B84800205848002010490020304800202C050300FFFF00001B020000F0B50E4C83B0261C051C0F1C283608226846211C21F084FC6A46D388AB4205D00834B442F3D1002003B0F0BD381C6946082221F075FC0120F6E7C046C041000000B50B4B01228240101C1A7883B01043187001A87B
S2840090001EF062FC064B8022198892010A4301A81A801EF05FFC03B000BDC046701B0020601E002010B5154C82B02178002913D0CB0720D4002301200133DBB20A1CDA401042F9D001229A40D3B25940217000F037F92378002B01D102B010BD01A81EF033FC074B8022198892010A4301A81A801EF030FCF0E70123E7E7C046701B002048
S284009080601E00207047C04608B501F043F800F011FE08BDF0B55F4656464D464446F0B41B4C071C1B49002083B0261C8146072301209C3601AD88469B46824602E00434B44217D0281C211C042221F0FFFB2B78BB42F4D16A885946D30850460A409040021C4046C15C04340A430121C2548946B442E7D14B46002B02D00020FFF776FFF2
S28400910003B03CBC90469946A246AB46F0BDC04610E60200741B0020F0B557464E464546E0B4264B84B00F1C98423DD0430412D4C308CF180723184001238340181C3B781843012338709846404604B01CBC90469946A246F0BD02AD291CFFF727FF80460028F1D0AB88002BEED06E4607210123002406368A4699462B68610059180222A8
S284009180301C21F0A3FB32885146D3080A404946FB1891400A1C197801340A431A70AB88E4B2A342E8D8CFE7081C0622FF2121F021FCFE2301213B708846C5E702400000F0B556465F464D464446F0B487B000236A46694600939380FFF79EFF824600283DD02C4B002501269946EB009BB29846002402E00134082C39D06A46535DE34012
S2840092001E42F7D0424613199FB2381C02A9FFF77DFD002821D06A465389002B33D0039B002B30D0049B002B00D09847381C00F013FE6A4683465189381C039A00F038FE02281DD0002816D16B465A890399381C5B46FFF77DFD0028CCD100239A46504607B03CBC90469946A246AB46F0BD0135062DBAD1F3E7AE210648FF3101F030F843
S28400928000229246EBE798214846FF3101F028F8C8E7C0464005030010B50549FFF73CFF041E02D00020FFF7A1FE201C10BDC046741B002008B500F069FE002008BDC046F0B5374E85B000250124A95DEFB200230A1CDA40D8B214421CD10133082BF7D10135062DF1D13827381C00F097FE6C4600281BD1381C6946FFF708FD002833D16C
S284009300331CB11D1A78002A40D101338B42F9D105B0F0BD0122FF009A40C7199143381C715500F07BFE6C460028E3D0381C6946FFF7ECFC0028E3D06388002B2AD0019B002B27D0A368002B00D0984762886368381C002100F0C6FC0028D1D0C2211148490000F0BDFFCBE7029B002B00D0984761886268381C00F09BFDFD231842BFD00B
S28400938080210848490000F0ABFFB9E70020FFF72DFEBDE7BB210348490000F0A1FFD1E7741B002040050300F0B54F464646C0B4114C9C231B199846104B83B0061C01AD0F4F994602E00434444510D0281C211C042221F07BFABE4202D06B88B342F2D128784946043403F0F9FF4445EED103B00CBC90469946F0BD10E602007804002025
S28400940001400000F0B5474680B482B000236A46694600939380FFF77FFE8046002813D000250126EF00BFB2002402E00134082C11D06A46535DE3401E42F7D0381980B200F0ECFD0028F1D100239846404602B004BC9046F0BD0135062DE3D1F6E7C04610B5831C041C09480E341A78010A4A4011094A4000025040110348405201504047
S284009480013380B2A342F0D110BDC046FFFF000010B5114B1978002910D0104B1A8882420FD04C1EE4B20433A4001C1904E01A1C11880433814205D0A342F8D10024201C10BD1A1C5388141C002BF8D124210448FF3100F005FFF2E77C1D00207C1B00205005030038B5041CFFF7D2FF002804D098210C48490000F0F3FE0B4D287843B243
S284009500002B08DB431C2B70084B800018180470240A447038BD32210248FF3100F0E0FE2878EFE7500503007C1D00207C1B002010B5041CFFF7ACFF00280ED0201CFFF7A7FF094B042219780139C9B21970074B8900591821F0BAF910BD9F210448490000F0BEFEEAE7C0467C1D00207C1B002050050300F8B5084F061C0D1C141C78781E
S284009580311C2A1C231C00F013FE7878311C2A1C231C00F0A1FEF8BD7C1D002030B51B4C802285B0051C00216078920100F08EFE00280AD1607800F06BFE802260780021920100F083FE00281CD001236A465B421380412393705423D370532313714E235371762393713123D37102950020ED43694610220395FFF7BDFF002802D01023D9
S284009600638000E0002005B030BDC0467C1D002000B583B0694606310023022200200B80FFF7A8FF03B000BDF0B556464D465F464446F0B48DB002911699061C9146002951D0CA18002101928B4649465D18ADB24F46029CA94514D140E004AA1023301C211C00F073FD6A46938AD28AAB4206D2D21892B2BA4202D9AA420CD2171C6B4610
S2840096805C8B002CE9D100200DB03CBC90469946A246AB46F0BDEA1A92B2904610344444A4B2A2469F421BD3EF1BBFB2029CB8464F464246019BAD1AADB2002B1BD00199224B4246891A587853460191991A89B2019A434600F03AFDAF42D2D10120D3E769464C8BE5E7194A52889A1892B2934600220192A9E7002AEED003974746B04608
S2840097005646AA465D46A34600E0271C0024102F03D93C1C103CA4B21027F61BED1BB6B24046311C08AAADB23B1C00F00FFD281C08A93A1CFFF71EFF0028A5D0002CE4D15C46039FAB4646465546C5E77C1D002008B5064B5B68002B03D09847002800D108BD034B187800F093FDF9E77C1D00208804002038B501235B4203704370041CE1
S284009780FFF76EFE0C4DA073000AE073211C68881022FFF7EFFE041E06D06B880F221F3393436B80201C38BD68786988102200F08DFD0028F6D1F0E77C1D0020F0B5564644465F464D46F0B4474D8DB0281C083004F05EF96A7800232B846B849246101C002104AA102300F0B1FC069C0026013CA0463E4F544608E000236E709C420CD061
S2840098004046FFF7CBFE002810D16B780133DBB2012BF1D86B709C42F2D1381C344900F05FFD4046FFF7BAFE0028EED02B78A246002B49D000236F46994608AC00260E3709E043465A465A804B460133DBB299462B784B4538D94A469300264A5046D218518810239046221C00F070FC2389201CE3806B88A6806681A6819B46FFF77AFFF2
S284009880002818D0424651882389504600960022FFF7CAFE00280ED0E2886B885846D3180F330F229343391C02226B803E80FFF761FE0028C5D10024201C0DB03CBC90469946A246AB46F0BDFFF7A2FE041EF3D0094B24355246281C1A701FF05DFA281C1FF032FAE8E7C0467C1D002050050300DB0200007C1B002088040020F0B51A4DDB
S28400990083B0041C0E1C6F88FFF734FF00281DD0002E09D0E279A379120268881A43311CFFF728FE002813D0E379A2791B0213436A8869469B180F330F2293436B8006310023381C02220B80FFF714FE03B0F0BDE379A2791B0213436A889B180F330F2293436B80F2E7C0467C1D0020104A08B5518880239B015B1A9BB2834206D30D4966
S2840099808B4202D8137A002B09D008BDFFF716FF0028FAD10848094900F0A2FCF5E7101C08300121064A074B04F054F8EDE7C0467C1D00200F040000500503001B030000102700001D9B0000F0B557464E464546E0B44C4C88B06368002B09D09847002806D1052008B01CBC90469946A246F0BD608C002839D1238C0020002BF2D0181C69
S284009A00FFF746FD061E56D0C278837812021A4304AD111C1023904660782A1C00F096FB638C002B49D063882A899A46914636480421002200F056FC2A89638C218C334800F052FC638C4A462B81994552D892B291460027281CAF80EB806F81AF81FFF789FE002807D10120BCE7103080B2FFF77DFF208CC4E760784146009700224B4603
S284009A80FFF7D2FD0028EED0EA8863886946D3180F330F2293430E315046022263800F80FFF768FD0028DED05246B2705246130A27846784F370002094E72889103080B2FFF754FF208CFFF7E3FC061E14D0F278B37812021A43111C1023904660782A1C00F034FB62882B899246628C9946002AAFD09CE71A1CAAE70348054900F0F0FBBF
S284009B00E5E7C0467C1D002050050300580503004E03000008B5FFF757FF08BD08B5084B5B68002B03D09847002800D108BDFFF745FE0028FAD10348D92100F0D1FBF5E77C1D002050050300F0B5474680B4564C00232370012388B000255F42FF266A461023281C002100F0F1FA6A461388002B03D19278412A00D16CE00135EDB2022DEE
S284009B80EDD1FF2E35D010236670301C6380102104AD08AE0F2710232A1C00F0D7FA2B1C1978FF2909D10133B342F9D101223823E25408B004BC9046F0BDEA89281C9046FFF74EFC804509D061881F31B94389B26180364B9942E9D86078DCE72B88002B23D0E9886388C9181F31B94389B26180EFE700232E4D637002204042FFF7CEFC1F
S284009C00002803D0FFF704FD00280BD163780133DBB26370012BEFD9EF21281C890000F05FFBE9E700232370C0E76B88181C9846FFF72EFC002833D063881A0A8370C2702A89002A27D0EA881F329B18BB4399B26180BEE76A46D378542B00D08DE71379532B00D089E753794E2B00D085E79379762B00D081E7D379312B00D07DE7029BAE
S284009C80039A5A40013200D077E7BB4200D374E71F1C2E1C71E74046FFF74AFC6388D2E74046FFF71FFCC7E77C1D0020FF1F00005005030010B5084C3823E35C002B01D1FFF742FF231C243301221A73034B6363034BE36210BDC0467C1D002051970000581B0000F0B54F464646C0B4051C85B08946171C9846002850D0002B4ED0304EAB
S284009D007468002C08D0A047002805D1052005B00CBC90469946F0BD381C103080B2FFF725FE281CFFF7B4FB041C0320002CEED0E578A3782D021D437078291C6A46102300F004FA69460B8949467A1804209A42DDD86A4649469180D78055819F422BD09389694601338B81684641467588FFF7C5FD031C0120002BC9D0A5702D0AE5700F
S284009D8069468B89642B07D94B883384002373843C23F35C002B06D00020B8E709480A4900F09EFAABE7301C3C300121074A084B03F050FE0020AAE700239381D4E7C0467C1D00205005030025040000B80B0000159B0000F0B5474680B4041C82B08846171C1D1C002812D0002B10D0201CFFF74FFB002814D0C47886782402211C3143A7
S284009E00032000290ED102B004BC9046F0BD0E480E4900F065FA201CFFF73AFB0028EAD10320F0E74346DA19094B9A4201D90420E9E7084B4246587800953B1CFFF7F4FB0028F4D00020DEE75005030076040000FFFF00007C1D002010B5041C84B0002815D0201CFFF714FB002819D0C17883780902194302D1081C04B010BD094B6A469E
S284009E805878102300F062F96B461989F3E70648064900F025FA201CFFF7FAFA0028E5D10021E8E77C1D00205005030092040000F0B5461E041C3048B6B285B00D1C171C864217D88023DB00994213D8201CFFF7DFFA002804D0C37882781B0213432FD1264E7368002B0AD09847002807D1052005B0F0BD2248234900F0F2F9E6E7281CDB
S284009F00103080B2FFF732FD33787F2B2ED86A4600236846391C93805381938176885480D5801581FFF7EAFC031C0120002BDFD0201CFFF7D7FA8670360AC6700220D7E7201CFFF789FFA84206D00C4B1C845D84FFF73AFD0028CBD10020002FC8D0201C00212A1C3B1CFFF735FFC1E70448064900F0B6F9CBE7C046FEEF00007C1D002089
S284009F8050050300DF03000007040000F8B5051CFFF778F81C4C6368002B04D09847002801D10520F8BD002D1CD12278002A17D0164B561EF6B21C1DB600A6190025144F00E004341888062805D0B84203D0FFF7AFFA0135EDB2231EB342F2D1002D09D10020DFE7002000F053F9012000F050F90020D7E7FFF7E2FB0028F1D105480649B7
S28400A00000F06EF90020CDE77C1D00207C1B0020FF0F000050050300FB04000008B5FFF737FA002807D08378C07800021843431E9841C0B208BD0020FCE7C046F0B557464E464546E0B499462F4B4003CB180C1C1B18494684B0151C9A4600294FD02B4E731E9A4546D853464B449E423DD380234C449B019C4233D84B46002B2ED04946E3
S28400A0804B46102900D910239BB298461A1C6846514620F01BFC4246002A17D0002407E02F780135BE420AD10134E4B2A0450DD96B461E5D002DF3D1FF27BE42F4D0002004B01CBC90469946A246F0BD494642468B1A9BB29946C244002BD0D10120EFE70B48A92100F0FCF8C6E70948A82100F0F7F8BCE70648A72100F0F2F8B3E70448F8
S28400A100A62100F0EDF8AAE700010000004100008405030010B5094CFF231C4203D00848462100F0DDF8074B074A9B189C4203D003484A2100F0D4F810BDC04600010000840503000041000000C0FFFFF0B54746144D80B4144F4D1940031C1C2D187B1E0E1C90469D4218D82B199F4210D3802336199B019E4203D90C485A2100F0B0F8AD
S28400A1804046291C221C20F0A1FB04BC9046F0BD0648592100F0A4F8E9E70448582100F09FF8E1E7000100000041000084050300F0B5474680B4334F4003CF190E1C151C1C1C3F18002B3ED02F4B9846013B9F4242D83B19984546D3802336199B019E424AD8FF20802638407600361AA64200DD261CB3B2191C2A1C98461FF0D1F9381CC8
S28400A2001FF0D6F94346E41A80235B00A4B2F7199846AE19002C13D0251C444501D980256D00ADB2321C0020291C641B1FF0B8F9A4B2381C1FF0BCF97F197619002CEBD104BC9046F0BD11486D2100F049F80E4B9846013B9F42BCD90C486E2100F040F83B199845B8D209486F2100F039F8361980239B019E42B4D90448702100F030F8DC
S28400A280AFE7C04600010000004100008405030038B50B4B4403E4180A4B013B9C420AD880239B01E518201C0134FF341FF07CF9AC42F8D138BD0448902100F011F8EFE700010000004100008405030008B5131C0022FFF7B3FE08BD08B5FFF7AFFE08BD7047C0467047C0460FB404B07047C04608B5094B1868002806D0C268002108300F
S28400A3001960002A01D0904708BD044A044B1A8003F0F6F9F8E7C046D01D002002C7FFFF2C230020014B00221A607047D01D002010B500230374037882B0041C022B05D0042B0FD0012B03D08623037402B010BD8068011C083108F0C5FC0304F6D504232374F3E70021806813F01AFE002013F0B1FEEBE7C368002270B51A7082780321BE
S28400A3800A401A7045791C78012215400426AD00B4432C431C70C578E4B215400826ED00B4432C431C7004791025224014011A78AA4322431F2422401A70052202704279002A08D082795A70C2799A70427A1A71027ADA7070BDC3680170023BF6E7C04608B5603802F068FF08BDC046F0B54D4644465F465646F0B48BB006910593051C7F
S28400A400587891461C698046002860D027276F4400233B70069F032F59D93B1C013B9BB20793002617E003239A465644B6B2ED18A37840465B000333E418C31A9BB298461BB2002B44DD272200236A44069F1370F31CBB423CD2637822781B0213432B70A21C1B0A6B7004924B462027D95D059FDA8F281DFB786778824620783F020743F2
S28400A480009757460297079F27206844BF1B0190B8B20390049801F0C1F9A8708928C7D00028C0D127226A4410785146E87001F045FC63782278043080B21B021343824605994846002202F0D9F95346ADE70026301C0BB03CBC90469946A246AB46F0BDF0B54D465F4656464446F0B48BB006915E78041C91469B461D69002E6CD0272175
S28400A500069F002369440B70032F68D9012E54D9069B0022013B9BB20793904628E02721694408785146E07001F008FC6B782A78043080B21B028246134348460022594602F09CF95246534643449BB29846A418023EF6B20235002E36D02721002369440B70069F43460333BB422DD2012E26D06B782A781B0213431A0A271D6270237037
S28400A580BA465F46FF7849462022885CC98F2722059757466A440197079F00924246BF1ABFB20297059A01F0EBF8A0708928CFD08628B4D103229246C5E700218846094A094B1A8003F088F840460BB03CBC90469946A246AB46F0BD00229046F4E700218846F1E701C7FFFF2C23002070B5037A86B0041C06684268AA2B19D0B17800290D
S28400A60012D0117B0220814301290BD0118A3D4A914207D8002B0DD1A37A002B02D13379002B07D006B070BD717A0B29E9D1F9E700230372032002F08FFD051EF2D0337801A80370A96E727A3B33CB181A70227A5A7002785023911CE9520B234372F378012B4BD00123C37000238370AB6E3B32191C3B319B18C160036173794371F388C0
S28400A680C380337A037201230371FFF773FE63682121585C3022A8545A5C022A2AD0032A03D1196B5A6B29646A642022995C4E22A9543A22995C4822A954D98F4C22A9529A8F4A23EA52104B0422EB655823E95C281C0A43D2B220210A437F210A40EA5400225923EA54AB6E3B336B65617A02F02BFC97E71A8D2A875A5CD0E70023C37046
S28400A700B2E7C046F7FF0000E1A3000000B583B0002920D081683A220378162B18D828489B00C3589F460B78002B11D14B780622012B0DD0087901AA093100F033FF6A4693790922012B03D16B469A880932D2B2101C03B000BD41684C22DDE70322F7E70222F5E70422F3E70122F1E78878033101F0E4FAC21CD2B2EAE70B780522012BB8
S28400A780E6D0C87801AA083100F00CFF6A4693790822012BDCD16B469A880832D2B2D7E78A7852000332D2B2D2E78B780322002BCED1C878043101F0C1FA021DD2B2C7E7ACE60200F0B5474680B4061C884600203E25422702F096FD002816D084683368615DDA789142F5D0E25D1B7A9A42F1D141460968A28FCB8F9A42EBD163799A07A5
S28400A80008D401221343637100E00024201C04BC9046F0BD103002F04FFD002002F072FD0028F3D101F032FEF0E7C04670B5151C50220C1C0678895A7118A1524372C3785A425341C370A36E1A1C3B32C26002783B329B18036101230371FFF78BFD2122A95C3023E154AB5C022B33D0032B03D12A6B6B6B226463642023EA5C4E23E25443
S28400A8803A23EA5C4823E254EA8F4C23E252AA8F4A23E252124B0422E3655823E15C0A43D2B220210A437F210A40E25400215923E154A36E3B3363654923EB5CAB2B0DD04F33DBB201229A424941C9B2201C02F03BFB70BD2B8D2387AB5CC7E70121F5E7E1A30000024B00221A605A607047C046D41D002070B582B06D460635041C8D20D8
S28400A900291C400003F0C2FA1C206946FF30073103F0BCFA2A78214D013A2B789A4236DD40236946E25ACB799A4229D8022002F013FC011E29D00023E25CCA540133582BFAD140208E6E205A331C626C441E3B33A4B2002809D03C3634191078013218700133A342F9D18B6E3B334B64281D02F0F7FD012000F0E2FC2B7801332B7004E096
S28400A980074A084B1A8002F0A7FE02B070BD064A044B1A8002F0A0FEF7E7C046D41D002002C3FFFF2C23002000C3FFFFF0B54D465F4656464446F0B4CD4DA1B02B78002B06D121B03CBC90469946A246AB46F0BD6E68002E1CD0002311AC726C119310936360A360E360236113781C21181C0E940F96884301280FDD281D02F0D7FD301C36
S28400AA0002F05AFC2B78013BDBB22B70002BD8D0012000F093FCD4E79B079B0FA37013785B07DB0F6371D9B213781B07DB0FE3701378DB06DB0F237100292CD00520131C8446052198785F7800023843E080D87820721B79E26063724023F35A21706244591A226161702023F15CF08F00F082FD337B012B13D0002811D0012800D1D2E192
S28400AA8010A8012341210370694400230EA80B70FFF7ACFDB0E70321931E8C46D2E74923F35C0422191C9143AB2903D04F33DBB2012BE5D8002310AA1370E3789846002B03D16779012F00D1C4E1A378002B19D0E378012B00D1ACE10EA801F007FF4923F35CAB2B00D1B3E14F33DBB20022012199425241D2B241236B440EA81A70FFF71D
S28400AB0075FD79E7607A0690162800D969E1794A8300D3589F46032002F01EFB8346002800D1DAE02023F35CF28F069392466278816E276920780023032A00D145E25846502283525946201C321C1623FFF76EFE52E7032002F000FB8246002800D1BCE0E378217822699B462023876E8946F05C9046F18F5A4600F085FC62780023022ADE
S28400AB8000D1E7E15046502283525146201C321C1423FFF74BFE2FE7032002F0DDFA8246002800D199E023692178E27898462023876E8946F05CF18F934600F063FC62780023022A00D18CE15046502283525146201C321C1223FFF729FE0DE7032002F0BBFA0C90002878D02378816E3B33C9182023F35C00200993F28F27690A92069ABA
S28400AC006378033A9A46531E9A41012353400B968B460D9307905646DBB29A46002E00D137E10D9901224B421A400892B04619E07B783A781B021343584643701B0A8370079B03210333DBB2524607938B44002A00D07DE14046BF19861BF6B2B046002E00D116E1FB1CB878191C994601F066F8C61CF6B2464500D919E17B7839781B0289
S28400AC800B43B978E2780091089948460190029109980A9901F030F85A4610700028C7D15346002BD6D17B783A781B0213430B98211C012201F0E2FDCCE70E990EA888460FA90F9CFFF77EFD002800D119E2427903231340022B00D198E02B7896E6301C211C01F08FFD0EA8FFF780FC84E6C046D41D002008E7020016AF1C20FF30391C6B
S28400AD0003F0C4F8032002F027FA80460028E4D020784146896E069A3B300818002A00D1DCE0D6498C463978321C0139231C89B2E04742465023D0524146201C321C0123FFF774FD58E60FA90EA8FFF73BFD011E00D151E6437903221340022BBDD10EA801F004FD4923F35CAB2B00D11CE24F33DAB20121002391425B41012241206844E1
S28400AD80134003700EA8FFF731FC35E6032002F0E3F980460028A0D02023F35C62789946F38F816E9A46207827690023032A00D16CE14046502283524146201C321C0D23FFF734FD18E6301C211C01F0F9FD002800D011E62B7819E6301C211C01F046FFF5E7822310A90B704923F35CAB2B73D04F33DAB20121002391425B41DBB24122E5
S28400AE006A440EA81370FFF7F1FBF5E5110700D477E18269002A00D1EEE543720023037208309047E8E54923F35CAB2B00D03DE640E60EA80FA9FFF7C5FC002800D14BE6437903221340022B00D145E62B78DDE5012250E616ABE288872099464000191C924603F013F848460388534500D12CE6A37810A85A425341833303704923F35C79
S28400AE80AB2B29D04F33DBB241469F424941CBB2B5E70D9B0121013319405246667827690D91002A00D187E15346013BB4E6744B744A0B9E1A8002F00FFC00230C9950228B52069A052A00D151E1201C0C99321C0423FFF7ABFC8FE5012390E76A4B9C4621E74A463B32BA1806921370984200D15CE1434600210122077AB046C068894643
S28400AF0007921E1C0AE000F033FB7378013FFFB24B4500D137E1002F00D13FE1037832789A42F0D872784A45EDD94278D207D20FD2B25A45E7D106990A1C4A445370079B0133DBB207934B460133DBB29946DAE70B9EB3E74A463B32BA1806921370984200D126E10122077A002107925A468946514251414346C068B0468B461E1C0AE0B3
S28400AF8000F0F6FA7378013FFFB24B4500D1F5E0002F00D1FCE0037832789A42F0D872784A45EDD94278D207D20FD2B29345E7D106990A1C4A445370079B0133DBB207934B460133DBB29946DAE73B3008180890804601208044089942460B70B04699460790161CE2780698514600F099FB031E38D04278017812020A437978387809025D
S28400B00001438A4234D3B978494532D93270120A72709A780120B270F2780243F270D978D2B24908414001400220490082430A43F270D97801221140F2780420890082430A43F270079A06980432D2B207924A460132D2B291465146E27800F061FB0436031EC6D1089901230B704646079B66E5B9784945B6D14646079B60E5EDA30000EC
S28400B0802C23002000C7FFFFE1A400003B300818079007998346012083440B7006930890E2784846514600F03BFB031E24D04278017812020A4379783878090201438A42EED3B97806988142EAD959460A70120A4A709A788A70089A51460332D2B2089203229344021C0132D2B20692E278484600F016FB031EDAD1079901230B70089BCC
S28400B10057E62023E05C4346E18FDA7800F0BAF98146002800D16FE42123E35C211C16AF102218A828313B701FF0D0FBA38F40463B833A23E35CBB76E38FBB83C3785A425341BB77027A2223FA544379002B00D0C3884A463B849369002B00D14CE44046616C0278381C8A180221984744E4081C02F0A2F80EA8FFF739FA3DE44646002F48
S28400B18007D0079BFEE44646002F08D0079B1BE54646069A01231370079BF3E44646069A01231370079B0FE50123E6E5012313700AE501231370E5E407980B9E0123002800D17BE6031C79E6F8B5041CFF20002C09D0201C0121FFF799FA6378071C1B18FD203A2B00DDF8BD7E1E6168A568B6B2002F09D001360023EA5CCA540133B342E6
S28400B200FAD163786168DB19CF19637067600020E9E7C04670B5041E07D04368002B04D04378FF20002B02D170BDFF20FCE7201C0021FFF76BFA6378051C87209D42F3D8A1686068002917D06E1EB6B2002D08D001360023C25CCA540133B342FAD1637860685B1BDBB2401963705A42534160605B42FD201840D7E7A060F2E7F0B587B06F
S28400B2800DAC9C4626880CAB0EAC002527781B7801AC01956560A560256165466572A170E2702371E680002E01D001236371406D2772E060201CFFF75DF8207807B0F0BD0079C0097047C0463523C05C431E9841C0B2704738B50E4D041C0020AC4210D0E025ED00AC4200D038BD0029FCD1081C012AF9D10749D2008A185268181C90475D
S28400B300F2E70029F0D1012AEED10022F2E7C0460307000064E702002023C35C022B04D0013B581E8341D8B27047038D024A00209A424041C0B2F7E7F7FF000000B50B4B01228240101C1A7883B01043187001A81CF0BAFA064B80221988D2000A4301A81A801CF0B7FA03B000BDC046DC1D0020601E002070B51F4D82B06C782878231C7F
S28400B380012601E09C422BD00133DBB2191E022901D900210023021CCA401642F2D06B7001238B405840144B89002870591801A804221FF08BFA019B002B13D09847287800280BD001A81CF07FFA0C4B80221988D2000A4301A81A801CF07CFA02B070BD6C70EDE7064B074A1A8002F089F9019BE4E7C046DC1D002074E70200601E002096
S28400B4002C23002000C0FFFF70B50024002582B0031C0E1C0094019500200021082E01D902B070BD191C6846321C1FF04FFA00AB9819431E1B787F2B02D800980199EFE70822921BFF211FF0D5FAF6E710B5054C02E0C368A34203D006F014F80028F8D110BDC046F5A8000010B5041C002003E082681378A34203D0FFF7E8FF0028F7D120
S28400B48010BDC04638B50C1C151CFFF7EDFF002815D0012D15D0002D11D1837E002B15D10020013BDBB2FF2B09D00288A24207D0002BF6D0013BDBB22030FF2BF5D1002038BDC37F002BEBD0806AEAE7406AE8E7012903D0002903D1406A7047806AFCE70020FAE72030704738B5151C1C1CFFF7C9FF002819D0C168002916D0037A002B3A
