S02B0000416C6C5F53616D5232315F417473616D723231673138615F52663233335F32344D687A5F4763632FED
S284000000D83500207DB7010000000000A5A9010000000000000000000000000000000000000000000000000000000000000000000000000000000000000000000000000000000000000000000000000000000000000000000000000000000000000000000000000000000000000000000000000000000000000000000000000000000000CA
S2840000800000000000000000000000000000000000000000000000000000000000000000000000000000000000000000000000000000000000000000000000000000000000000000000000000000000000000000000000000000000000000000000000000000000000000000000000000000000000000000000000000000000000000000FB
S28400010000000000000000000000000000000000000000000000000000000000000000000000000000000000000000000000000000000000000000000000000000000000000000000000000000000000000000000000000000000000000000000000000000000000000000000000000000000000000000000000000000000000000000007A
S2840001800000000000000000000000000000000000000000000000000000000000000000000000000000000000000000000000000000000000000000000000000000000000000000000000000000000000000000000000000000000000000000000000000000000000000000000000000000000000000000000000000000000000000000FA
S284000200000000000000000000000000000000000000000000000000000000000000000000000000000000000000000000000000000000000000000000000000000000000000000000000000000000000000000000000000000000000000000000000000000000000000000000000000000000000000000000000000000000000000000079
S284004100090001006D250020000000000000000008000400E01A0020000000000100000007002800801E002000000000010000000200000158140020000000000100000001006000D8110020A151000000000000DCDB01000500014008B502F0FDFA02F017FBFCE7002934D00123002210B488422CD301242407A14204D2814202D2090148
S2840041801B01F8E7E400A14204D2814202D249005B00F8E7884201D3401A1A434C08A04202D3001B5C0822438C08A04202D3001B9C082243CC08A04202D3001BDC082243002803D01B0901D00909E3E7101C10BC7047002801D00020C04307B4024802A14018029003BDC046D90000000029F0D003B5FFF7B9FF0EBC4243891A1847C046F8
S284004200002941D010B4041C4C40A44601230022002900D54942002800D5404288422CD301242407A14204D2814202D209011B01F8E7E400A14204D2814202D249005B00F8E7884201D3401A1A434C08A04202D3001B5C0822438C08A04202D3001B9C082243CC08A04202D3001BDC082243002803D01B0901D00909E3E7101C6446002CC2
S28400428000D5404210BC7047002806D003DB0020C043400801E08020000607B4024802A14018029003BDC046190000000029EBD003B5FFF7A7FF0EBC4243891A1847C0467047C0469C460304F0B51B0C17043F0C150C1E1C041C000C7E436B4347434543FB18300C1818874202D980235B02ED18030CED1863465C434A433604360CA118EB
S284004300000480194919F0BD08B5054B020A5A77020E18779A77DA77024B1B68984708BDB4000020F805002008B520220B4B00280AD19854212298542222985423229854074802F00DFB08BD9954080A21229854080E2222985423229854F1E7B40000206543000008B524220B4B00280AD19854252298542622985427229854074802F03C
S2840043801BFB08BD9954080A25229854080E2622985427229854F1E7B40000200943000008B502F0ADFA02F0D7FA02F001FB08BD08B502F0A7FA02F0D1FA02F0FBFA08BD08B5034B1860034802F09EFA08BDC046F805002029430000014B00221A707047FC05002010B5041C00F090F9201C302100F07EFE012010BDF0B58178427809028B
S2840044001143C2788679120411430279360212061143427985B01643C279019012041643027A4C4C12061643A278031C607812020243E078657900040243207900060243A07900022843E5792D042843257A2D062843914244D0002303A801A93E4A039300F01AFA0024002802D1201C05B0F0BD00216822039819F00FFB039B01204A22CC
S2840044809852032530229D54019A0121957856782D023543D678577936043543167936063543967936023E43D779127A3F043E43120632435A6448221D6499544C2298524E2299540D21502299525822985C0421014308200143995459229C540124C4E78642B8D1987A5A7A197B00021043DA7A0902114300F084FC019811230370002334
S2840045004370A278637812021A43E37861791B041A4323791B061A43A3791B020B43E17909040B43217A827009060B43110AC170110C120E42711A0A8371C2711A0C1B0E0171027243720A2100F0D2FD012400F0DDF88AE7B40000209D45000008B5034B00221A7000F0EAFB08BDC046FC05002008B5034B02221A7000F0E0FB08BDC046F9
S284004580FC05002008B5044B01221A70FFF710FF00F0D4FB08BDC046FC05002008B5837F102B00D008BD11238377B022825C031CC277903002781E339A7042780A21DA7082781A71C2785A7102799A714279DA7182791A72C279181C5A7200F089FD00F095F8DFE730B51D4D83B02C78012C20D0002C10D0022C06D0032C02D1281D17F071
S28400460005FC03B030BD00F087FBFFF7C9FE1448FFF7D6FEF5E7281D17F020FC114BEB6001232B74104B6B6102232B7000F086FBE7E7002301A8019300F0A4F9002804D103232B7000F07AFBDBE70198074904702F22013019F08CF9F2E7C046FC050020854500001027000071450000B4000020054BC36010230374044B4360044B0360E0
S284004680044B83607047C04680DB0100D9430000E54500005D45000008B502F071FA08BD08B5002002F094FA012002F087FA022002F084FA08BDC04608B5002002F074FA012002F07BFA022002F078FA08BDC04608B5022002F072FA08BDC04608B5022002F06CFA08BDC04608B5022002F05CFA08BDC04608B5022002F060FA08BDC0464D
S28400470008B5012002F064FA08BDC04608B5022002F05EFA08BDC04608B502F031FA002002F042FA08BDC04608B5002002F050FA08BDC046027838B5194B002A24D01A7A0132D2B21A72032A17D900221A7203225A721D1C011CDA68B8390C1E944203D117E09C420DD01A1C1368002BF9D1281C01F04AFE00F01EFB38BD00225A721D1D9C
S284004780E8E724681460F2E71A7202225A721D1CE0E7181C0C3001F05DFE011CE7E7C0461806002038B50A4C0023251C1035211C281C1831637263602361E360236001F023FE211C281CE03101F01EFE38BDC04618060020F0B52E4D47466B7A80B4002B24D0023B012B3BD82B68181C0830002B41D02E1CC027A8461036041C083CE35982
S284004800002B00D098472A68211E914203D139E09C4228D01A1C1368002BF9D1301C01F0F3FD2868002826D00830E6E76C68002C16D0FFF759FF174AB423E250221C2632AC23201CE250583003F05EFC281D01F001FE011C281C0C3001F0D6FD00F0AAFA04BC9046F0BD2468301C146001F0CCFD28680028D8D1FFF73DFF00236B7200F030
S28400488099FAEDE7404601F0E5FD011CC6E7C0461806002035470000F8B51C4D4F462C694646C0B49146061C0F1C002C2CD0281C103001F0CFFD011C281D01F0A5FD396800291DD026231B19181C3022984619F04FF83168251C5835002903D0281C682219F046F842463A60C0234A463560E250012400F05FFA201C0CBC90469946F8BD0F
S284004900262212199046E4E70024F2E718060020084870B50023041C061C036043600834D836051D211C281C343401F06DFDB442F8D170BDC007002030B5114C83B02568002D0ED02979684600F074FA00280AD1201C01F07FFD011C201D01F055FD00F00BFA03B030BD281D019B98470028EFD1201C01F06FFD011C201C01F045FDEEE745
S284004980C007002070B50E4C061C6568002D14D0201D01F05FFD011C201C01F035FD31680435002903D0281C302218F0E1FF3560012400F0E1F9201C70BD0024F9E7C046C007002008B5FFF76BFE08BD00B5406C83B00190FFF794FE01A8FFF7D3FF03B000BDC04600B583B001A815F0CFFF054B8022198852010A4301A81A8015F0CCFFFD
S284004A0003B000BDB80E002008B5437E002B03D1034B04221A7008BDFFF7E4FFFBE7C0469808002010B5FFF77FFE094C6388E1681A1E8A4200D90A1C9B1A9BB26380002B04D1FFF769FE201D17F008FA10BDC0469808002038B5124D041C281C00231C302B7617F0FBF9A37C002B15D102232B70FFF722FEAB6B002B00D098472279094B9B
S284004A80DA7462791A75A2785A72E2789A72228ADA8222785A7538BDFFF7A4FFFBE7C04698080020B4000020F0B56C4C87B02578012D00D1AEE0002D4BD0022D2FD0032D2BD1FFF705FE664C664A90235B00E2503422A023E252231CA2331D7005F0E0FB211CB031026843680A604B600023D722A354D822A058261C010E0906A150DB22DE
S284004B00A354DC23E15820360A0E1206E2504022DF23E254301C13F0C7F807B0F0BD6823E25CD00706D501218A43E254236B002B00D098476823E25C510700D588E06823E25C9007E9D502218A43E254FFF7F4FEE3E7FFF7A1FD002002A902F0E1F80298039901225242D31712184B41591C5ED000F072FA201C00266F463030FFF778FD49
S284004B8007373E702120391C02F0F6F8364D3B7801222B704423E254231C44335A70DA704922A15C0F208143012001439E701E71E365201C2D4B5430A154236604F08CFEFA235B0063622823E654294B04A90020E36202F0A5F804992A780B0213432B606B4613331B78059A2B7113022A7913436B606B4617331B782B72636B002B00D084
S284004C009847FFF7CFFDFFF783FE01232370FFF7E9FE82E7FFF744FD237E002B12D0154A201C98237030E25012F0F2FF75E7101C08309DD902A801F009FF002002A902F09BF895E7201C1C3017F0E0F82576E6E704218A43E254FFF7BDFD70E79808002018090020094A0000B4000020CD490000C5490000554A000010B50378502B27D0DA
S284004C80902B30D025D88E2B22D3C27981791F4B12020A435A72120A9A72C1780279D9741A758278417812020A43194CDA824279201C5A751C300023237617F0CFF8FFF7FBFC2378012B12D0042B16D00223237010BD912BFCD1FFF701FD0D4B01221A70FFF780FEF4E70A4B04221A70F0E7A36B002BEBD098472378E6E702232370A36B76
S284004D00002B00D09847FFF76DFEDFE7B4000020980800207047C04630B5074D83B001ACEB8A201C238012F03FFEA3782B76E3786B7603B030BDC046B400002000B50C4B83B01A78022A01D003B000BD6822985C0121014301A8995415F018FE054B8022198852010A4301A81A8015F015FEEBE798080020B80E002000B50C4B83B01A7814
S284004D80022A01D003B000BD6822985C0221014301A8995415F0FAFD054B8022198852010A4301A81A8015F0F7FDEBE798080020B80E002000B50C4B83B01A78022A01D003B000BD6822985C0421014301A8995415F0DCFD054B8022198852010A4301A81A8015F0D9FDEBE798080020B80E002000B583B0019001A8FFF7C4FD03B000BD38
S284004E0070B50C1C002801D0002900D170BD074D2E1D6880301C17F021F800232B74044B301CEC606B6116F0F1FFEFE798080020254A0000F8B5154E051CF36B0F1C002B19D0321C3032127C002A14D0002407E0331C303301341B7CE4B2A3420BD9F36BE2009918281C082218F082FD2B78BB42EED1012009E000232B706B70AB70EB70FD
S284004E802B716B71AB71EB710020F8BD980800207047C0467047C04610B5064C201CC43016F0DCFF221C483200236260C3222370A35410BDA00A0020F0B54F464646C0B4051C83B0464C002800D175E02378052B52D0444B444A6E46583307369846C32791464046311C012217F0FCFA00286BDD2378013DADB2042B43D89B004A46D35815
S284004F009F463378102B4DD0E25D211C9A18E2556268C3318A420BD2511C6160137007E03378022B43D000222270E25DD318E355002D41D02378052BD3D11DE03378102B2CD0032B25D005222270E25DEEE73378102B19D0E25DE9E7C323E25C33789A4235D0201CC43016F079FF221C483200236260C3222370A35403B00CBC90469946EB
S284004F80F0BD3378E25DD1E70223237000221023CCE704232370E25D0323C7E7032323701023B1E701232370E25D1023BEE703232370E25D0223B9E7C434201C16F04EFF201C16F023FFD7E705232370D4E7201C63684830191AC9B2FFF70AFFC1E7C046A00A0020200B002090DB010010B50B4C9023E35C211C5A01D31A9B001431C918F3
S2840050000748E3188C33DA78583017F001FA013002D100229223E25410BDC046A00B0020200B002008B50B4B9222995C00290AD00139C9B299549022985CFF2804D0002901D0FFF7D3FF08BD002098540029F8D1F9E7C046A00B002038B51D4B1D4A191C5A66903100221C4C181C0A701B4958308182211C083199674021818480215A5054
S28400508017499A6682750283828588229950154900258C229950857617F072F90122D023E2546422CC23E250201C0F4AD423C430E25016F0D3FE231C0C48483363600021C3237F2214302570E55418F0E5FC38BD200B0020942D0020A00A002056ECFFFFB94E000025500000994E0000A00B0020F8B52A4E031C9220325C0024002A42D180
S284005100141C3B293FD8012434549124305D351C47013F1A1435BF00EF19FF2835D010223A700222B81C7A70002933D04D1EEDB201355D19002107E051180133C9B2441C0270AB420FD0201C1A78102AF4D102701A781031C9B2013051180133C9B2441C0270AB42EFD12531C9B21023237003236370A1700334E41B7B23FC549223F35CE6
S2840051800124002B03D1201CF8BD3255C7E7FFF72DFFF8E7041C2521E7E7C046A00B002070B5264B264C996ADA6A21606260254D254E2B79291C2372AA6CEB6C22616361224B201C1B683031A3617723F35C213023776E23F35C63772023EA5CA2772122AA5CE2772222AA5CE254112218F0C0FBEB8863862A7B3423E2547A23F35AE386F7
S2840052007123F25C3823E2548A23F25C3923E2545023EA5C3A23E254327C3B23E25432884C23E252727A4E238036E2543168726821656265EA7A5823E25470BD60240020D8110020A82400200025002044240020F0B5A4220E4C920085B0051C0F1CA61802E01034B44210D010226846211C18F07FFB6A461388AB42F3D1381C694610222B
S28400528018F076FB012005B0F0BD0020FBE7C0460041000000B50B4B01228240101C1A7883B01043187001A815F070FB064B8022198892010A4301A81A8015F06DFB03B000BDC046340C0020B80E002010B5154C82B02178002913D0CB0720D4002301200133DBB20A1CDA401042F9D001229A40D3B25940217000F01FF82378002B01D141
S28400530002B010BD01A815F041FB074B8022198892010A4301A81A8015F03EFBF0E70123E7E7C046340C0020B80E002008B500F089FE00F09FFC08BDF0B5374E85B000250124A95DEFB200230A1CDA40D8B214421CD10133082BF7D10135062DF1D13827381C00F0F3FD6C4600281BD1381C6946FFF76EFF002833D1331CB11D1A78002A92
S28400538040D101338B42F9D105B0F0BD0122FF009A40C7199143381C715500F0D7FD6C460028E3D0381C6946FFF752FF0028E3D06388002B2AD0019B002B27D0A368002B00D0984762886368381C002100F06AFC0028D1D0C2211148490000F019FFCBE7029B002B00D0984761886268381C00F03FFDFD231842BFD080210848490000F012
S28400540007FFB9E70020FFF745FFBDE7BB210348490000F0FDFED1E7380C002060ED010010B5831C041C09480E341A78010A4A4011094A40000250401103484052015040013380B2A342F0D110BDC046FFFF000010B5114B1978002910D0104B1A8882420FD04C1EE4B20433A4001C1904E01A1C11880433814205D0A342F8D10024201CF3
S28400548010BD1A1C5388141C002BF8D124210448FF3100F0BDFEF2E7400E0020400C002070ED010038B5041CFFF7D2FF002804D098210C48490000F0ABFE0B4D287843B2002B08DB431C2B70084B800018180470240A447038BD32210248FF3100F098FE2878EFE770ED0100400E0020400C002010B5041CFFF7ACFF00280ED0201CFFF767
S284005500A7FF094B042219780139C9B21970074B8900591818F02CFA10BD9F210448490000F076FEEAE7C046400E0020400C002070ED0100F8B5084F061C0D1C141C7878311C2A1C231C00F0CBFD7878311C2A1C231C00F059FEF8BD400E002030B51B4C802285B0051C00216078920100F046FE00280AD1607800F023FE80226078002178
S284005580920100F03BFE00281CD001236A465B421380412393705423D370532313714E235371762393713123D37102950020ED43694610220395FFF7BDFF002802D01023638000E0002005B030BDC046400E002000B583B0694606310023022200200B80FFF7A8FF03B000BDF0B556464D465F464446F0B48DB002911699061C9146002900
S28400560051D0CA18002101928B4649465D18ADB24F46029CA94514D140E004AA1023301C211C00F02BFD6A46938AD28AAB4206D2D21892B2BA4202D9AA420CD2171C6B465C8B002CE9D100200DB03CBC90469946A246AB46F0BDEA1A92B2904610344444A4B2A2469F421BD3EF1BBFB2029CB8464F464246019BAD1AADB2002B1BD0019977
S284005680224B4246891A587853460191991A89B2019A434600F0F2FCAF42D2D10120D3E769464C8BE5E7194A52889A1892B2934600220192A9E7002AEED003974746B0465646AA465D46A34600E0271C0024102F03D93C1C103CA4B21027F61BED1BB6B24046311C08AAADB23B1C00F0C7FC281C08A93A1CFFF71EFF0028A5D0002CE4D115
S2840057005C46039FAB4646465546C5E7400E002008B5064B5B68002B03D09847002800D108BD034B187800F04BFDF9E7400E0020E400002038B501235B4203704370041CFFF76EFE0C4DA073000AE073211C68881022FFF7EFFE041E06D06B880F221F3393436B80201C38BD68786988102200F045FD0028F6D1F0E7400E0020F0B556466F
S28400578044465F464D46F0B4474D8DB0281C083001F030F86A7800232B846B849246101C002104AA102300F069FC069C0026013CA0463E4F544608E000236E709C420CD04046FFF7CBFE002810D16B780133DBB2012BF1D86B709C42F2D1381C344900F017FD4046FFF7BAFE0028EED02B78A246002B49D000236F46994608AC00260E372E
S28400580009E043465A465A804B460133DBB299462B784B4538D94A469300264A5046D218518810239046221C00F028FC2389201CE3806B88A6806681A6819B46FFF77AFF002818D0424651882389504600960022FFF7CAFE00280ED0E2886B885846D3180F330F229343391C02226B803E80FFF761FE0028C5D10024201C0DB03CBC90463B
S2840058809946A246AB46F0BDFFF7A2FE041EF3D0094B24355246281C1A7016F0DFFA281C16F0B4FAE8E7C046400E002070ED0100DB020000400C0020E4000020F0B51A4D83B0041C0E1C6F88FFF734FF00281DD0002E09D0E279A379120268881A43311CFFF728FE002813D0E379A2791B0213436A8869469B180F330F2293436B80063131
S2840059000023381C02220B80FFF714FE03B0F0BDE379A2791B0213436A889B180F330F2293436B80F2E7C046400E0020104A08B5518880239B015B1A9BB2834206D30D498B4202D8137A002B09D008BDFFF716FF0028FAD10848094900F05AFCF5E7101C08300121064A074B00F026FFEDE7C046400E00200F04000070ED01001B030000CC
S28400598010270000DD5A0000F0B557464E464546E0B44C4C88B06368002B09D09847002806D1052008B01CBC90469946A246F0BD608C002839D1238C0020002BF2D0181CFFF746FD061E56D0C278837812021A4304AD111C1023904660782A1C00F04EFB638C002B49D063882A899A46914636480421002200F00EFC2A89638C218C33483D
S284005A0000F00AFC638C4A462B81994552D892B291460027281CAF80EB806F81AF81FFF789FE002807D10120BCE7103080B2FFF77DFF208CC4E760784146009700224B46FFF7D2FD0028EED0EA8863886946D3180F330F2293430E315046022263800F80FFF768FD0028DED05246B2705246130A27846784F370002094E72889103080B2E6
S284005A80FFF754FF208CFFF7E3FC061E14D0F278B37812021A43111C1023904660782A1C00F0ECFA62882B899246628C9946002AAFD09CE71A1CAAE70348054900F0A8FBE5E7C046400E002070ED010078ED01004E03000008B5FFF757FF08BD08B5084B5B68002B03D09847002800D108BDFFF745FE0028FAD10348D92100F089FBF5E7EB
S284005B00400E002070ED0100F0B5474680B4564C00232370012388B000255F42FF266A461023281C002100F0A9FA6A461388002B03D19278412A00D16CE00135EDB2022DEDD1FF2E35D010236670301C6380102104AD08AE0F2710232A1C00F08FFA2B1C1978FF2909D10133B342F9D101223823E25408B004BC9046F0BDEA89281C9046A3
S284005B80FFF74EFC804509D061881F31B94389B26180364B9942E9D86078DCE72B88002B23D0E9886388C9181F31B94389B26180EFE700232E4D637002204042FFF7CEFC002803D0FFF704FD00280BD163780133DBB26370012BEFD9EF21281C890000F017FBE9E700232370C0E76B88181C9846FFF72EFC002833D063881A0A8370C270AF
S284005C002A89002A27D0EA881F329B18BB4399B26180BEE76A46D378542B00D08DE71379532B00D089E753794E2B00D085E79379762B00D081E7D379312B00D07DE7029B039A5A40013200D077E7BB4200D374E71F1C2E1C71E74046FFF74AFC6388D2E74046FFF71FFCC7E7400E0020FF1F000070ED010010B5084C3823E35C002B01D13A
S284005C80FFF742FF231C243301221A73034B6363034BE36210BDC046400E002011570000581B0000F0B54F464646C0B4051C85B08946171C9846002850D0002B4ED0304E7468002C08D0A047002805D1052005B00CBC90469946F0BD381C103080B2FFF725FE281CFFF7B4FB041C0320002CEED0E578A3782D021D437078291C6A4610230B
S284005D0000F0BCF969460B8949467A1804209A42DDD86A4649469180D78055819F422BD09389694601338B81684641467588FFF7C5FD031C0120002BC9D0A5702D0AE57069468B89642B07D94B883384002373843C23F35C002B06D00020B8E709480A4900F056FAABE7301C3C300121074A084B00F022FD0020AAE700239381D4E7C0467D
S284005D80400E002070ED010025040000B80B0000D55A0000F0B5474680B4041C82B08846171C1D1C002812D0002B10D0201CFFF74FFB002814D0C47886782402211C3143032000290ED102B004BC9046F0BD0E480E4900F01DFA201CFFF73AFB0028EAD10320F0E74346DA19094B9A4201D90420E9E7084B4246587800953B1CFFF7F4FB09
S284005E000028F4D00020DEE770ED010076040000FFFF0000400E002010B5041C84B0002815D0201CFFF714FB002819D0C17883780902194302D1081C04B010BD094B6A465878102300F01AF96B461989F3E70648064900F0DDF9201CFFF7FAFA0028E5D10021E8E7400E002070ED010092040000F0B5461E041C3048B6B285B00D1C171CF3
S284005E80864217D88023DB00994213D8201CFFF7DFFA002804D0C37882781B0213432FD1264E7368002B0AD09847002807D1052005B0F0BD2248234900F0AAF9E6E7281C103080B2FFF732FD33787F2B2ED86A4600236846391C93805381938176885480D5801581FFF7EAFC031C0120002BDFD0201CFFF7D7FA8670360AC6700220D7E7FA
S284005F00201CFFF789FFA84206D00C4B1C845D84FFF73AFD0028CBD10020002FC8D0201C00212A1C3B1CFFF735FFC1E70448064900F06EF9CBE7C046FEEF0000400E002070ED0100DF0300000704000008B5FFF77FFA002807D08378C07800021843431E9841C0B208BD0020FCE7C046F0B557464E464546E0B499462F4B4003CB180C1C05
S284005F801B18494684B0151C9A4600294FD02B4E731E9A4546D853464B449E423DD380234C449B019C4233D84B46002B2ED049464B46102900D910239BB298461A1C6846514617F0D5FC4246002A17D0002407E02F780135BE420AD10134E4B2A0450DD96B461E5D002DF3D1FF27BE42F4D0002004B01CBC90469946A246F0BD49464246D3
S2840060008B1A9BB29946C244002BD0D10120EFE70B48A92100F0FCF8C6E70948A82100F0F7F8BCE70648A72100F0F2F8B3E70448A62100F0EDF8AAE70001000000410000A4ED010010B5094CFF231C4203D00848462100F0DDF8074B074A9B189C4203D003484A2100F0D4F810BDC04600010000A4ED01000041000000C0FFFFF0B5474667
S284006080144D80B4144F4D1940031C1C2D187B1E0E1C90469D4218D82B199F4210D3802336199B019E4203D90C485A2100F0B0F84046291C221C17F05BFC04BC9046F0BD0648592100F0A4F8E9E70448582100F09FF8E1E70001000000410000A4ED0100F0B5474680B4334F4003CF190E1C151C1C1C3F18002B3ED02F4B9846013B9F42FB
S28400610042D83B19984546D3802336199B019E424AD8FF20802638407600361AA64200DD261CB3B2191C2A1C984616F097FA381C16F09CFA4346E41A80235B00A4B2F7199846AE19002C13D0251C444501D980256D00ADB2321C0020291C641B16F07EFAA4B2381C16F082FA7F197619002CEBD104BC9046F0BD11486D2100F049F80E4B84
S2840061809846013B9F42BCD90C486E2100F040F83B199845B8D209486F2100F039F8361980239B019E42B4D90448702100F030F8AFE7C0460001000000410000A4ED010038B50B4B4403E4180A4B013B9C420AD880239B01E518201C0134FF3416F042FAAC42F8D138BD0448902100F011F8EFE70001000000410000A4ED010008B5131CB1
S2840062000022FFF7B3FE08BD08B5FFF7AFFE08BD7047C0467047C0460FB404B07047C0467047C04630B5104C83B02378002B0DD06D4607352120291C00F072FD69461D20063100F06DFD2B78022B03D014F09EFE03B030BD6A469379002BF7D1034B201D636111F0B3FBF3E7940E002021620000014B18787047C046940E002008B515F0C7
S2840062805BFE08BDF0B51F24044001234746A34080B40E1C47091C1C3F2817D8BF00F5196B68234202D004BC9046F0BD114B311C181C984600F0F4F800280DD06B68474423436B607B681C437C60ECE70A4A0B4B1A8000F049F9E1E730717071B071F07130727072B072F072311C404600F08CF8E4E7C046AC0E00200380FFFF3C1200201E
S28400630070B51F2404400123A3400D1C46091C1C3F2817D8B00029184B681C4211D0E5432B404B600A490B68002B06D01A185268224206D11B68002BF8D1081843681D40456070BD034A044B1A8000F00DF9E1E7AC0E00200380FFFF3C120020F0B5454657464E46E0B41F2505400123AB40071C884646091D1C3F281ED8164BB6009A19F5
S28400638052682A4213D01C68002C10D0124A134B92469946A3195B682B4205D0E368002B10D0381C414698472468002CF2D11CBC90469946A246F0BD094A074B1A8000F0D3F8DAE74B465246138000F0CDF8E368E7E7C046AC0E00203C1200200580FFFF0480FFFF1F23034001229A40131C4009044A8000101840681840431E9841C0B2EC
S2840064007047C046AC0E0020026808B5002A18D091420FD0131C01E099420BD01B68002BFAD10B6000E01A1C1368002BFBD11160012008BD054A064B1A8000F081F80020F7E70A6001600120F3E7C0460080FFFF3C1200200368002B01D01A680260181C7047C04610B500290ED004688C4213D0002C09D023688B4204D107E01A688A4227
S28400648006D0131C002BF9D1002010BD1A1C231C126801201A60F8E7246804600120F4E70368002B03D106E01B68002B03D09942FAD1012000E000207047C04610B5808800280BD115F0E4FC84B203F0E9FE0023C25A02335440082BFAD1201C17F02AFB0348012303731C3015F090FC10BDC046E800002008B5024803F03AFF08BDC04637
S284006500E800002010B5084C237B002B0AD0201C1C3015F0A3FC054B201CA3610023237303F026FF10BDC046E8000020BD64000008B502481C3015F091FC08BDE8000020064808B502230380054B1B884380054B1B68002B00D0984708BDC046401200203C12002038120020064808B503230380054B1B884380054B1B68002B00D09847D5
S28400658008BDC046401200203C12002038120020F8B546464F46C0B408AC267809AC257841607E2A27D8141C7F2A22D8E2B26400A046047891460122144047462743FCB24F46154094430381BB002543CB18067405700022994208D2CA70037844685B089B000431E3189942F6D30CBC90469946F8BD7F24DAE7034A034B1A80FFF7A0FF8F
S284006600F3E7C0460180FFFF3C120020F8B54F464646C0B48846071C914615F039FCFB68051C3989C01AFDF79DFDFE2808D8C0B2002806D139787B684E08B6009E1918E0FF2039787C684E08B600A619B44241D28446E3781A1C834200D962469B1AE37039787B684E08B60004349E19B442F0D3FD60B34230D20025DC78002C02D01A88AA
S284006680424517D0002D02D0EA78A24200D91D1C0433B342F0D3CB0711D5002D18D043462B804B46AB703B7C0120EB700CBC90469946F8BD9A784A45E4D10020F6E7002D04D0EB780220002BF0D1E8E70220EDE70120EBE7231CCBE7CB07591E8B410220C01AE3E708B5FFF70DFF08BD7047C04630B5144B144D198883B0002401222B88D2
S2840067000B4023411A4204D101340E2CF7D103B030BD01A814F03AF92B880122A240934301A82B8014F038F9084BA400E458002C01D0A047EBE7064A064B1A80FFF714FFA047E4E718010020B80E0020A4DB01000680FFFF3C12002000B583B014F0A4FA0EF0B0FF0223002802D1181C03B000BD01A814F00BF9054B1022198801A80A4331
S2840067801A8014F009F90123EFE7C046B80E002010B5FFF7ADFF2B200021FFF7DFFD054C2388002B01D1FFF73DFD2088431E9841C0B210BDB80E0020F8B51D1C0378041C0F1C161C012B05D000232774E66065612370F8BD00230370043015F03FFBF3E708B50378002B04D101230370043015F00DFB08BD08B50378012B00D008BD002374
S2840068000370043015F02AFBF8E7C046164B10B5984218D01A1C1832904200D010BD134A00219A6106225A7719770322D97721215A542E215A549A770724202001212F221C549954EAE7094B03220360042343718271002305214272012203710172C3718275C375DAE7C046942D00200008004210B51F4C0123227882B013420BD0227815
S2840068809A43227022780223134323706368002B01D00120984723789A0713D5154B1B68DA0011D523780222934323702378042293432370A368002B01D001209847082015F0B8FE02B010BD0B4B0122197801A80A43D2B21A7014F059F8084B8022198852000A4301A81A8014F056F8EAE7C046BC0E002020440041280F0020B80E002063
S284006900002070470020704700B50B4B83B018600A4B0222197801A80A431A7014F036F8074B8022198852000A4301A81A8014F033F8002003B000BDC80E0020280F0020B80E002008B5034B01201B680021984708BDC046C80E0020002070470020704700B50B4B83B058600A4B0422197801A80A431A7014F00AF8074B802219885200FC
S2840069800A4301A81A8014F007F8002003B000BDC80E0020280F0020B80E002008B5034B01205B680021984708BDC046C80E0020002070470020704700B50B4B83B098600A4B0822197801A80A431A7013F0DEFF074B8022198852000A4301A81A8013F0DBFF002003B000BDC80E0020280F0020B80E002008B5024B00209B68984708BD50
S284006A00C80E002008B50248062115F033FE08BDD40E002010B50A4CA5235B00201CE362243001230373074B636315F0EFF9E369002B03D02022A05CC0B2984710BDC046D40E0020056A00007047C04638B5174C2322227201222282154A051CA26128226261144A1448E26002226060628100F025F8201C15F020FEC3B2002B01D058B23A
S284006A8038BD201C15F044FEC3B2002BF7D10823201C6381E56015F059FEC3B2002BEED1201C15F021FE0020EAE7C0460C0F0020496A00001C010020C42D0020094B984200D07047084B0222036010234371002303711121C37183720123827101724272C372EEE7C42D0020000C004210B5224C1023227882B0134238D122780123134221
S284006B002ED122780223134224D12278042313421AD122780823134210D12378002B0BD001A813F033FF154B8022198852000A4301A81A8013F030FF02B010BD22789A432270FFF757FFE8E722789A432270FFF725FFDEE722789A432270FFF7F3FED4E722789A432270FFF783FECAE722789A432270FFF74FFFC0E7280F0020B80E00203E
S284006B80064A80231B031360054A0221107801431170044A002013607047C046084400415344004118440041002803D18022024B12031A607047C04614440041002803D18022024B12031A607047C04618440041002803D18022024B12031A607047C0461C44004110B5134C0021201C482216F053FF32230522E2540F4990220F4816F0D5
S284006C00B7FE0F4C1822211C10310E4816F0B0FE211C283103220C4816F0AAFE211C303158220A4816F0A4FE0021094A094816F033FF10BD60240020E8DB01000025002068DC01004424002040240020A8240020F81100004812002030B583B000236C460093A380FF23CAB299438023051C5B00994220D080239B00994214D000290AD030
S284006C80114A124B1A80FFF76FFC2B1C06CC06C3281C03B030BD0E4BD200D1186846082216F066FEF1E70B4BD200D1186846082216F05EFEE9E7084BD200D1186846082216F056FEE1E7C0460A6000003C12002088DF0100F0DC010010DE010008B5FFF781FFFEF723FB08BD30B5041C83B00D1C6846211CFFF7B0FFFF239C4380239B0088
S284006D009C4204D0044A054B1A80FFF72DFC009B2B6003B030BDC046066000003C120020F0B5041C83B00D1C6846211CFFF794FF01AB009F1E88002D13D0FF239C4303D080235B009C4206D1281C391C321C16F00FFE03B0F0BD064A064B1A80FFF704FCF7E7044BC022D2011A80FFF7FDFBE4E7016000003C12002030B5051C83B00C1C58
S284006D806846291CFFF768FF002C0FD0FF239D4304D0094A094B1A80FFF7E6FB6B469A880098211C16F0E4FD03B030BD044A034B1A80FFF7D9FBE9E7056000003C12002004600000F0B50268214C57464E464546B223E0B490465B004A22E050FF320023A354A52252001B4DA3546A78A7235B00E254A4235B00E65C50274346D85B311CBD
S284006E00FDF7FEF9A623C0B25B00E054994643468246311CD85BFDF749FA002903D0534601334A46A354AB78FF229A40D24301239A434C23FF33E254074A1378591C11704E22FF32A3541CBC90469946A246F0BD90250020402400202C0F0020F8B52C4CA56885423CD8401BD821FDF77BF92278C3B29A423AD9FF231840D82358432D18BA
S284006E802B7C5B08022B07D024DD032B22D02B7C012293432B74F8BDE378002B01D0013BE370A823EF5826692821B81BFDF75AF9C3B2B74220D362789A4223D9FF23184083001818C00036183378002BDFD000233370DCE72379002BD9D0013B2371D6E70C4A0D4B1A80FFF72BFBD4E70B4A0A4B1A80FFF725FBCEE7094A074B1A80FFF7C4
S284006F001FFBC8E7074A044B1A80FFF719FBC2E790250020824400003C1200208344000084440000854400004823002210B5C254436C041C002B03D0201C4830984710BD034B044A1A80FFF70FFB636CF4E7C0463C12002044440000F0B557464E464546E0B43D4F82463A78002A13D0BC68237CD80715D5013AD2B2D8255543231CD83352
S284006F805D1905E01A1C117C1E1BD833C80709D5AB42F7D100201CBC90469946A246F0BD221C00260021A823D1505146022924D007D3032905D0294A294B1A80FFF7D4FAE8E73B79B9789942E4D901333B71517C0F2500232940936051741371A419637C0F22934351466374480001231843002323602074B8688019CDE7FB7899467B7886
S2840070004B45C7D9387B80460028C3D039690D780B1C8C4628330021002D07D10BE09C4628331D1C283D2D78002D04D00131C9B24145F4D1AEE74B4601336046FB70012303701C208444A8256046505113713B7B8B42C3D19EE7C04690250020814400003C12002000B50A4B01228240101C1A7A83B01043187201A813F088FC054B2022D9
S284007080198801A80A431A8013F086FC03B000BD2C0F0020B80E002008B5064B011C5A7A181C013A0C305A72FFF7AEF90120FFF7D9FF08BD2C0F002070B50E4CBE23A28A061C113AFF3A92B22569DB009A4204D9094A0A4B1A80FFF747FA201C1030311CFFF792F9002D00D070BD0020FFF7BAFFFAE7C0462C0F0020634400003C12002057
S28400710008B5011C044820391830FFF77DF90120FFF7A8FF08BDC0462C0F002008B5011C044828391C30FFF76FF90120FFF79AFF08BDC0462C0F0020F8B59A22324B52009918E82299500221E0229954198EE22299520B21E42299540022F0215A54F1215A540124F2215C54F3215C54274EF4215A54F8215E50F5215C549A2464001E5D9A
S284007180032102258E432E4383273E4080277F423E431E5538241E5D3624FF341E559E8E9B2464001E53DE8E9C2464001E5332241E5D9D2464001E5539241E5D3C24FF341E559E2464001E5D8E433543294019552D215C5C3E21FF315C542E215C5C9F2149005C54A02149005C5C1A21FF315C549A62074A1876517A181C013158305172A0
S2840072000BF09CF8F8BDC04690250020957600002C0F002070B582B06D46183103350191041C291C0D20FFF77BFD2B780199002B5BD102228823CA54032252428A23CA525023E25A8C230932CA54636D9020093B0B50228F5A70120A9A704C22A25CDA70221C4C3252781A714A22A25C5A71221C4A3252789A714E22A25CDA71324A1578A0
S2840072801D720B58032019786E1C81430C2001430F20014019702D480199A0231670C8505923E05C01999823C854294B019918789923C8545823E45C01980121E4094C409A214454019801239B21435401989C21435401989D214354537A0198013353720BF02CF8002002B070BD01228823CA54228F8A23CA525023E25A8C230832CA5457
S284007300636D9020083BFF220B505A704C22A25C9A70221C4C325278DA704A22A25C1A71221C4A3252785A714E22A25C9A71064A1578DD710B5808211970064801996E1CA0231670C850ABE72C0F002059730000402400209970000038B5041CA43C9023E358051C98785A7800021043FF210AF06FF9002803D1281CFFF78EFE38BD054AE8
S284007380A023E25000229D23E254201C0AF0C0FFF4E7C04699700000F8B5384C8820211C4000FFF7BDFC211D35480C3CFFF79CFC237B002B0BD02069002300219A00D218D20011540133227BDBB29A42F6D81020FF30211CFFF7A4FC211C08312948FFF783FC2678002E45D0771EFFB2D825A2687D43131CD8335D19012000E0D833117C0D
S284007400814311741A1EAA42F8D1237B6370012E32D9A770A422002352009420E3702371A1184000FFF77CFC211C2A202531FF30FFF776FC211C8C20243140002425FFF76FFC635D002B0CD0211C1C310E48FFF74BFCB4235B008420E1188000FFF744FC635D2522A25C5343E269D318236200232376F8BD237B6370A670CBE79C250020EC
S2840074800E0200000D0200000F02000038B5144C1448211C2431251CFFF726FC20351820FF30291CFFF73CFC2023E25C636A002A01D0002B0DD091008918C9005918A8208B4205D21A1C2032283310709942F9D838BD054A054B1A80FFF732F8F8E7C0462C0F002012020000294400003C12002070B5041C0E1C002813D0C368002B10D02F
S2840075000B4D281C1030FEF7A5FF201CE3682674103098472B69002B02D00020FFF7A2FD70BD044A044B1A80FFF71EF8E8E7C0462C0F00206B4400003C120020F0B55F46564644464D46F0B485B001908846171C13F084FB82464A482823C35C002B00D175E048490C788946002C00D183E0016B53465B1A4A4602939368013CE4B2191C63
S284007580D8260831664300917D22016B1D1C012494465246D83564428A1AAE19A3460099394D3A4C0392009703E0D833D831B3421CD01A8A2A40A242F7D11A7C674652083A40012AF1D10A68002AEED0019FBB42EBD0029FBA4236D9039FBA180A605A4541D89346D833D831B342E2D1009F4146002923D14A46936A002B1FD0026B544652
S284007600A11A8B4232D9D218121B49468A62BA4200D93A1C5A4500D95A46041C2834201C01211B4BFFF7C8F8201CFFF7D9F805B03CBC90469946A246AB46F0BD5A46BA42EBD93A1CE9E700220A609346CAE7041C2834201C01213A1C0D4BFFF7ADF8201CFFF7BEF8E3E75A469346BBE742464B469A620022D1E701235B429B46B7E7C046FB
S2840076802C0F002090250020010F0000010200000977000070B5174D174C6B7A013B6B72237E032B0ED0022B04D0144A144B1A80FEF75AFF4221FF31635C002B06D12376A36270BD00232376A362FAE701220D48227682782D6C013A9600B2184078520052194243013B6354A26200200121FFF725FFE6E72C0F00209025002052440000A6
S2840077003C12002040240020F0B5454657464E46E0B43C4D2B78002B00D16CE001233A483A495B42984600248146D827384E8A4604E001342B78E4B2A34224D93B1C6343AA68D318198A334A31409142F1D11A7C7D21520811400129EBD149469868496B401A98602CD1597C0F208143042001435974032A2DD00120FFF774FC01342B7894
S284007780E4B2A342DAD8AB6A002B06D04846406B1B1AAB622BD0984527D84146013113D04C462834201C012142461B4BFFF704F8201CFFF715F81CBC90469946A246F0BD8045B6D98046B4E748462830FFF712F8F1E752469378FF229A404C23D243FF33EA540120FFF73EFCC8E79846D5E70220FFF7A2FCD1E701235B429846024B9946EE
S284007800C1E7C046902500202C0F002040240020010F00000102000009770000F0B557464E464546E0B4314A2023546AD25CC35C9500AD18ED00061C8A466519002B4DD1AC423BD2428910231B189046077A994604E0AA2B07D02834A5422FD9231C20331B78A42BF5D1237ABB42F4D163894345F1D1226833689A42EDD1626873689A4284
S284007880E9D1327B237B9342E5D1012B0FD0032B1DD1327E237E9A42DDD1211C48461031082216F03FF80028D5D1201C0AE0328A238A9A42F9D02834A542CFD820235246F25400201CBC90469946A246F0BD084A084B1A80FEF734FE0020F3E7064A054B1A80FEF72DFE0020ECE7C0462C0F0020264400003C120020254400005823C35C46
S284007900021C0020D90708D5190705D55023D35A612098428041404270471907FCD55023D35A6320984280414042F5E7F0B5474680B4874AB823CA500222A023CA54028FA223CA525923C25CB023CA540022B123CA545823051CC05C0E1CC00901214840B22170540122B3217254B4217254EB5C82B05B06DB0F04D12A8F764991425B4105
S284007980DAB2B523F254281CFFF7B8FF00285BD0714CA4235B00A622E15C52004A23FF33A25CE35C013A0F1C934200D1C3E03A1C1E32612A00D9B2E0B422520059439046A2586B6D101C59183A1C1E3015F0D0FF0A37A423F7544246A458A8231434F4502278EC23134023702A8F5A4B9A4200D979E023780C2293432370237820229343A8
S284007A0023705823EB5C5A0756D42378402293432370281CFFF772FF00281FD0227880235B42134323704A224B4BFF32995C002965D1227A03218A4301210A432272A62252009B5C63720DE05023EA5AA4230832F2546C6DA823083CF450C1E723787F22134023704823EB5C281C63704C23EB5CA3702B1C4C335B78E3704A23EB5C237192
S284007A802B1C4A335B7863714E23EB5CA371FFF735FF00283CD1314B1A78511C1970E2715A7A301C013218305A720AF047FC002002B004BC9046F0BD2278402313432370737C0F27BB43012213437374281CFFF715FF00280ED1224B5B78727C1B0117401F43777495E723780C22934308221343237082E7A723184A5B00D35CEDE7217A73
S284007B00032081430220014321729B5C6372A9E74E23114AFF33D35CE371104BC0E7114B114A1A80FEF720FDA4235B00E15C4A23FF33E35C40E75022AF5A0A1C5A43BF1AFFB23A1C1E32612A00D835E7E7E7C04699700000F7FF0000902500202C0F0020402400203C1200205144000008B5044AB2235B00D1580868FFF7D8FE08BDC04698
S284007B8090250020F8B5041E09D0AA23202543550668476802F084FB0268B24202D00025281CF8BD4368BB42F9D182236355237A013BDBB2FD2BF2D8237B032B09D0012B02D0A6236355EAE700222023E2540125E6E7237E0025013BDBB2FD2BE0D8236962691343F0D1034A034B1A80FEF7A8FCD6E7C046104400003C12002010B5041EBC
S284007C0010D06023C154002A16D012684266E36D002B13D0201C60309847201CFFF76EFE002800D110BD084AB22300215B00D1500120FFF717FAF5E74266E8E7034A044B1A80FEF77DFCEDE790250020544400003C12002070B5124D03682C69061CA34215D3181B2821FCF77DFA6A78C3B2061C9A4205D80B4A0C4B1A80FEF775FC2C698A
S284007C80FF231E40B0008619F000201870BD064B064A1A80FEF768FC33682C69E1E7C04690250020484400003C12002047440000F8B54F464646C0B49946244B171C20225E6A9B5C041C9D00ED18ED0088467519002839D0864231D82834A01B2821FCF785FA002904D01A4A1A4B1A80FEF73CFCA54205D81DE0AA2807D02834A54218D9A1
S284007D00201C20300078A428F5D1267ABE42F4D163894345F1D14B4622681B689A42ECD14B4662685B689A42E7D1A428E5D1201C00E000200CBC90469946F8BD064A054B1A80FEF711FCC7E7341CD1E72C0F0020244400003C12002023440000F8B55F4656464D464446F0B40E1C051C02F098FAD023071CF458002D2BD0A8229346002897
S284007D8027D04C2291464E23D022984692464B46E95A4346EA5C201C3B1CFFF789FF041E33D0EB6A002B23D0237B5246B450032B24D1201C10300FF039FD002815D0227E4823EA540388311C2B87281CFFF7AEFD05E0194A194B1A80FEF7B2FBA8203CBC90469946A246AB46F8BDA9239B46CEE7227B9346032A0AD0D023F450238A281C18
S284007E002B87311CFFF706FAE9E75846E7E7201C10300FF00BFD0028C6D15B462B75226963692A626B62064B281C1030EB620FF0F3FC0020D3E7C046144400003C120020457E0000F8B5174F061C3A78283EBC680025002A0AD0237CD90702D52368B3420AD00135EDB2D8349542F4D10E4A0F4B1A80FEF779FBF8BD211C301CFFF76EFF03
S284007E80011E03D13B78AB42F5D8EFE7301C0022FFF7B4FE201CFEF7E1FF0120FFF7E2F8F0E7C04690250020154400003C12002038B5051C0C1C002810D000290ED00023D022EB62281CA350211CFFF747FF051E02D0201CFEF7C2FF281C38BD024A034B1A80FEF741FBEAE7134400003C120020F8B50468061C0D1C002C28D0201CCE2D85
S284007F001FD020232A1C9A43D02A1AD0D12D14D0C823F35860276366E5553023C35C002B1CD0291C221C6432FFF768FE301CFEF795FF0120FFF796F8F8BD5823E35CDB09E6D0C823F35863666023E554E9E7084A084B1A80FEF708FB3068D0E7E362201C311CFFF7FBFEA828E6D13068E15DD9E74F4400003C120020F8B5041CFFF702FEF1
S284007F80002800D1F8BD201C0021FFF747FC00280DD0201CA621FFF741FC0028F2D0A4222023C25410200021FEF7D8F9EAE7002C03D02023E35C002B04D01C4A1C4B1A80FEF7D2FA1B4A2023D15C002915D0556AEB5CA82B15D00139C9B28A002B1C51182833C900591806E01D1C28331A1C083A1278A82A05D08B42F6D1AE222023E2543F
S284008000C0E72026A427AF55002C09D0A35D002B06D1281C211C282215F0AAFCAF55C1E7054A034B1A80FEF78BFABBE7204400003C1200202C0F00202744000010B5041E03D0104A536A984213D20F4A0F4B1A80FEF78AFA2023E35CA42B06D0AA2B04D00B4A0A4B1A80FEF77FFAA8222023E25410BD2021525C91008A18D2009B189842C2
S284008080E3D2E7E72C0F0020214400003C1200202244000010B5041CFFF774FD002800D110BD201CA421FFF7B9FB0028F8D0FFF7C5FF10200021FEF751F9F1E710B500281BD0104B28305C6A20215B5C9A00D218D200A21890420ED2435CA42B08D109E02830904207D2031C20331B78A42B01D0AA2BF5D110BD0020FCE7024B586A041C18
S284008100E2E7C0462C0F002010B5041C0548211C1C30FEF779F90023E3620120FEF7A2FF10BDC0462C0F002010B5041C0548211C1830FEF769F9002363620120FEF792FF10BDC0462C0F002070B588B0384A05AC08203223FF30211CD55CFEF7E1FD1A2006A9FEF7DDFD069B9D4206D35B001A2006A90693FEF700FE069B22782D4E510031
S2840081808A180735756455436C465B1915346D4608201635211C3364FF3001232B70FEF7BFFD2420291CFEF7BBFD1A2007A92478FEF7B6FD2B78726C0798002B31D06100FF2932D84A43002412181B48013B1118DBB264185200002BF7D12B706D46620AEB75E40517351220611E8C41FF30291CA4180793FEF794FD8220800007A9FEF70B
S28400820073FD301C483007992A78FF2C0BD8012301930023E4B20293802300949B00FEF7B7F908B070BDFF24F1E7FF21CAE7C046602400202C0F0020FF01000038B5002849D1284B0025284CDD619D61DD60DD65AC230A225B00E250244AB0235B00E250AE2301225B00E2542E23E5543923E5542C23E5542D220023A3543222A354201CDA
S2840082803822A354A586E58625862376A5620021D822403015F000FC8C225200A3181D605D609D60DD601D615D619D61DD611D625D622523E25C2423E35C01325A430021E06915F0E9FB9A235B00E218E823E250FFF73AFF38BD15F037FC024B002218705A72AFE72C0F0020902500206D7B0000F8B544465F4656464D46F0B4041E05D0E5
S2840083005A4D061C2969103EB1420AD0584A594B1A80FEF715F93CBC90469946A246AB46F8BD3379192BF1D1AB8AE022D200934228D080229200934204D04F4A4D4B1A80FEF712F9002360220120AB542B72FFF775FFFFF721F8FFF799F8484B281CAB82237810303376FEF775F87369002B76D0201C083098472B69002BCCD00020FEF7D8
S28400838071FEC8E71C22EF6952199046002F0AD04046FEF75FF8381CA3210022FFF72EFCEF69002FF4D1364B9A46364A9346EF68002F3BD0391C3448FEF754F852469168781A8846D821FBF7CDFE51460A78C3B281469A4216D9FF2349460B40D8225343434418681B7C5B08012B1AD0022BDED0002B10D0254A1F4B1A80FEF7B5F8214AD5
S2840084009346D4E71B4A5B461380FEF7ADF8524691688846DFE73A1C39790C32FFF7EEFBC3E7A7210022FFF7E9FBBEE751460B78D8229046002B07D184E7524601371378FFB2BB4200D87DE74046784353469B681818037CD907F0D5FEF700FDEDE7054B0B4A1A80FEF780F8736981E72C0F0020664400003C1200206744000032030000FC
S2840084809025002042440000380F0020434400006944000038B5354D2C69002C46D023798A2B21D0C52B16D0192B05D0304A314B1A80FEF759F838BDAA8A88235B009A4249D0E023DB00AB822B4B201CE36008300CF026F8EFE7AA8A284B9A422CD0201CA321FFF705F8E6E7AB8A254A934216D0C222D200934212D0A3232373281C1030FD
S284008500FDF7A8FFA368002B29D0201C0C3098472B69002BCFD00020FEF7A4FDCBE7174BAB82FFF711FE00232373E7E7154A114B1A80FEF719F8B2E7A023DB00AB82281C022323812830FEF755F9002301206B72FEF788FDAFE780239B00AB82B4E7054B094A1A80FEF700F8A368CEE72C0F0020654400003C120020F18200003F04000044
S28400858032030000644400006A44000010B58368021C58789B7886B01B0203AC03434020208001A860600120A0600C4881420ED08B4211D06B4619811E20211C0192FDF7CDFEA06843425841C0B206B010BD1BB20120002BF9DAEDE70120F6E7FFFF0000F8B54F464646C0B4051E38D01F4B20221F4E002491469846002C1FD02468002CA4
S28400860023D02379002BF7D1A268002A21D0A98F201CFFF7BBFF0028EED0A368288A1F78391C09F015F80028E6D04A46AF54E368002B05D0281C9847002CDFD17468DEE70C4A0A4B1A80FDF77BFF0CBC90469946F8BD094B42461380FDF786FFD7E7074A024B1A80FDF780FFC0E7C0463C1200202C0F00203244000031440000304400002E
S284008680F0B55F4656464D464446F0B4061C476B7F4899B088468146B18D4830FA79FDF7B5FF002863D07A78531EDBB2FD2B68D900242823F35C02AD012B00D002232B73738D2B827A782023EA54B08D0FF0B2F8002800D1B4E003222123EA540168426829636A63B38D40202B85F38D48212B87BA793A23EA547B793A791B021343AB87F9
S284008700FB78BA781B021343EB873023F25C8A46131C0A3B9BB22B5283460020011C504629543878C00938D1131C083B9BB258462B52D31A726B4046D3186B644923E8544022B15C4A23E9543823F15C4B23E954F16B3923E964F15C5023E9543B78DB09012B2ED0002C21D0E368281C9847301CFEF7DAFB19B03CBC90469946A246AB4675
S284008780F0BD49464C6805E0A0680378934200D18FE72468002CF7D1E9E7387A8007C8D1131C093B9BB259466B52C2E72823F35C012B68D07B78FF2B46D0281C0FF0F0FBD5E73B7A9B079B0F022BCBD1314B181C9A461B6A1978A9522C221978825C8B460120012A28DD221C291C01975D46041CB34690460E1C5246D269574650192522BD
S284008800B95CFF6961431A5D791815F0B1F85046036A40271A191078F15B2C2741184020315212785146AD18CA5D0134A242E2DC019F351C44465E465146C969696491E702222123EA544DE700242027002C17D02468002C00D18AE7A0680378002BF5D02379002BF2D1A98F201CFFF78FFE0028ECD0A168281C0B78EB55E2689047E5E7E4
S2840088804B465C68E5E7281CFFF7AAFE6FE7C0462C0F002090250020F8B556464D465F464446F0B4456B061C6A78531EDBB2FD2B20D8A14B5C6800E02468002C0CD0A06803789342F8D169792B7909021943201CFFF75CFE00280ED12B780022DB09012B61D0002A59D101203CBC90469946A246AB46F8BD00242978CB09012B57D00122D9
S2840089004F06ECD50907890F02296ED0B18D8B4A91426AD8002C03D0207900220028DED1746B23785806DED59B079B0F0725012B00D18FE1824B1A78002A00D10AE1013AD2B2D8279B687A43181CD830801803E0D833834200D1FDE01A7C052AF8D11A1CA23212888A42F3D11A1CA8321268675D525D9742ECD1B6E72C22A25CA9785F1ECE
S284008980D31A8B4200DD0B1CFB18DFB2013A974200D0ABE10320FEF7CFFB301CAF21FFF76FFE0020A0E72B7A9B079AD002E02A7A9207A4D03023624CF25C2423756BE35C6F7A002B00D18EE70A3A207ED2B29146804601280BD0002873D003286BD9594A594B1A80FDF7C0FD7DE7002277E72B7A9A07920F022A02D0002F00D073E79B080D
S284008A0000D070E72C23E35CBB4200D26BE7228EB38D9A4200D066E73223E25C6B789A4200D060E7EB78A978A28E1B020B439A4200D058E76B792979E28E1B020B439A4200D050E73823E25CAB799A4200D04AE73923E25CEB799A4200D044E73B4D2D23A878E35C80469A4643449F4200DB3AE7381C4146FBF7BAFBCAB2BA4508D9BB1A18
S284008A802D21635401214346494299402E23E1542523E05CE1697843736B08189846002399B2894500D1E7E09C46C4446146897AC1540133F4E7264A234B1A80FDF754FD11E7297A8A46012900D00CE79F4200D909E72522A25C914500D904E701325A43E069002114F0D8FFA023AF225B00E25452462C23E7542276B38D474623866A78FC
S284008B003223E254EB78AA781B021343A3866B792A791B021343E386AA793823E254EA793923E254094B5A784223FF33E2542D23E7542B7A002762E72C0F0020F7FF000090250020534400003C12002040240020404400000220FEF7FFF9002800D1C2E6A823C358AF211A1C1C3A517056600221A02281548B46B18DA22281520022B021B6
S284008B804254B227B1214254BC4601210F1C8A4661464754B3214754B427C2556E4A514694466746B8228750B52281541A7802218C460327BA4367463A431A7021780322890811401F78890088460C218F4341460F431F70227851461209114009018946FFB210218F4349460F439F213940197021781A78C909C9017F278946391C11409E
S284008C008C4662464946114319702178CF062CD40827A4214754A7795F70E778A2783F023A43170A9A70DF70677922795F711A7167789F71766B755DDD712578ED09012D0AD0464B18305A7A01325A7209F076FB002049E601256DE6257AAD0739D100221A72435C01334354EBE7726B5946525D5A70A423C154E4E7236A4846D8552D23B2
S284008C80E35CA0469F4253D00121081C90402E228446A05C914662461043C2B248462254FF2A00D168E62C22A25C013A97423BD0AA78013A9B189F4218D00A235A43274B00201B6CD2186B785A43A262FEF736FC09E6455C032203354554247A03210C40197A914321430A401A72AAE70220FEF723FA2E23E35CFF2B00D0F4E52D22A15C23
S284008D00AB785918A1542C22A25C013AD71BFFB23A1C9F4200D91A1C0123D2B25B4293401A1C2E23E254DEE50220FEF705FADAE52C21615CA878C91BC9B28C46844500D9011C0120C9B2404288402E21894641464944087098E7C046997000002C0F0020F0B54D4644465F465646F0B4D44D8823A88A9DB080465B00984200D18DE0D14FAA
S284008D80281C0C30FDF766FB041E00D185E0BE68D821A01BFBF7E6F93A78C3B29A4201D800F036FCFF231840D8235843C2233618DB00984500D18FE1A023DB00984500D18AE1337C5B08012B00D1B5E100DC91E1022B00D19BE1032B00D092E1737C1B071B0F012BCCD14A23FF33FA5CA6235B00FB5C013B9A4201D100F017FCB2498A7869
S284008E008946002A1DD04C23FF33FB5C9C46DB0701D500F0C1FC0123B2469B4666460292A44608E0191C301C08415C460133044201D000F00CFC029CDAB2A242F2D3644656461A2006A9247CFDF76AFF696C069A4C434B46A4185A78737C1B09D31A9C40A146B22464003E5914F06EFEC305DB0D4B44B3603B590F215A7C8A4302210A43BB
S284008E805A74385900218268FEF758FB281C0C30FDF7E0FA041E00D079E78A4905AE002333808B4616E0404603789A07920F012A27D04122A25C002A23D1201CFEF734F83823E35C3B2033703923E35C311C7370FDF744FA182040190221814688464846FDF7B8FA041E00D190E1626AAF8A002A00D177E1606B8046744B9F42D3D141468D
S284008F000B78590601D400F080FC6E4AD1781079177808188742D0DD52788A42CDD91A07970F012FC9D09A07920F022AC5D0002FC3D19A06C1D42822A25C9246012A00D19BE3022AB9D19B079B0F00D1C1E3022BB3D159460B78D82253438F68FB189F42ABD25B48039444465A4A8246019403E0D8379F4200D3A9E3398A11405145F7D10E
S284008F8003983C68391C808D248FA8310968A042EED10198CC79C079A042E9D10198019C007964798046087924020290A1464C7948462402A44644462043029C8046604620438045D4D10198019C8078E4788046887824020290A146CC7848462402A44644462043029C8046604620438045BFD101988C794078A042BAD10198497880794B
S2840090008842B5D1397C4908012901D100F04BFC0329ADD10199A5235B0058464A7AC35C039C88469A4200D047E7274901228B78101C4146897A98404042014340468172787C0F2188430321014379744046817AFF2901D100F0E8FBC9434C20C9B2FF305F463954002B22D00A4201D000F0D9FB012294469846D3B29A46984517D9171CAC
S284009080081C3841634601320342F4D00123BB40DB435046DBB24C225F460B40FF32BB54A5235B00FB5CC0184A23FF33F854B2235B005F46F9580868FEF738FCFDE6C0462C0F002090250020402400203F04000001020000010F0000337C5B08022B6DD0221C30680C32A321FEF788FD201CFDF7B5FE45E6002B04D12179301CFEF7F8FE4F
S2840091003EE6C14AC14B1A80FDF72EFA38E6301CA830FEF79FFD061C407881467068002800D1B8E24946FFF7ABFA201CFDF796FE0120FDF797FF23E6737C1B071B0F012B00D01DE63268237C1A2006A992460293FDF7E6FD0699AE4A0391737C5278686C1B092179D31A83469946002900D160E2CE2900D113E3F02900D110E3D02900D12C
S2840091800DE3D12905D158235246D35CDB0900D005E314F0D9FCFA23C2059B004C46D20DA340D218B260737C0F218B4302210B437374301C0021FEF7C1F9E1E5301CA830FEF748FD4178426881468A46002A00D176E22379002B83D1494648685146FFF74FFA7DE7636B1A789207920F012A01D0984681E69A78052AFAD0A08D0EF01AFB98
S284009200002800D14EE2636B984675E6AB8A9A0700D4D4E07F4B804E99469846EC69002C10D0E76A002F00D18BE0B2235B00F358002B1DD0201CFEF761FB002827D02468002CF7D1AB8AA022D200934200D180E1C222D200934200D17BE1704A934200D1F4E01DB03CBC90469946A246AB46F0BD201CFEF743FB002809D0B4235B00F35881
S284009280002B7BD05823E35CAA27590708D55023E35A642B0FD95823E35CA0271A070AD4281C1C30211CFDF7DDF8201C391C0022FEF7A4FCB2E74E23E75C002F08D06B6800E01B68002B3AD098680178B942F8D15823E25C30235207D20FE35C002A04D0022B00D183E1012B29D0991E012900D883E1002B19D1002A7BD1201CFEF7FEFACF
S284009300002800D08AE15823E35C5A076AD50120FDF722FE424B071C9A4637E03B4B414A1A80FDF70DF93023E35C012B28D0002BE3D0022B00D1F0E0032B00D1E1E0A627AEE73027E35D032B00D06EE7201C40300EF06CFA002800D067E7206C616C20626162E35D201C23752F4B1030E3620EF053FA281C1C30FDF76DF84FE7AA278FE784
S2840093800020FDF7E9FD2949071C8A46002F00D158E7281C1C30211CFDF764F83C60201CFEF7ACFA002806D1391C201CD047071E00D133E779E7381CFDF704FDF4E7EC69002C00D13FE72E1C1C36211C301CFDF749F8201CA3210022FEF710FCEC69002CF3D12FE70020FDF7B7FD071C0C488246CCE74C23E35A9B4600F052FF8246002837
S2840094008CD0002018E0C0464E4400003C120020402400202D790000902500203F040000B17E0000124400001D71000015720000037B012B00D182E759463A1C5346FEF737FC0028F4D13023E35C6EE7DA4E3378002B00D105E7D94FD948D82300249A46B946804605E001343378E4B2A34200D899E057466743B1684A46CF193B8A1340DA
S2840094804345F0D13B7C7D225B081A40012AEAD1797C0809029000D1F8E00807000F0128E1D00F2081438B4684460121584608438346029861460F3008400001029058460840011C029801437974012B00D18FE1032BC8D14C23FF33F15C9143F154A5235B00F25C4A23FF33F254A7235B00F25C013AF254B2235B00F1580868FEF716FAEE
S284009500B1E7201C40300EF091F9002800D1D5E00388022223873023E254201CFEF7EEF900280FD15823E35C5F0705D50120FDF713FDC246071C29E70020FDF70DFDCA46071C23E70320FDF707FD9E4A071C92461CE7994ED820327800248046002A05D122E001343378E4B2A3421CD947466743B168CB191A7C032AF3D15A7C1207120F24
S284009580042A01D0022AECD11868A3210022FEF735FBB2680134D019BC30FDF75FFC3378E4B2A342E2D8AB8AA022D200934200D057E66B7A002B00D053E62C692379C52B04D0814A814B1A80FCF7CEFF238902229343238100D044E60020FEF72FFEC223DB00201C0021AB82FDF782FF39E6228F774BA6279A4200D952E64823E35CA627EE
S2840096000F33DBB20D2B00D84AE63023E35C8CE6704A6E4B1A80FCF793FF3EE40320FDF79BFC6D49071C8A46B0E66C488146FFF708FC14F089FA029C5B466343039CC2051B194846D20D8340D218B260ABE501238B40DB43B446DBB260464C210340FF317B54A5235B00FB5C5D48D2184A23FF33FA5412F0CBFBFFF783FB201CFFF70CF9A8
S284009680002801D1FFF71CFCFFF717FC381CA721FEF72EFCE7E6534A4C4B1A80FCF764FF70683FE547462773A38D4F4F201C2382676208300EF0B0F8FFF711FCA927EFE54A4B42480380FCF74FFF82E5039CFFF7F4FB032FD1D1281C43464830A18D1A7AFCF794FF002801D1FFF7E7FB3023E35C082B01D8FFF7E1FB012309A803704146C8
S2840097008B784A781B0213436A461385A08D0EF091F82123002800D17FE006A9CF540268436812921393A38D10A90B80E38D14AA13804346DA7906AF3A23FA544046837942791B02134315A90B800379C2781B02134356226A4413803023E25C4023093AFA52626B0021093217924822B954AF214922B954E25C4A23FA543823E25C4B2383
S284009780FA54E06B39231990E25C381C5023FA54FEF726FFFFF791FBFE2300225CE7221C0C325046FEF72AFA201CFDF757FB0120FDF758FCFFF771FB90250020010F0000010400002D7900006D4400003C120020F7FF000049440000B17E000040240020E02600204D440000017100004A4400006B7A381C013318306B7208F09FFDBA68F5
S284009800381C0021FDF79AFE2DE61A07970F012F01D0FFF78EFBFFF750FB504606AFF85481E7FE23002036E4A622594652008A5C9446A52252008A5C501E80466046811A994200DD191C4A20FF30414481465846C9B2484488460170012149428C44E0452ED0D218A521D2B25F4649007A541948A721490047788C46594661440F705F464F
S2840098804F443A70FF229A40D24301239A434C235846FF33C254B2235B00C1580868FEF745F8FFF70AFB7A7C0F239A4303231343039C381C7B740021FEF71AFBFFF7FDFA381CFDF77FFA381C0021FEF711FBFFF7F4FAC0464024002038B5051E13D0A62303748368002B0ED01A78531EDBB2EF2B09D80A48446800E02468002C04D0A16895
S2840099000B789342F8D138BDE96804304B424B412B71291CFCF778FD2C74F4E72C0F0020002801D000687047014B5868FBE7C0462C0F0020F0B58FB0002859D00378032B01D00FB0F0BD438802AC23808268C368A260E360037C466A2374438A63828269C369A261E3612823C25C2C23E2542A23C25C2D23E2542023C55C062DE1D9337866
S2840099809A07920F032ADCD15B09DAD17378002BD7D16F4607371420391CFDF7C1F932783B78D206520F9A42CBD1B3789A07920F032AC6D11A09C4D11B079B0F032B1DD0B31E072299795879090201436184D9791B7AAD1A1B020B4323842423E554104BB2185B6EA262002BABD0201C9847A8E70C4A0D4B1A80FCF7A3FDA2E701232374BF
S284009A00082D9ED93079F37800021843FF21208307F01EFE002800D193E7331C0922D1E72C0F0020454500003C12002008B58822064B52009A82602100221A611A725A545A60FDF7A9FC0AF08DFD08BD2C0F002038B50C4D041C291C2520FCF713FC3820291CFCF70FFC002C05D019232371201CFDF722FB38BD044A044B1A80FCF760FD5A
S284009A80F8E7C04620010020604400003C12002008B5002804D08A230371FDF70DFB08BD024A034B1A80FCF74BFDF8E7614400003C12002008B5002804D0C5230371FDF7FBFA08BD024A034B1A80FCF739FDF8E7624400003C12002070B51F4D2A7B002A13D02B691978002933D1013AD2B2910089182833C900591805E028331A1C283A27
S284009B001278002A25D18B42F7D12B780024D826002B13D1287E431E9841C0B21AE0A968CB181A7CD10704D55B7C1B071B0F022B0FD101342B78E4B2A342EBD9FCF798FB331C63430028EAD1AA68D3181B7CD907EFD5012070BDC04690250020F8B50E1C252822D0382800D0F8BD144B0F781A78002A18D0013AD2B2D8259B685543191C2F
S284009B80D8314D190E4C0F487D2102E0D833AB4209D01A8A22408242F8D11A7C52080A40012AF3D101273770DEE70C78FFF794FF0123584004403470D6E7C04690250020010F00000102000008B50378DA0601D5FDF75CFC08BDC04670B5204D6023EC5C82B0287A231C012601E09C422BD00133DBB2191E072901D900210023021CCA407F
S284009C001642F2D06022AB5401238B405840144B89002872591801A8042213F0A9FE019B002B13D09847287A00280AD001A810F0ADFE0C4B2022198801A80A431A8010F0ABFE02B070BD6023EC54EDE7064B8822D2011A80FCF788FC019BE3E72C0F0020C8E10100B80E00203C120020094A4223D35C162B0CD808499B00CB589F46022027
S284009C8070473823D35C02200A2BF9D80820F7E70020F5E760240020E8E10100032812DC431D1AD0C31D1DD0031C09331FD0031C0E33DBB2042B0BD9031C0E331CDB114A4023D05403E00F4A03214023D15470470C4AF4214023D154F9E70A4AFC214023D154F4E7074AFA214023D154EFE7054AF8214023D154EAE7024AEF214023D1541E
S284009D00E5E7C046602400200F4A4223D35C162B18D80E499B00CB589F463823D35C1020002B00D1282070471020FCE73823D35C3220002BF7D010200A2BF4D81920F2E73220F0E70020EEE76024002044E2010010B5041CFFF7D8FF23011C1BA401FA2160438900FAF7FEF910BDC04610B5FFF77DFF041CFFF7C8FFA200E301A418E4B2EE
S284009D80E418A4B2FA2160438900FAF7EBF9024A01303223D05410BD6024002070B52C4C0B223823251CE25440352A4B291C0320E363FCF7B5FF4023E056FFF76FFF291C0320FCF7D9FF012641230025E6544223E554FFF74BFF8200C3018018C0B2C0184423E052FFF742FF8300C0184623E054FFF73CFF4723E0543623236025716571AF
S284009E00A671A560257313F09FFE764201225242D317226163612683607313F095FE0523E3760423237703236377A37720222223E2542323E5542423E5543023E55431232684E684E554A076FFF790FF70BDC0466024002000F8FF0710B5027882B0131C403BDBB2041C432B00D991E069499B00CB589F46FB2002B010BDF420FBE78268D3
S284009E80654B00209A60F6E7027A634B00209A76F1E70289604B00201A83ECE75E498268C36800200A614B61E5E7027A5A4B00205A73E0E7027A584B0020DA76DBE7027A554B00201A71D6E7FFF71EFF2389FA211A01D31A9B0158438900FAF743F901A901900220FCF748FF0020C4E7017A4A4A2223D1540020BEE7037AE820072BBAD89D
S284009F00454A00205377B6E7011C08310220FCF733FF0020AFE7037AE820342BABD83E4A00201373A7E7017A3B4A3123D1540020A1E739498268C36800208A62CB629AE7037AE820052B00D995E7334A0020137791E70289304B0020DA848CE7017A2E4A2323D154002086E702892B4B00201A8481E7294B027AD97EE820914200D27AE7D7
S284009F809A77002077E7027A234B00205A7172E7072A00D971E7214B92009B589F46237AE820032B00D966E71B4941228B54002061E7237AE8201A1C2032D2B23F2A00D959E758B2FFF76AFE03201549FCF7D4FE002050E7104B227AD96BE820D140CC0700D448E738215A54FFF7C0FE002042E7237AE820162B00D93DE70121094A9940C9
S28400A000114200D137E7044942228B54FFF7AEFE002030E7A0E2010060240020B0E30100A02400202700500030B5027883B0131C403BDBB2041C432B00D994E06B499B00CB589F4600230372002003B030BD684B5B7903720020F8E7F420F6E7644A2223D35C03720020F0E7614B5B7F03720020EBE75F4BDB7E03720020E6E75C4B1B79C0
S28400A08003720020E1E7022001A9FCF749FE019D002D00D09BE0FA20400020810020D4E7534BDB8C03810020CFE7514A2323D35C03720020C9E74E4B1B8C03810020C4E74B4B9B7F03720020BFE7494B1B7F03720020BAE7464B9B7E03720020B5E7444B1B8B03810020B0E7414B19695A698160C2600020A9E73E4B5B7B03720020A4E72C
S28400A1003B4B1B7B037200209FE7394B9B68836000209AE7FFF7F8FD354A2223D35CFA211A01D31A9B0158438900FAF71BF8A06000208AE72E4A3123D35C0372002084E72B4B996ADA6A8160C26000207DE7011C08310220FCF7E4FD002076E7244B1B688360002071E7072A00D975E7214B92009B589F46FFF77AFD2072002065E7FFF750
S28400A18075FD8300C018207200205EE7FFF76EFD8300C318C201DBB29B182381002054E7134A4123D35C002023724EE7104A4023D35C0020237248E70D4B0020DB6BA36043E70B4A3823D35C002023723DE7FFF79BFD0301181AFA2189008001F9F7C2FF011C281CF9F7BEFF80B256E7D0E3010060240020E0E40100F8B54F464646C0B412
S28400A2001D4BDA7E197F987F89469446161A8E4200DD0E1C751E002E01D100250126002300220224C1180139271C8F400133B846DBB24244AB42F5D9494663468F1B013B02269E40013E7E4392199500AA189500FFF70CFD84000419C301E4B2E418FFF753FDA4B26419FA2160438900F9F77AFF0CBC90469946F8BD6024002008B5FFF748
S28400A28043FD064A2223D35CFA211A01D31A9B0158438900F9F766FF08BDC046602400200048704788240020064B01689A6A4A40D96A4368081C5840104343425841C0B27047C0466024002038B5041CFFF7CEFC051CFFF719FD6843FA2160438900F9F741FF38BD00B583B0684610F04FFB0B4B8022198812010A4301A81A8010F046FB3F
S28400A300074B0122198801A80A431A8010F044FB684610F041FB03B000BDC04618100020B80E002010B5054C011C201CFCF76CF82379002B01D1FFF7D5FF10BD940F002008B500230371FFF7EDFF08BD08B501230371FFF7E7FF08BD08B502230371FFF7E1FF08BD08B503230371FFF7DBFF08BD08B5042303710023036102234373FFF72E
S28400A380D1FF08BD30B50D4C83B00025256000F08BF901A810F0FAFA684603300FF064FC002808D02571064B002201A81A8010F0F3FA03B030BD02232371F4E7940F002018100020F0B587B002A810F0DFFA704D6846002407306C710FF046FC002807D02B79022B3AD002A810F0D6FA07B0F0BD6846C2790126674F331C93401A1C3B8803
S28400A40002A893433B8010F0C7FA6846C3792E710B2B05D00C2B2CD85F4A9B00D3589F462C68002C25D05D4923790A1CDA40164208D101222468002C1BD02379081CD8400242F7D0281C211CFCF70CF82379072B0FD8534A9B00D358201C9F462C71C2E7504B1B78002B04D12B68002B01D0FFF739FF03A80FF0F8FB00280AD0494B1B78FF
S28400A480002BB3D12B68002B00D17FE0FFF72AFFACE704A810F07AFA6B79002B68D004A810F07AFAA2E700F0DFF8041C002CE0D0012C9BD103A810F069FA6846C37903A89C403B881C433C8010F066FA8EE700F069FA041CEAE700F0ADFA041CE6E700F04BFC041CE2E700F0D9FB041CDEE700F075FB041CDAE70FF06FF9041CD6E700F064
S28400A50029F9041CD2E70FF033F9041CCEE70FF015F90A23041C6846C371C7E700F002F909236A46041CD371C0E700F079F80C236A46041CD371B9E70FF036F90723041C6846C371B2E700F0E9FA06236A46041CD371ABE700F080FB0523041C6846C371A4E700F0D7FB02236A46041CD3719DE705A810F00BFA0C4B01241A8805A82243C5
S28400A58092B21A8010F008FA6C7188E72B712DE7940F00201810002000E50100FFFF000034E50100A30F0020B80E002038B5194D2C68281CFBF74EFF2379072B07D8164A9B00D3589F46201C6830636E9847134B1B78002B08D038BD201CA3680C3098470E4B1B78002BF6D12B68002BF3D0FFF779FEF0E7A3699847E9E7201C1030A369E2
S28400A6009847E4E7201C1030E3689847DFE7E3689847DCE7940F002054E50100A30F002010B5002303740379041C062B14D0072B08D10BF0A9F8002804D0012809D1084B1C6006E00023201C23741030E36898470020044B187010BD0BF070F8EBE7C0461C1000209C0F002010B50D4B1C682379062B11D0072B09D001232374201C103091
S28400A680E36898470020074B187010BD201C0BF07BF80028F7D1F1E7201C0BF04FF8F8E71C1000209C0F002010B584B00BF092F8002400F069F800F0A3FA00F0D9FB0FF0A1F800F0FFFA00F059F80FF067F86A464E236846137014720BF0F0FA6A464F2313700F4B68469B7F13720BF0E7FA6A465923147268460124137064420BF0DEFAB4
S28400A7006A4650236846137014810BF0D7FA6A4653236846137014810BF0D0FA04B010BD6024002038B5051C0BF010F9041E07D0012801D1054B1D60054B201C1C7038BD281C1030AB699847F6E7C0461C1000209D0F002038B5074B1D68281C0BF0F6F8041E03D1281C1030AB699847024B201C1C7038BD1C1000209D0F0020014B002209
S28400A7801A7070479D0F0020F0B5474680B41E4C82B06E46802080270636211C7F008000FCF7A2FA381C311CFCF7BAFA23683288A360E3602361251C9B18E43D00226361211CE823EA50183110489046FCF78CFA9720311C4000FCF7A3FAFC23EB58822149006B50842149006B503288862149006B509B1888225200AB504346EB5102B073
S28400A80004BC9046F0BDC046FC2C00202302000043001818C000034BE030C018C06801307047C0461C2C002030B545002D180F4BED0083B0E035ED1801A810F0A7F82B691A7801329A182A6100221A702A696B699A4204D001A810F09FF803B030BDEA686B686A61EB602B61F4E7C046182C002043001818074BC0001818E430C368426808
S28400A880934204D01878431E9841C0B270470020FCE7C046182C002030B5012085B0FFF7E7FF002816D10020FFF7E2FF002801D105B030BD1D4B0222198802A80A431A8010F064F81A4C2378002B13D002A810F063F8EDE7154B01241A88684622431A8010F054F8124D2B78002B11D0684610F053F8D8E703A810F049F80E4B01251A889C
S28400A90003A82A4392B21A8010F046F82570DDE701A810F03BF8074B01A81A88224392B21A8010F039F82C70E0E7C04618100020990F0020B80E002030B597B0041CFFF767FF011C68460EF0AFFF00280FD069464B785A0711D0114D01222B88684693432B8000F01DFD2A88012313432B80201CFFF75AFF002017B030BD9A06EBD45906BE
S28400A980E9D46A4693781B079B0FE4D1044A3823D25C69462023CA54DDE7C046180100206024002038B5224C8E235B00E25C82235B00FC21E35861580432D2B28B4223D08421490061580020C91A91420ADD80214900635082214900581C60501A706058821862500BF074F8802300225B00E2500120FFF73DFF002802D00120FFF79CFF44
S28400AA00FFF74AFF002038BD8621882549006D00605865592D1A9542D2DD80235B00E050431C63500270605882186250DAE7C046182C002038B51E4C8E235B00E25CE421EC23E35861580432D2B28B421FD0F02161580020C91A914208DDE8216350581CEC2160501A706058821862500BF030F80022E823E2500020FFF7FAFE002802D0A6
S28400AA800020FFF759FFFFF707FF002038BDF421F825605865592D1A9542D8DDE823E050431C63500270605882186250DEE7C046182C0020F0B5184D85B02B78061C012B21D0002000F0A4F80BF0D2F9041C071E02D0201C05B0F0BD337A6A466846137033697469029303940BF0E8F82B78041C022BEED1687800F0A3F800F089F80BF089
S28400AB00B7F92F70E5E7012000F082F80BF0B0F9041EDED12870DCE79E0F002030B5037A85B0041C502B32D96F2B1BD011D8532B18D0592B33D0264D2A78002A1DD16A466846137022696369029203930BF0B6F816E01A1C1032D2B2022AECD8F12B26D0592B1CD08D221B4952008A5C184DD2B26A70162AE0D102232B70201CFFF79AFFCF
S28400AB80002810D0144B1C60E87005B030BD4E2BE4D2002BE6D09A1E022ACCD8DEE70C4D2B78002BE9D1A36998470020ECE7084D237CAA789A42F3D0AB70064A8D235B00D35CDBB26B70162BEAD101232B70D4E79E0F0020182C00201C10002038B5064B1D68281CFFF766FF041E01D1AB699847024B201CDC7038BD1C1000209E0F002076
S28400AC00024B0022DA701A709A7070479E0F0020002806D01623012801D1181C70470323FBE71923F9E7C046002806D01623012801D1181C70470823FBE71923F9E7C046031C083BDBB20820112B01D8014AD05C7047C04674E5010038B50D4A8D235B00D55C041C007AEDB2FFF7DEFFA8420BD0207AFFF7CDFF0BF0FBF8002804D0054BCA
S28400AC801C60054B187038BDE36898470020F8E7182C00201C100020A20F002038B5074B1D68287AFFF7B4FF0BF0E2F8041E01D1EB689847024B201C1C7038BD1C100020A20F0020014B00221A707047A20F002038B5084B0222041C08301A700EF0F8FE6023051CE05CFFF793FF011C281C0BF051F938BDA30F002010B5041C0020FFF7A1
S28400AD0087FF0BF0B5F8002802D1201CFFF7E0FF10BDC04638B56023041CC05CFFF778FF0F4D8C235B00E8540E4B1C600E4B5A7F0E4B1A7012F008FF0D4B18808D235B00EB5C192B07D00B4D0123201C2B70FFF7D3FF687038BD201CFFF7BAFF054DF8E7182C00201C100020602400200027002002270020A30F002070B51A4B1A4C1D6887
S28400AD80237882B0012B26D00AF066FC6E460AF031FC063600233380144A1623FF33D25C0223D2B2052A13D96822281CAB5468306B6E98470E4B3D205A7F0E4B311C1B78D31A3380FBF7CAFA0020607002B070BD094B9B5CE8E7281CFFF78EFF0028F4D1D2E7C0461C100020A30F0020182C0020602400200027002088E5010038B512F0FA
S28400AE00A3FE164B1880164B1A78013A1A7010F085FD0020FFF7FCFE0BF02AF8002809D0104B01225A701A700F4B042219880A431A8038BD0D4B02221C680A4B201C08301A700EF045FE6023051CE05CFFF7E0FE011C281C0BF09EF8EBE7C0460227002000270020A30F0020181000201C100020024B00225A701A707047C046A30F0020A2
S28400AE8038B5064AD123D35C0C1C0D780020002B02D101F0B7FD2840207038BD182C002010B50B4C011C82B0201C1C3CFBF7ACFA6378002B0AD101A80FF068FD054B0422198801A80A431A800FF066FD02B010BD342C0020B80E002010B5037982B0102B44D82A4A9B00D3589F46021CC3681032101C9847264BD1229A5C00215970002ACC
S28400AF003FD001A80FF042FD224B0422198801A80A431A800FF040FD02B010BD021C18324369E5E7021C1C328369E1E7184BD1215A5C012082435A54DFE7021C14320369D6E7021C2032C369D2E7021C2032C369101C9847E0E72923C35C021C042430321C40C36A101C9847002CD5D1084BD1229A5CC2E7064BD1215A5C022082435A54B6
S28400AF80BBE7DB69002BBCD1C6E7C04690E50100182C0020B80E002030B5334C83B06378002B03D0032B01D003B030BDD123E35C002B29D12D4B1B78002BF5D0E569002DF2D0201C1C30FBF745FA2B79656063702B790E2B07D8264A9B00D3589F4600F025FC0028E0D100236370E369002BDBD001A80FF0CBFC1F4B0422198801A80A4338
S28400B0001A800FF0C9FCCFE7DA0704D4102363700FF016F9C8E70F23637001F027FCF12101F0B2FAC0E701F0CBF8DAE701F0AEF8D7E700F029FCD4E700F0E2FED1E701F04DFACEE70EF0B4FFCBE70EF0F3FFC8E700F05EFCC5E700F00FF9C2E700F022FBBFE70FF0F5F9BCE7182C002030010020D4E50100B80E002008B507230371FFF73B
S28400B0800FFF08BD08B508230371FFF709FF08BD08B50B230371FFF703FF08BD08B502230371FFF7FDFE08BD30B5037A83B0041C002B05D104230371FFF7F2FE03B030BD114D03231149D12203716B700023AB54EB6125200431FBF7D5F8281C211C1C30FBF792F9FFF74EF9281C083010F0B6FE01A80FF04BFC064B0422198801A80A43DF
S28400B1001A800FF049FCD9E7182C002030010020B80E002008B50A230371FFF7C1FE08BD08B505230371FFF7BBFE08BD08B501230371FFF7B5FE08BD08B506230371FFF7AFFE08BD08B50C230371FFF7A9FE08BD08B50D230371FFF7A3FE08BD08B5034B5B78032B01D007F0A1FE08BD182C002008B5034B5B78032B01D009F033FE08BD80
S28400B180182C002008B5034B5B78032B01D005F0D5FF08BD182C002008B5034B5B78032B01D00AF0CDF908BD182C002008B5034B5B78032B01D009F051F908BD182C002008B5034B5B78032B01D00AF089F908BD182C002000B50B4BD122985C0121014399545B7883B0002B0AD101A80FF0CEFB054B0422198801A80A431A800FF0CCFB57
S28400B20003B000BD182C0020B80E002000B50B4BD122985C0221014399545B7883B0002B0AD101A80FF0B2FB054B0422198801A80A431A800FF0B0FB03B000BD182C0020B80E002008B5044B5A78002A03D111225A7000F0ADFA08BD182C0020054B10B500785C680FF07EF83823E054201CFFF733FE10BD182C0020F0B5474680B43D4CEC
S28400B2803D4E6568338C03272B83AF76FFF708F828230168426829626A62EF54AA68EB682A636B63AB7C002B5CD040230B22E254B27E511CB176432162544122A05C0721884303210843F721084020210843C0B29843231C4133844658780C21084380466146672008404146A054CAB2BA4330218A4301215A7049424422A152A968EA6825
S28400B300A164E2644022597852420A435A70328C5023E252FEF7C4FF02684368A265E365328C6023E252F28C6223E2522A8A6623E2523823F25C6423E254104A9C23E2502323F35C002B09D102229823E2540C48FEF7F6FF012004BC9046F0BD01229823E254F4E73822281CAB54FFF7B5FD0020F1E7C046182C0020602400205DB20000B6
S28400B380502C002010B5837882B09B0903D08369C469009301946846FFF708FF02B010BD10B58378041C9B09022B30D0032B38D023780B2B0AD8244A9B00D3589F465723E35CDA0738D5201C00F0AEF810BD1F4A3123D35C002BF9D0FFF718FFF6E7201C00F08CFDF2E7201C00F0B8F8EEE7201C0EF0C2FDEAE7201C0EF02CFEE6E7201C9F
S28400B400FFF7C0FFE2E7201C00F050FEDEE7211C221C008B553156320EF078FE0028C7D0D4E7221C231CC1698069553256330EF0ADFE0028BCD0C9E7201C01F025FA0028C1D0FFF7C7FEBEE710E6010060240020024A01213123D1547047C04660240020024A00213123D1547047C0466024002008B50548032383700022C823C25403493A
S28400B480383001F05FF808BD182C002091B4000010B5034C6068FFF71FFD0023A37010BD182C002000B583B011236A4668461371FFF712FD03B000BD38B50078144C656802281FD800280FD1EB232B7701232375104BA361FEF790FE02232061201CA370083010F093FC38BD0EF03CFF03232877A3700022C823201CE2543830064901F06F
